{
  "contractName": "Committee",
  "abi": [
    {
      "inputs": [
        {
          "internalType": "address[]",
          "name": "committeeMembers",
          "type": "address[]"
        },
        {
          "internalType": "uint256",
          "name": "numSignaturesRequired",
          "type": "uint256"
        }
      ],
      "payable": false,
      "stateMutability": "nonpayable",
      "type": "constructor"
    },
    {
      "constant": true,
      "inputs": [],
      "name": "hasRegisteredFact",
      "outputs": [
        {
          "internalType": "bool",
          "name": "",
          "type": "bool"
        }
      ],
      "payable": false,
      "stateMutability": "view",
      "type": "function"
    },
    {
      "constant": true,
      "inputs": [
        {
          "internalType": "address",
          "name": "",
          "type": "address"
        }
      ],
      "name": "isMember",
      "outputs": [
        {
          "internalType": "bool",
          "name": "",
          "type": "bool"
        }
      ],
      "payable": false,
      "stateMutability": "view",
      "type": "function"
    },
    {
      "constant": true,
      "inputs": [
        {
          "internalType": "bytes32",
          "name": "fact",
          "type": "bytes32"
        }
      ],
      "name": "isValid",
      "outputs": [
        {
          "internalType": "bool",
          "name": "",
          "type": "bool"
        }
      ],
      "payable": false,
      "stateMutability": "view",
      "type": "function"
    },
    {
      "constant": true,
      "inputs": [],
      "name": "signaturesRequired",
      "outputs": [
        {
          "internalType": "uint256",
          "name": "",
          "type": "uint256"
        }
      ],
      "payable": false,
      "stateMutability": "view",
      "type": "function"
    },
    {
      "constant": true,
      "inputs": [],
      "name": "identify",
      "outputs": [
        {
          "internalType": "string",
          "name": "",
          "type": "string"
        }
      ],
      "payable": false,
      "stateMutability": "pure",
      "type": "function"
    },
    {
      "constant": false,
      "inputs": [
        {
          "internalType": "bytes32",
          "name": "claimHash",
          "type": "bytes32"
        },
        {
          "internalType": "bytes",
          "name": "availabilityProofs",
          "type": "bytes"
        }
      ],
      "name": "verifyAvailabilityProof",
      "outputs": [],
      "payable": false,
      "stateMutability": "nonpayable",
      "type": "function"
    }
  ],
  "bytecode": "0x608060405234801561001057600080fd5b506040516109c13803806109c18339818101604052604081101561003357600080fd5b810190808051604051939291908464010000000082111561005357600080fd5b8382019150602082018581111561006957600080fd5b825186602082028301116401000000008211171561008657600080fd5b8083526020830192505050908051906020019060200280838360005b838110156100bd5780820151818401526020810190506100a2565b5050505090500160405260200180519060200190929190505050815181111561014e576040517f08c379a000000000000000000000000000000000000000000000000000000000815260040180806020018281038252601c8152602001807f544f4f5f4d414e595f52455155495245445f5349474e4154555245530000000081525060200191505060405180910390fd5b60008090505b82518110156102ae57600015156003600085848151811061017157fe5b602002602001015173ffffffffffffffffffffffffffffffffffffffff1673ffffffffffffffffffffffffffffffffffffffff16815260200190815260200160002060009054906101000a900460ff16151514610236576040517f08c379a000000000000000000000000000000000000000000000000000000000815260040180806020018281038252601c8152602001807f4e4f4e5f554e495155455f434f4d4d49545445455f4d454d424552530000000081525060200191505060405180910390fd5b60016003600085848151811061024857fe5b602002602001015173ffffffffffffffffffffffffffffffffffffffff1673ffffffffffffffffffffffffffffffffffffffff16815260200190815260200160002060006101000a81548160ff0219169083151502179055508080600101915050610154565b508060028190555050506106fa806102c76000396000f3fe608060405234801561001057600080fd5b50600436106100625760003560e01c8063504f7f6f146100675780636a938567146100ea578063a230c52414610130578063ce757d291461018c578063d6354e15146101aa578063eeb72866146101cc575b600080fd5b6100e86004803603604081101561007d57600080fd5b8101908080359060200190929190803590602001906401000000008111156100a457600080fd5b8201836020820111156100b657600080fd5b803590602001918460018302840111640100000000831117156100d857600080fd5b909192939192939050505061024f565b005b6101166004803603602081101561010057600080fd5b810190808035906020019092919050505061056a565b604051808215151515815260200191505060405180910390f35b6101726004803603602081101561014657600080fd5b81019080803573ffffffffffffffffffffffffffffffffffffffff169060200190929190505050610593565b604051808215151515815260200191505060405180910390f35b6101946105b3565b6040518082815260200191505060405180910390f35b6101b26105b9565b604051808215151515815260200191505060405180910390f35b6101d46105d0565b6040518080602001828103825283818151815260200191508051906020019080838360005b838110156102145780820151818401526020810190506101f9565b50505050905090810190601f1680156102415780820380516001836020036101000a031916815260200191505b509250505060405180910390f35b6041600254028282905010156102b0576040517f08c379a00000000000000000000000000000000000000000000000000000000081526004018080602001828103825260218152602001806106816021913960400191505060405180910390fd5b6000809050600080905060008090505b60025481101561055957600061031a86868080601f016020809104026020016040519081016040528093929190818152602001838380828437600081840152601f19601f820116905080830192505050505050508561060d565b9050600061036f87878080601f016020809104026020016040519081016040528093929190818152602001838380828437600081840152601f19601f820116905080830192505050505050506020870161060d565b9050600087876040880181811061038257fe5b9050013560f81c60f81b60f81c9050604186019550600060018a83868660405160008152602001604052604051808581526020018460ff1660ff1681526020018381526020018281526020019450505050506020604051602081039080840390855afa1580156103f6573d6000803e3d6000fd5b505050602060405103519050600360008273ffffffffffffffffffffffffffffffffffffffff1673ffffffffffffffffffffffffffffffffffffffff16815260200190815260200160002060009054906101000a900460ff166104a4576040517f08c379a00000000000000000000000000000000000000000000000000000000081526004018080602001828103825260248152602001806106a26024913960400191505060405180910390fd5b8573ffffffffffffffffffffffffffffffffffffffff168173ffffffffffffffffffffffffffffffffffffffff1611610545576040517f08c379a00000000000000000000000000000000000000000000000000000000081526004018080602001828103825260158152602001807f4e4f4e5f534f525445445f5349474e415455524553000000000000000000000081525060200191505060405180910390fd5b8095505050505080806001019150506102c0565b5061056385610623565b5050505050565b600080600083815260200190815260200160002060009054906101000a900460ff169050919050565b60036020528060005260406000206000915054906101000a900460ff1681565b60025481565b6000600160009054906101000a900460ff16905090565b60606040518060400160405280601a81526020017f537461726b576172655f436f6d6d69747465655f323031395f31000000000000815250905090565b6000806020830190508084015191505092915050565b600160008083815260200190815260200160002060006101000a81548160ff021916908315150217905550600160009054906101000a900460ff1661067d5760018060006101000a81548160ff0219169083151502179055505b5056fe494e56414c49445f415641494c4142494c4954595f50524f4f465f4c454e475448415641494c4142494c4954595f50524f5645525f4e4f545f494e5f434f4d4d4954544545a265627a7a72315820633ce59bceaa5029d0f364191d14d222ec88b076991e349aa12bf57c12f2317d64736f6c63430005100032",
  "source": "// Solidity 0.5.4 has this bug: https://github.com/ethereum/solidity/issues/5997\n// It's already fixed: https://github.com/ethereum/solidity/pull/6000 and will be released in 0.5.5.\npragma solidity ^0.5.2;\n\nimport \"../FactRegistry.sol\";\nimport \"../interfaces/Identity.sol\";\n\ncontract Committee is FactRegistry, Identity {\n\n    uint256 constant SIGNATURE_LENGTH = 32 * 2 + 1; // r(32) + s(32) +  v(1).\n    uint256 public signaturesRequired;\n    mapping (address => bool) public isMember;\n\n    /// @dev Contract constructor sets initial members and required number of signatures.\n    /// @param committeeMembers List of committee members.\n    /// @param numSignaturesRequired Number of required signatures.\n    constructor (address[] memory committeeMembers, uint256 numSignaturesRequired)\n        public\n    {\n        require(numSignaturesRequired <= committeeMembers.length, \"TOO_MANY_REQUIRED_SIGNATURES\");\n        for (uint256 idx = 0; idx < committeeMembers.length; idx++) {\n            require(isMember[committeeMembers[idx]] == false, \"NON_UNIQUE_COMMITTEE_MEMBERS\");\n            isMember[committeeMembers[idx]] = true;\n        }\n        signaturesRequired = numSignaturesRequired;\n    }\n\n    function identify()\n        external pure\n        returns(string memory)\n    {\n        return \"StarkWare_Committee_2019_1\";\n    }\n\n    /// @dev Verifies the availability proof. Reverts if invalid.\n    /// An availability proof should have a form of a concatenation of ec-signatures by signatories.\n    /// Signatures should be sorted by signatory address ascendingly.\n    /// Signatures should be 65 bytes long. r(32) + s(32) + v(1).\n    /// There should be at least the number of required signatures as defined in this contract\n    /// and all signatures provided should be from signatories.\n    ///\n    /// See :sol:mod:`AvailabilityVerifiers` for more information on when this is used.\n    ///\n    /// @param claimHash The hash of the claim the committee is signing on.\n    /// The format is keccak256(abi.encodePacked(\n    ///    newVaultRoot, vaultTreeHeight, newOrderRoot, orderTreeHeight sequenceNumber))\n    /// @param availabilityProofs Concatenated ec signatures by committee members.\n    function verifyAvailabilityProof(\n        bytes32 claimHash,\n        bytes calldata availabilityProofs\n    )\n        external\n    {\n        require(\n            availabilityProofs.length >= signaturesRequired * SIGNATURE_LENGTH,\n            \"INVALID_AVAILABILITY_PROOF_LENGTH\");\n\n        uint256 offset = 0;\n        address prevRecoveredAddress = address(0);\n        for (uint256 proofIdx = 0; proofIdx < signaturesRequired; proofIdx++) {\n            bytes32 r = bytesToBytes32(availabilityProofs, offset);\n            bytes32 s = bytesToBytes32(availabilityProofs, offset + 32);\n            uint8 v = uint8(availabilityProofs[offset + 64]);\n            offset += SIGNATURE_LENGTH;\n            address recovered = ecrecover(\n                claimHash,\n                v,\n                r,\n                s\n            );\n            // Signatures should be sorted off-chain before submitting to enable cheap uniqueness\n            // check on-chain.\n            require(isMember[recovered], \"AVAILABILITY_PROVER_NOT_IN_COMMITTEE\");\n            require(recovered > prevRecoveredAddress, \"NON_SORTED_SIGNATURES\");\n            prevRecoveredAddress = recovered;\n        }\n        registerFact(claimHash);\n    }\n\n    function bytesToBytes32(bytes memory array, uint256 offset)\n        private pure\n        returns (bytes32 result) {\n        // Arrays are prefixed by a 256 bit length parameter.\n        uint256 actualOffset = offset + 32;\n\n        // Read the bytes32 from array memory.\n        // solium-disable-next-line security/no-inline-assembly\n        assembly {\n            result := mload(add(array, actualOffset))\n        }\n    }\n}\n",
  "sourcePath": "/Users/gokulalex/Apps/eth_apps/VerityNet/tinlake-tokenswap-starkex/scalable-dex/contracts/committee/Committee.sol",
  "compiler": {
    "name": "solc",
    "version": "0.5.16+commit.9c3226ce.Emscripten.clang"
  },
  "schemaVersion": "3.3.1",
  "updatedAt": "2020-10-21T21:01:22.795Z",
  "devdoc": {
    "methods": {
      "constructor": {
        "details": "Contract constructor sets initial members and required number of signatures.",
        "params": {
          "committeeMembers": "List of committee members.",
          "numSignaturesRequired": "Number of required signatures."
        }
      },
      "verifyAvailabilityProof(bytes32,bytes)": {
        "details": "Verifies the availability proof. Reverts if invalid. An availability proof should have a form of a concatenation of ec-signatures by signatories. Signatures should be sorted by signatory address ascendingly. Signatures should be 65 bytes long. r(32) + s(32) + v(1). There should be at least the number of required signatures as defined in this contract and all signatures provided should be from signatories.     /// See :sol:mod:`AvailabilityVerifiers` for more information on when this is used. ",
        "params": {
          "availabilityProofs": "Concatenated ec signatures by committee members.",
          "claimHash": "The hash of the claim the committee is signing on. The format is keccak256(abi.encodePacked(    newVaultRoot, vaultTreeHeight, newOrderRoot, orderTreeHeight sequenceNumber))"
        }
      }
    }
  },
  "userdoc": {
    "methods": {}
  }
}