{
  "contractName": "FactRegistry",
  "abi": [
    {
      "constant": true,
      "inputs": [
        {
          "internalType": "bytes32",
          "name": "fact",
          "type": "bytes32"
        }
      ],
      "name": "isValid",
      "outputs": [
        {
          "internalType": "bool",
          "name": "",
          "type": "bool"
        }
      ],
      "payable": false,
      "stateMutability": "view",
      "type": "function"
    },
    {
      "constant": true,
      "inputs": [],
      "name": "hasRegisteredFact",
      "outputs": [
        {
          "internalType": "bool",
          "name": "",
          "type": "bool"
        }
      ],
      "payable": false,
      "stateMutability": "view",
      "type": "function"
    }
  ],
  "bytecode": "0x608060405234801561001057600080fd5b5061010f806100206000396000f3fe6080604052348015600f57600080fd5b506004361060325760003560e01c80636a938567146037578063d6354e1514607a575b600080fd5b606060048036036020811015604b57600080fd5b8101908080359060200190929190505050609a565b604051808215151515815260200191505060405180910390f35b608060c3565b604051808215151515815260200191505060405180910390f35b600080600083815260200190815260200160002060009054906101000a900460ff169050919050565b6000600160009054906101000a900460ff1690509056fea265627a7a7231582016459e6f421c95df733e3ec118cc1510c18e3782623bb6520b3d76e211ddc65364736f6c63430005100032",
  "source": "pragma solidity ^0.5.2;\n\nimport \"./interfaces/IQueryableFactRegistry.sol\";\n\ncontract FactRegistry is IQueryableFactRegistry {\n    // Mapping: fact hash -> true.\n    mapping (bytes32 => bool) private verifiedFact;\n\n    // Indicates whether the Fact Registry has at least one fact registered.\n    bool anyFactRegistered;\n\n    /*\n      Checks if a fact has been verified.\n    */\n    function isValid(bytes32 fact)\n        external view\n        returns(bool)\n    {\n        return verifiedFact[fact];\n    }\n\n    function registerFact(\n        bytes32 factHash\n        )\n        internal\n    {\n        // This function stores the testiment hash in the mapping.\n        verifiedFact[factHash] = true;\n\n        // Mark first time off.\n        if (!anyFactRegistered) {\n            anyFactRegistered = true;\n        }\n    }\n\n    /*\n      Indicates whether at least one fact was registered.\n    */\n    function hasRegisteredFact()\n        external view\n        returns(bool)\n    {\n        return anyFactRegistered;\n    }\n\n}\n",
  "sourcePath": "/Users/gokulalex/Apps/eth_apps/VerityNet/tinlake-tokenswap-starkex/scalable-dex/contracts/FactRegistry.sol",
  "compiler": {
    "name": "solc",
    "version": "0.5.16+commit.9c3226ce.Emscripten.clang"
  },
  "schemaVersion": "3.3.1",
  "updatedAt": "2020-10-21T21:01:22.769Z",
  "devdoc": {
    "methods": {}
  },
  "userdoc": {
    "methods": {}
  }
}