{
  "contractName": "Freezable",
  "abi": [
    {
      "anonymous": false,
      "inputs": [],
      "name": "LogFrozen",
      "type": "event"
    },
    {
      "anonymous": false,
      "inputs": [],
      "name": "LogUnFrozen",
      "type": "event"
    },
    {
      "constant": true,
      "inputs": [],
      "name": "DEPOSIT_CANCEL_DELAY",
      "outputs": [
        {
          "internalType": "uint256",
          "name": "",
          "type": "uint256"
        }
      ],
      "payable": false,
      "stateMutability": "view",
      "type": "function"
    },
    {
      "constant": true,
      "inputs": [],
      "name": "FREEZE_GRACE_PERIOD",
      "outputs": [
        {
          "internalType": "uint256",
          "name": "",
          "type": "uint256"
        }
      ],
      "payable": false,
      "stateMutability": "view",
      "type": "function"
    },
    {
      "constant": true,
      "inputs": [],
      "name": "MAX_VERIFIER_COUNT",
      "outputs": [
        {
          "internalType": "uint256",
          "name": "",
          "type": "uint256"
        }
      ],
      "payable": false,
      "stateMutability": "view",
      "type": "function"
    },
    {
      "constant": true,
      "inputs": [],
      "name": "UNFREEZE_DELAY",
      "outputs": [
        {
          "internalType": "uint256",
          "name": "",
          "type": "uint256"
        }
      ],
      "payable": false,
      "stateMutability": "view",
      "type": "function"
    },
    {
      "constant": true,
      "inputs": [],
      "name": "VERIFIER_REMOVAL_DELAY",
      "outputs": [
        {
          "internalType": "uint256",
          "name": "",
          "type": "uint256"
        }
      ],
      "payable": false,
      "stateMutability": "view",
      "type": "function"
    },
    {
      "constant": true,
      "inputs": [],
      "name": "isFrozen",
      "outputs": [
        {
          "internalType": "bool",
          "name": "frozen",
          "type": "bool"
        }
      ],
      "payable": false,
      "stateMutability": "view",
      "type": "function"
    },
    {
      "constant": false,
      "inputs": [],
      "name": "unFreeze",
      "outputs": [],
      "payable": false,
      "stateMutability": "nonpayable",
      "type": "function"
    }
  ],
  "bytecode": "0x608060405234801561001057600080fd5b506102ad806100206000396000f3fe608060405234801561001057600080fd5b506004361061007c5760003560e01c80637cf12b901161005b5780637cf12b90146100df578063993f3639146100e9578063b766311214610107578063e6de6282146101255761007c565b80627175421461008157806333eeb1471461009f57806377e84e0d146100c1575b600080fd5b610089610143565b6040518082815260200191505060405180910390f35b6100a761014a565b604051808215151515815260200191505060405180910390f35b6100c9610161565b6040518082815260200191505060405180910390f35b6100e7610168565b005b6100f161025f565b6040518082815260200191505060405180910390f35b61010f610267565b6040518082815260200191505060405180910390f35b61012d610273565b6040518082815260200191505060405180910390f35b62093a8081565b6000600460149054906101000a900460ff16905090565b6201518081565b60011515600460149054906101000a900460ff161515146101f1576040517f08c379a00000000000000000000000000000000000000000000000000000000081526004018080602001828103825260108152602001807f53544154455f4e4f545f46524f5a454e0000000000000000000000000000000081525060200191505060405180910390fd5b6040517f08c379a000000000000000000000000000000000000000000000000000000000815260040180806020018281038252600d8152602001807f554e494d504c454d454e5445440000000000000000000000000000000000000081525060200191505060405180910390fd5b6301e1338081565b621baf8062093a800181565b60408156fea265627a7a72315820d154fd9a3d7fd76deb1dc71b5b67a565543c9f7be6db0a97c8e4ce12187d1d9864736f6c63430005100032",
  "source": "pragma solidity ^0.5.2;\n\nimport \"../libraries/LibConstants.sol\";\nimport \"../interfaces/MFreezable.sol\";\nimport \"../interfaces/MGovernance.sol\";\nimport \"./MainStorage.sol\";\n\n/*\n  Implements MFreezable.\n*/\ncontract Freezable is MainStorage, LibConstants, MGovernance, MFreezable {\n    event LogFrozen();\n    event LogUnFrozen();\n\n    modifier notFrozen()\n    {\n        require(stateFrozen == false, \"STATE_IS_FROZEN\");\n        _;\n    }\n\n    modifier onlyFrozen()\n    {\n        require(stateFrozen == true, \"STATE_NOT_FROZEN\");\n        _;\n    }\n\n    function isFrozen()\n        external view\n        returns (bool frozen) {\n        frozen = stateFrozen;\n    }\n\n    function freeze()\n        internal\n        notFrozen()\n    {\n        // solium-disable-next-line security/no-block-members\n        unFreezeTime = now + UNFREEZE_DELAY;\n\n        // Update state.\n        stateFrozen = true;\n\n        // Log event.\n        emit LogFrozen();\n    }\n\n    function unFreeze()\n        external\n        onlyFrozen()\n        onlyGovernance()\n    {\n        // solium-disable-next-line security/no-block-members\n        require(now >= unFreezeTime, \"UNFREEZE_NOT_ALLOWED_YET\");\n\n        // Update state.\n        stateFrozen = false;\n\n        // Increment roots to invalidate them, w/o losing information.\n        vaultRoot += 1;\n        orderRoot += 1;\n\n        // Log event.\n        emit LogUnFrozen();\n    }\n\n}\n",
  "sourcePath": "/Users/gokulalex/Apps/eth_apps/VerityNet/tinlake-tokenswap-starkex/scalable-dex/contracts/components/Freezable.sol",
  "compiler": {
    "name": "solc",
    "version": "0.5.16+commit.9c3226ce.Emscripten.clang"
  },
  "schemaVersion": "3.3.1",
  "updatedAt": "2020-10-21T21:01:22.819Z",
  "devdoc": {
    "methods": {}
  },
  "userdoc": {
    "methods": {}
  }
}