{
  "contractName": "LibConstants",
  "abi": [
    {
      "constant": true,
      "inputs": [],
      "name": "DEPOSIT_CANCEL_DELAY",
      "outputs": [
        {
          "internalType": "uint256",
          "name": "",
          "type": "uint256"
        }
      ],
      "payable": false,
      "stateMutability": "view",
      "type": "function"
    },
    {
      "constant": true,
      "inputs": [],
      "name": "FREEZE_GRACE_PERIOD",
      "outputs": [
        {
          "internalType": "uint256",
          "name": "",
          "type": "uint256"
        }
      ],
      "payable": false,
      "stateMutability": "view",
      "type": "function"
    },
    {
      "constant": true,
      "inputs": [],
      "name": "MAX_VERIFIER_COUNT",
      "outputs": [
        {
          "internalType": "uint256",
          "name": "",
          "type": "uint256"
        }
      ],
      "payable": false,
      "stateMutability": "view",
      "type": "function"
    },
    {
      "constant": true,
      "inputs": [],
      "name": "UNFREEZE_DELAY",
      "outputs": [
        {
          "internalType": "uint256",
          "name": "",
          "type": "uint256"
        }
      ],
      "payable": false,
      "stateMutability": "view",
      "type": "function"
    },
    {
      "constant": true,
      "inputs": [],
      "name": "VERIFIER_REMOVAL_DELAY",
      "outputs": [
        {
          "internalType": "uint256",
          "name": "",
          "type": "uint256"
        }
      ],
      "payable": false,
      "stateMutability": "view",
      "type": "function"
    }
  ],
  "bytecode": "0x608060405234801561001057600080fd5b5061014d806100206000396000f3fe608060405234801561001057600080fd5b50600436106100565760003560e01c80627175421461005b57806377e84e0d14610079578063993f363914610097578063b7663112146100b5578063e6de6282146100d3575b600080fd5b6100636100f1565b6040518082815260200191505060405180910390f35b6100816100f8565b6040518082815260200191505060405180910390f35b61009f6100ff565b6040518082815260200191505060405180910390f35b6100bd610107565b6040518082815260200191505060405180910390f35b6100db610113565b6040518082815260200191505060405180910390f35b62093a8081565b6201518081565b6301e1338081565b621baf8062093a800181565b60408156fea265627a7a7231582026b0f2f0964a0ad383331ea9b5afb2055145f06d6bc16f6684db44f603d198f864736f6c63430005100032",
  "source": "pragma solidity ^0.5.2;\n\ncontract LibConstants {\n    // Durations for time locked mechanisms (in seconds).\n    // Note that it is known that miners can manipulate block timestamps\n    // up to a deviation of a few seconds.\n    // This mechanism should not be used for fine grained timing.\n\n    // The time required to cancel a deposit, in the case the operator does not move the funds\n    // to the off-chain storage.\n    uint256 public constant DEPOSIT_CANCEL_DELAY = 1 days;\n\n    // The time required to freeze the exchange, in the case the operator does not execute a\n    // requested full withdrawal.\n    uint256 public constant FREEZE_GRACE_PERIOD = 7 days;\n\n    // The time after which the exchange may be unfrozen after it froze. This should be enough time\n    // for users to perform escape hatches to get back their funds.\n    uint256 public constant UNFREEZE_DELAY = 365 days;\n\n    // Maximal number of verifiers which may co-exist.\n    uint256 public constant MAX_VERIFIER_COUNT = uint256(64);\n\n    // The time required to remove a verifier in case of a verifier upgrade.\n    uint256 public constant VERIFIER_REMOVAL_DELAY = FREEZE_GRACE_PERIOD + (21 days);\n\n    uint256 constant MAX_VAULT_ID = 2**31 - 1;\n    uint256 constant MAX_QUANTUM = 2**128 - 1;\n\n    address constant ZERO_ADDRESS = address(0x0);\n\n    uint256 constant K_MODULUS =\n    0x800000000000011000000000000000000000000000000000000000000000001;\n    uint256 constant K_BETA =\n    0x6f21413efbe40de150e596d72f7a8c5609ad26c15c915c1f4cdfcb99cee9e89;\n}\n",
  "sourcePath": "/Users/gokulalex/Apps/eth_apps/VerityNet/tinlake-tokenswap-starkex/scalable-dex/contracts/libraries/LibConstants.sol",
  "compiler": {
    "name": "solc",
    "version": "0.5.16+commit.9c3226ce.Emscripten.clang"
  },
  "schemaVersion": "3.3.1",
  "updatedAt": "2020-10-21T21:01:22.967Z",
  "devdoc": {
    "methods": {}
  },
  "userdoc": {
    "methods": {}
  }
}