{
  "contractName": "MainGovernance",
  "abi": [
    {
      "anonymous": false,
      "inputs": [
        {
          "indexed": false,
          "internalType": "address",
          "name": "acceptedGovernor",
          "type": "address"
        }
      ],
      "name": "LogNewGovernorAccepted",
      "type": "event"
    },
    {
      "anonymous": false,
      "inputs": [
        {
          "indexed": false,
          "internalType": "address",
          "name": "nominatedGovernor",
          "type": "address"
        }
      ],
      "name": "LogNominatedGovernor",
      "type": "event"
    },
    {
      "anonymous": false,
      "inputs": [],
      "name": "LogNominationCancelled",
      "type": "event"
    },
    {
      "anonymous": false,
      "inputs": [
        {
          "indexed": false,
          "internalType": "address",
          "name": "removedGovernor",
          "type": "address"
        }
      ],
      "name": "LogRemovedGovernor",
      "type": "event"
    },
    {
      "constant": true,
      "inputs": [],
      "name": "MAIN_GOVERNANCE_INFO_TAG",
      "outputs": [
        {
          "internalType": "string",
          "name": "",
          "type": "string"
        }
      ],
      "payable": false,
      "stateMutability": "view",
      "type": "function"
    },
    {
      "constant": true,
      "inputs": [
        {
          "internalType": "address",
          "name": "testGovernor",
          "type": "address"
        }
      ],
      "name": "mainIsGovernor",
      "outputs": [
        {
          "internalType": "bool",
          "name": "",
          "type": "bool"
        }
      ],
      "payable": false,
      "stateMutability": "view",
      "type": "function"
    },
    {
      "constant": false,
      "inputs": [
        {
          "internalType": "address",
          "name": "newGovernor",
          "type": "address"
        }
      ],
      "name": "mainNominateNewGovernor",
      "outputs": [],
      "payable": false,
      "stateMutability": "nonpayable",
      "type": "function"
    },
    {
      "constant": false,
      "inputs": [
        {
          "internalType": "address",
          "name": "governorForRemoval",
          "type": "address"
        }
      ],
      "name": "mainRemoveGovernor",
      "outputs": [],
      "payable": false,
      "stateMutability": "nonpayable",
      "type": "function"
    },
    {
      "constant": false,
      "inputs": [],
      "name": "mainAcceptGovernance",
      "outputs": [],
      "payable": false,
      "stateMutability": "nonpayable",
      "type": "function"
    },
    {
      "constant": false,
      "inputs": [],
      "name": "mainCancelNomination",
      "outputs": [],
      "payable": false,
      "stateMutability": "nonpayable",
      "type": "function"
    }
  ],
  "bytecode": "0x608060405234801561001057600080fd5b50610bce806100206000396000f3fe608060405234801561001057600080fd5b50600436106100625760003560e01c806328700a151461006757806345f5cd971461007157806372eb3688146100cd5780638c4bce1c146100d7578063a1cc921e1461011b578063c23b60ef1461015f575b600080fd5b61006f6101e2565b005b6100b36004803603602081101561008757600080fd5b81019080803573ffffffffffffffffffffffffffffffffffffffff1690602001909291905050506101ec565b604051808215151515815260200191505060405180910390f35b6100d56101fe565b005b610119600480360360208110156100ed57600080fd5b81019080803573ffffffffffffffffffffffffffffffffffffffff169060200190929190505050610208565b005b61015d6004803603602081101561013157600080fd5b81019080803573ffffffffffffffffffffffffffffffffffffffff169060200190929190505050610214565b005b610167610220565b6040518080602001828103825283818151815260200191508051906020019080838360005b838110156101a757808201518184015260208101905061018c565b50505050905090810190601f1680156101d45780820380516001836020036101000a031916815260200191505b509250505060405180910390f35b6101ea61023c565b565b60006101f7826103e4565b9050919050565b610206610448565b565b61021181610542565b50565b61021d816106f5565b50565b604051806060016040528060268152602001610b746026913981565b600061024661095a565b90508060010160009054906101000a900473ffffffffffffffffffffffffffffffffffffffff1673ffffffffffffffffffffffffffffffffffffffff163373ffffffffffffffffffffffffffffffffffffffff161461030d576040517f08c379a00000000000000000000000000000000000000000000000000000000081526004018080602001828103825260178152602001807f4f4e4c595f43414e4449444154455f474f5645524e4f5200000000000000000081525060200191505060405180910390fd5b61033a8160010160009054906101000a900473ffffffffffffffffffffffffffffffffffffffff16610a67565b60008160010160006101000a81548173ffffffffffffffffffffffffffffffffffffffff021916908373ffffffffffffffffffffffffffffffffffffffff1602179055507fcfb473e6c03f9a29ddaf990e736fa3de5188a0bd85d684f5b6e164ebfbfff5d233604051808273ffffffffffffffffffffffffffffffffffffffff1673ffffffffffffffffffffffffffffffffffffffff16815260200191505060405180910390a150565b6000806103ef61095a565b90508060000160008473ffffffffffffffffffffffffffffffffffffffff1673ffffffffffffffffffffffffffffffffffffffff16815260200190815260200160002060009054906101000a900460ff16915050919050565b610451336103e4565b6104c3576040517f08c379a000000000000000000000000000000000000000000000000000000000815260040180806020018281038252600f8152602001807f4f4e4c595f474f5645524e414e4345000000000000000000000000000000000081525060200191505060405180910390fd5b60006104cd61095a565b905060008160010160006101000a81548173ffffffffffffffffffffffffffffffffffffffff021916908373ffffffffffffffffffffffffffffffffffffffff1602179055507f7a8dc7dd7fffb43c4807438fa62729225156941e641fd877938f4edade3429f560405160405180910390a150565b61054b336103e4565b6105bd576040517f08c379a000000000000000000000000000000000000000000000000000000000815260040180806020018281038252600f8152602001807f4f4e4c595f474f5645524e414e4345000000000000000000000000000000000081525060200191505060405180910390fd5b60006105c761095a565b9050600015156105d6836103e4565b15151461064b576040517f08c379a00000000000000000000000000000000000000000000000000000000081526004018080602001828103825260108152602001807f414c52454144595f474f5645524e4f520000000000000000000000000000000081525060200191505060405180910390fd5b818160010160006101000a81548173ffffffffffffffffffffffffffffffffffffffff021916908373ffffffffffffffffffffffffffffffffffffffff1602179055507f6166272c8d3f5f579082f2827532732f97195007983bb5b83ac12c56700b01a682604051808273ffffffffffffffffffffffffffffffffffffffff1673ffffffffffffffffffffffffffffffffffffffff16815260200191505060405180910390a15050565b6106fe336103e4565b610770576040517f08c379a000000000000000000000000000000000000000000000000000000000815260040180806020018281038252600f8152602001807f4f4e4c595f474f5645524e414e4345000000000000000000000000000000000081525060200191505060405180910390fd5b8073ffffffffffffffffffffffffffffffffffffffff163373ffffffffffffffffffffffffffffffffffffffff161415610812576040517f08c379a00000000000000000000000000000000000000000000000000000000081526004018080602001828103825260148152602001807f474f5645524e4f525f53454c465f52454d4f564500000000000000000000000081525060200191505060405180910390fd5b600061081c61095a565b9050610827826103e4565b610899576040517f08c379a000000000000000000000000000000000000000000000000000000000815260040180806020018281038252600c8152602001807f4e4f545f474f5645524e4f52000000000000000000000000000000000000000081525060200191505060405180910390fd5b60008160000160008473ffffffffffffffffffffffffffffffffffffffff1673ffffffffffffffffffffffffffffffffffffffff16815260200190815260200160002060006101000a81548160ff0219169083151502179055507fd75f94825e770b8b512be8e74759e252ad00e102e38f50cce2f7c6f868a2959982604051808273ffffffffffffffffffffffffffffffffffffffff1673ffffffffffffffffffffffffffffffffffffffff16815260200191505060405180910390a15050565b60006060610966610b53565b9050600080826040518082805190602001908083835b6020831061099f578051825260208201915060208101905060208303925061097c565b6001836020036101000a03801982511681845116808217855250505050505090500191505090815260200160405180910390209050600115158160010160149054906101000a900460ff16151514610a5f576040517f08c379a000000000000000000000000000000000000000000000000000000000815260040180806020018281038252600f8152602001807f4e4f545f494e495449414c495a4544000000000000000000000000000000000081525060200191505060405180910390fd5b809250505090565b60001515610a74826103e4565b151514610ae9576040517f08c379a00000000000000000000000000000000000000000000000000000000081526004018080602001828103825260108152602001807f414c52454144595f474f5645524e4f520000000000000000000000000000000081525060200191505060405180910390fd5b6000610af361095a565b905060018160000160008473ffffffffffffffffffffffffffffffffffffffff1673ffffffffffffffffffffffffffffffffffffffff16815260200190815260200160002060006101000a81548160ff0219169083151502179055505050565b6060604051806060016040528060268152602001610b746026913990509056fe537461726b45782e4d61696e2e323031392e476f7665726e6f7273496e666f726d6174696f6ea265627a7a72315820c2c787c80964d5afbe8acbd5bf882b5e6945083e96bc0a676b696e951369e89264736f6c63430005100032",
  "source": "pragma solidity ^0.5.2;\n\nimport \"./Governance.sol\";\n\n/**\n  The StarkEx contract is governed by one or more Governors of which the initial one is the\n  deployer of the contract.\n\n  A governor has the sole authority to perform the following operations:\n\n  1. Nominate additional governors (:sol:func:`mainNominateNewGovernor`)\n  2. Remove other governors (:sol:func:`mainRemoveGovernor`)\n  3. Add new :sol:mod:`Verifiers` and :sol:mod:`AvailabilityVerifiers`\n  4. Remove :sol:mod:`Verifiers` and :sol:mod:`AvailabilityVerifiers` after a timelock allows it\n  5. Nominate Operators (see :sol:mod:`Operator`) and Token Administrators (see :sol:mod:`Tokens`)\n\n  Adding governors is performed in a two step procedure:\n\n  1. First, an existing governor nominates a new governor (:sol:func:`mainNominateNewGovernor`)\n  2. Then, the new governor must accept governance to become a governor (:sol:func:`mainAcceptGovernance`)\n\n  This two step procedure ensures that a governor public key cannot be nominated unless there is an\n  entity that has the corresponding private key. This is intended to prevent errors in the addition\n  process.\n\n  The governor private key should typically be held in a secure cold wallet.\n*/\n/*\n  Implements Governance for the StarkDex main contract.\n  The wrapper methods (e.g. mainIsGovernor wrapping isGovernor) are needed to give\n  the method unique names.\n  Both Proxy and StarkExchange inherit from Governance. Thus, the logical contract method names\n  must have unique names in order for the proxy to successfully delegate to them.\n*/\ncontract MainGovernance is Governance {\n\n    // The tag is the sting key that is used in the Governance storage mapping.\n    string public constant MAIN_GOVERNANCE_INFO_TAG = \"StarkEx.Main.2019.GovernorsInformation\";\n\n    function getGovernanceTag()\n        internal\n        view\n        returns (string memory tag) {\n        tag = MAIN_GOVERNANCE_INFO_TAG;\n    }\n\n    function mainIsGovernor(address testGovernor) external view returns (bool) {\n        return isGovernor(testGovernor);\n    }\n\n    function mainNominateNewGovernor(address newGovernor) external {\n        nominateNewGovernor(newGovernor);\n    }\n\n    function mainRemoveGovernor(address governorForRemoval) external {\n        removeGovernor(governorForRemoval);\n    }\n\n    function mainAcceptGovernance()\n        external\n    {\n        acceptGovernance();\n    }\n\n    function mainCancelNomination() external {\n        cancelNomination();\n    }\n\n}\n",
  "sourcePath": "/Users/gokulalex/Apps/eth_apps/VerityNet/starkex-deployment/scalable-dex/contracts/components/MainGovernance.sol",
  "compiler": {
    "name": "solc",
    "version": "0.5.16+commit.9c3226ce.Emscripten.clang"
  },
  "schemaVersion": "3.3.1",
  "updatedAt": "2020-10-21T18:42:18.037Z",
  "devdoc": {
    "methods": {}
  },
  "userdoc": {
    "methods": {},
    "notice": "The StarkEx contract is governed by one or more Governors of which the initial one is the deployer of the contract. A governor has the sole authority to perform the following operations: 1. Nominate additional governors (:sol:func:`mainNominateNewGovernor`) 2. Remove other governors (:sol:func:`mainRemoveGovernor`) 3. Add new :sol:mod:`Verifiers` and :sol:mod:`AvailabilityVerifiers` 4. Remove :sol:mod:`Verifiers` and :sol:mod:`AvailabilityVerifiers` after a timelock allows it 5. Nominate Operators (see :sol:mod:`Operator`) and Token Administrators (see :sol:mod:`Tokens`) Adding governors is performed in a two step procedure: 1. First, an existing governor nominates a new governor (:sol:func:`mainNominateNewGovernor`) 2. Then, the new governor must accept governance to become a governor (:sol:func:`mainAcceptGovernance`) This two step procedure ensures that a governor public key cannot be nominated unless there is an entity that has the corresponding private key. This is intended to prevent errors in the addition process. The governor private key should typically be held in a secure cold wallet."
  }
}