{
  "contractName": "Operator",
  "abi": [
    {
      "anonymous": false,
      "inputs": [
        {
          "indexed": false,
          "internalType": "address",
          "name": "operator",
          "type": "address"
        }
      ],
      "name": "LogOperatorAdded",
      "type": "event"
    },
    {
      "anonymous": false,
      "inputs": [
        {
          "indexed": false,
          "internalType": "address",
          "name": "operator",
          "type": "address"
        }
      ],
      "name": "LogOperatorRemoved",
      "type": "event"
    },
    {
      "constant": false,
      "inputs": [
        {
          "internalType": "address",
          "name": "newOperator",
          "type": "address"
        }
      ],
      "name": "registerOperator",
      "outputs": [],
      "payable": false,
      "stateMutability": "nonpayable",
      "type": "function"
    },
    {
      "constant": false,
      "inputs": [
        {
          "internalType": "address",
          "name": "removedOperator",
          "type": "address"
        }
      ],
      "name": "unregisterOperator",
      "outputs": [],
      "payable": false,
      "stateMutability": "nonpayable",
      "type": "function"
    },
    {
      "constant": true,
      "inputs": [
        {
          "internalType": "address",
          "name": "testedOperator",
          "type": "address"
        }
      ],
      "name": "isOperator",
      "outputs": [
        {
          "internalType": "bool",
          "name": "",
          "type": "bool"
        }
      ],
      "payable": false,
      "stateMutability": "view",
      "type": "function"
    }
  ],
  "bytecode": "0x608060405234801561001057600080fd5b50610291806100206000396000f3fe608060405234801561001057600080fd5b50600436106100415760003560e01c80633682a450146100465780636d70f7ae1461008a57806396115bc2146100e6575b600080fd5b6100886004803603602081101561005c57600080fd5b81019080803573ffffffffffffffffffffffffffffffffffffffff16906020019092919050505061012a565b005b6100cc600480360360208110156100a057600080fd5b81019080803573ffffffffffffffffffffffffffffffffffffffff169060200190929190505050610198565b604051808215151515815260200191505060405180910390f35b610128600480360360208110156100fc57600080fd5b81019080803573ffffffffffffffffffffffffffffffffffffffff1690602001909291905050506101ee565b005b6040517f08c379a000000000000000000000000000000000000000000000000000000000815260040180806020018281038252600d8152602001807f554e494d504c454d454e5445440000000000000000000000000000000000000081525060200191505060405180910390fd5b6000601360008373ffffffffffffffffffffffffffffffffffffffff1673ffffffffffffffffffffffffffffffffffffffff16815260200190815260200160002060009054906101000a900460ff169050919050565b6040517f08c379a000000000000000000000000000000000000000000000000000000000815260040180806020018281038252600d8152602001807f554e494d504c454d454e5445440000000000000000000000000000000000000081525060200191505060405180910390fdfea265627a7a7231582088a0e66a4b6238b9fc1872d7dfc1e814807de9d6d0a734619dbf79d5394b1e8e64736f6c63430005100032",
  "source": "pragma solidity ^0.5.2;\n\nimport \"../interfaces/MOperator.sol\";\nimport \"../interfaces/MGovernance.sol\";\nimport \"./MainStorage.sol\";\n\n/**\n  The Operator of the contract is the entity entitled to submit state update requests\n  by calling :sol:func:`updateState`.\n\n  An Operator may be instantly appointed or removed by the contract Governor\n  (see :sol:mod:`MainGovernance`). Typically, the Operator is the hot wallet of the StarkEx service\n  submitting proofs for state updates.\n*/\ncontract Operator is MainStorage, MGovernance, MOperator {\n    event LogOperatorAdded(address operator);\n    event LogOperatorRemoved(address operator);\n\n    function initialize()\n        internal\n    {\n        operators[msg.sender] = true;\n        emit LogOperatorAdded(msg.sender);\n    }\n\n    modifier onlyOperator()\n    {\n        require(operators[msg.sender], \"ONLY_OPERATOR\");\n        _;\n    }\n\n    function registerOperator(address newOperator)\n        external\n        onlyGovernance\n    {\n        operators[newOperator] = true;\n        emit LogOperatorAdded(newOperator);\n    }\n\n    function unregisterOperator(address removedOperator)\n        external\n        onlyGovernance\n    {\n        operators[removedOperator] = false;\n        emit LogOperatorRemoved(removedOperator);\n    }\n\n    function isOperator(address testedOperator) external view returns (bool) {\n        return operators[testedOperator];\n    }\n}\n",
  "sourcePath": "/Users/gokulalex/Apps/eth_apps/VerityNet/tinlake-tokenswap-starkex/scalable-dex/contracts/components/Operator.sol",
  "compiler": {
    "name": "solc",
    "version": "0.5.16+commit.9c3226ce.Emscripten.clang"
  },
  "schemaVersion": "3.3.1",
  "updatedAt": "2020-10-21T21:01:22.832Z",
  "devdoc": {
    "methods": {}
  },
  "userdoc": {
    "methods": {},
    "notice": "The Operator of the contract is the entity entitled to submit state update requests by calling :sol:func:`updateState`. An Operator may be instantly appointed or removed by the contract Governor (see :sol:mod:`MainGovernance`). Typically, the Operator is the hot wallet of the StarkEx service submitting proofs for state updates."
  }
}