{
  "contractName": "Proxy",
  "abi": [
    {
      "inputs": [],
      "payable": false,
      "stateMutability": "nonpayable",
      "type": "constructor"
    },
    {
      "anonymous": false,
      "inputs": [
        {
          "indexed": true,
          "internalType": "address",
          "name": "implementation",
          "type": "address"
        }
      ],
      "name": "FinalizedImplementation",
      "type": "event"
    },
    {
      "anonymous": false,
      "inputs": [
        {
          "indexed": true,
          "internalType": "address",
          "name": "implementation",
          "type": "address"
        },
        {
          "indexed": false,
          "internalType": "bytes",
          "name": "initializer",
          "type": "bytes"
        },
        {
          "indexed": false,
          "internalType": "bool",
          "name": "finalize",
          "type": "bool"
        }
      ],
      "name": "ImplementationAdded",
      "type": "event"
    },
    {
      "anonymous": false,
      "inputs": [
        {
          "indexed": true,
          "internalType": "address",
          "name": "implementation",
          "type": "address"
        }
      ],
      "name": "ImplementationRemoved",
      "type": "event"
    },
    {
      "anonymous": false,
      "inputs": [
        {
          "indexed": false,
          "internalType": "address",
          "name": "acceptedGovernor",
          "type": "address"
        }
      ],
      "name": "LogNewGovernorAccepted",
      "type": "event"
    },
    {
      "anonymous": false,
      "inputs": [
        {
          "indexed": false,
          "internalType": "address",
          "name": "nominatedGovernor",
          "type": "address"
        }
      ],
      "name": "LogNominatedGovernor",
      "type": "event"
    },
    {
      "anonymous": false,
      "inputs": [],
      "name": "LogNominationCancelled",
      "type": "event"
    },
    {
      "anonymous": false,
      "inputs": [
        {
          "indexed": false,
          "internalType": "address",
          "name": "removedGovernor",
          "type": "address"
        }
      ],
      "name": "LogRemovedGovernor",
      "type": "event"
    },
    {
      "anonymous": false,
      "inputs": [
        {
          "indexed": true,
          "internalType": "address",
          "name": "implementation",
          "type": "address"
        }
      ],
      "name": "Upgraded",
      "type": "event"
    },
    {
      "payable": true,
      "stateMutability": "payable",
      "type": "fallback"
    },
    {
      "constant": true,
      "inputs": [],
      "name": "PROXY_GOVERNANCE_TAG",
      "outputs": [
        {
          "internalType": "string",
          "name": "",
          "type": "string"
        }
      ],
      "payable": false,
      "stateMutability": "view",
      "type": "function"
    },
    {
      "constant": true,
      "inputs": [],
      "name": "UPGRADE_ACTIVATION_DELAY",
      "outputs": [
        {
          "internalType": "uint256",
          "name": "",
          "type": "uint256"
        }
      ],
      "payable": false,
      "stateMutability": "view",
      "type": "function"
    },
    {
      "constant": false,
      "inputs": [],
      "name": "proxyAcceptGovernance",
      "outputs": [],
      "payable": false,
      "stateMutability": "nonpayable",
      "type": "function"
    },
    {
      "constant": false,
      "inputs": [],
      "name": "proxyCancelNomination",
      "outputs": [],
      "payable": false,
      "stateMutability": "nonpayable",
      "type": "function"
    },
    {
      "constant": true,
      "inputs": [
        {
          "internalType": "address",
          "name": "testGovernor",
          "type": "address"
        }
      ],
      "name": "proxyIsGovernor",
      "outputs": [
        {
          "internalType": "bool",
          "name": "",
          "type": "bool"
        }
      ],
      "payable": false,
      "stateMutability": "view",
      "type": "function"
    },
    {
      "constant": false,
      "inputs": [
        {
          "internalType": "address",
          "name": "newGovernor",
          "type": "address"
        }
      ],
      "name": "proxyNominateNewGovernor",
      "outputs": [],
      "payable": false,
      "stateMutability": "nonpayable",
      "type": "function"
    },
    {
      "constant": false,
      "inputs": [
        {
          "internalType": "address",
          "name": "governorForRemoval",
          "type": "address"
        }
      ],
      "name": "proxyRemoveGovernor",
      "outputs": [],
      "payable": false,
      "stateMutability": "nonpayable",
      "type": "function"
    },
    {
      "constant": true,
      "inputs": [
        {
          "internalType": "bytes",
          "name": "",
          "type": "bytes"
        }
      ],
      "name": "initialize",
      "outputs": [],
      "payable": false,
      "stateMutability": "pure",
      "type": "function"
    },
    {
      "constant": true,
      "inputs": [],
      "name": "implementation",
      "outputs": [
        {
          "internalType": "address",
          "name": "_implementation",
          "type": "address"
        }
      ],
      "payable": false,
      "stateMutability": "view",
      "type": "function"
    },
    {
      "constant": true,
      "inputs": [],
      "name": "isNotFinalized",
      "outputs": [
        {
          "internalType": "bool",
          "name": "notFinal",
          "type": "bool"
        }
      ],
      "payable": false,
      "stateMutability": "view",
      "type": "function"
    },
    {
      "constant": false,
      "inputs": [
        {
          "internalType": "address",
          "name": "newImplementation",
          "type": "address"
        },
        {
          "internalType": "bytes",
          "name": "data",
          "type": "bytes"
        },
        {
          "internalType": "bool",
          "name": "finalize",
          "type": "bool"
        }
      ],
      "name": "addImplementation",
      "outputs": [],
      "payable": false,
      "stateMutability": "nonpayable",
      "type": "function"
    },
    {
      "constant": false,
      "inputs": [
        {
          "internalType": "address",
          "name": "newImplementation",
          "type": "address"
        }
      ],
      "name": "removeImplementation",
      "outputs": [],
      "payable": false,
      "stateMutability": "nonpayable",
      "type": "function"
    },
    {
      "constant": false,
      "inputs": [
        {
          "internalType": "address",
          "name": "newImplementation",
          "type": "address"
        },
        {
          "internalType": "bytes",
          "name": "data",
          "type": "bytes"
        },
        {
          "internalType": "bool",
          "name": "finalize",
          "type": "bool"
        }
      ],
      "name": "upgradeTo",
      "outputs": [],
      "payable": true,
      "stateMutability": "payable",
      "type": "function"
    }
  ],
  "bytecode": "0x60806040523480156200001157600080fd5b50620000226200002860201b60201c565b6200040a565b60606200003a6200016860201b60201c565b9050600080826040518082805190602001908083835b6020831062000075578051825260208201915060208101905060208303925062000050565b6001836020036101000a03801982511681845116808217855250505050505090500191505090815260200160405180910390209050600015158160010160149054906101000a900460ff1615151462000136576040517f08c379a00000000000000000000000000000000000000000000000000000000081526004018080602001828103825260138152602001807f414c52454144595f494e495449414c495a45440000000000000000000000000081525060200191505060405180910390fd5b60018160010160146101000a81548160ff02191690831515021790555062000164336200018960201b60201c565b5050565b60606040518060600160405280602781526020016200257360279139905090565b600015156200019e826200028660201b60201c565b15151462000214576040517f08c379a00000000000000000000000000000000000000000000000000000000081526004018080602001828103825260108152602001807f414c52454144595f474f5645524e4f520000000000000000000000000000000081525060200191505060405180910390fd5b600062000226620002f260201b60201c565b905060018160000160008473ffffffffffffffffffffffffffffffffffffffff1673ffffffffffffffffffffffffffffffffffffffff16815260200190815260200160002060006101000a81548160ff0219169083151502179055505050565b60008062000299620002f260201b60201c565b90508060000160008473ffffffffffffffffffffffffffffffffffffffff1673ffffffffffffffffffffffffffffffffffffffff16815260200190815260200160002060009054906101000a900460ff16915050919050565b60006060620003066200016860201b60201c565b9050600080826040518082805190602001908083835b602083106200034157805182526020820191506020810190506020830392506200031c565b6001836020036101000a03801982511681845116808217855250505050505090500191505090815260200160405180910390209050600115158160010160149054906101000a900460ff1615151462000402576040517f08c379a000000000000000000000000000000000000000000000000000000000815260040180806020018281038252600f8152602001807f4e4f545f494e495449414c495a4544000000000000000000000000000000000081525060200191505060405180910390fd5b809250505090565b612159806200041a6000396000f3fe6080604052600436106100c25760003560e01c80636684b1d61161007f578063b449ea5d11610059578063b449ea5d14610565578063e907fa3c146105ce578063f7b456d0146105fd578063f9bcdde414610628576100c2565b80636684b1d6146104585780637147855d1461046f5780638757653f14610514576100c2565b806312f16e6d1461019757806322175a32146101e8578063439fab911461023957806356f36dbf146102bf5780635c60da1b1461034f5780635e3a97e7146103a6575b60006100cc61063f565b9050600073ffffffffffffffffffffffffffffffffffffffff168173ffffffffffffffffffffffffffffffffffffffff161415610171576040517f08c379a00000000000000000000000000000000000000000000000000000000081526004018080602001828103825260168152602001807f4d495353494e475f494d504c454d454e544154494f4e0000000000000000000081525060200191505060405180910390fd5b3660008037600080366000845af43d6000803e8060008114610192573d6000f35b3d6000fd5b3480156101a357600080fd5b506101e6600480360360208110156101ba57600080fd5b81019080803573ffffffffffffffffffffffffffffffffffffffff169060200190929190505050610670565b005b3480156101f457600080fd5b506102376004803603602081101561020b57600080fd5b81019080803573ffffffffffffffffffffffffffffffffffffffff16906020019092919050505061067c565b005b34801561024557600080fd5b506102bd6004803603602081101561025c57600080fd5b810190808035906020019064010000000081111561027957600080fd5b82018360208201111561028b57600080fd5b803590602001918460018302840111640100000000831117156102ad57600080fd5b9091929391929390505050610884565b005b3480156102cb57600080fd5b506102d46108f2565b6040518080602001828103825283818151815260200191508051906020019080838360005b838110156103145780820151818401526020810190506102f9565b50505050905090810190601f1680156103415780820380516001836020036101000a031916815260200191505b509250505060405180910390f35b34801561035b57600080fd5b5061036461063f565b604051808273ffffffffffffffffffffffffffffffffffffffff1673ffffffffffffffffffffffffffffffffffffffff16815260200191505060405180910390f35b3480156103b257600080fd5b50610456600480360360608110156103c957600080fd5b81019080803573ffffffffffffffffffffffffffffffffffffffff1690602001909291908035906020019064010000000081111561040657600080fd5b82018360208201111561041857600080fd5b8035906020019184600183028401116401000000008311171561043a57600080fd5b909192939192939080351515906020019092919050505061090e565b005b34801561046457600080fd5b5061046d610bc7565b005b6105126004803603606081101561048557600080fd5b81019080803573ffffffffffffffffffffffffffffffffffffffff169060200190929190803590602001906401000000008111156104c257600080fd5b8201836020820111156104d457600080fd5b803590602001918460018302840111640100000000831117156104f657600080fd5b9091929391929390803515159060200190929190505050610bd1565b005b34801561052057600080fd5b506105636004803603602081101561053757600080fd5b81019080803573ffffffffffffffffffffffffffffffffffffffff16906020019092919050505061148d565b005b34801561057157600080fd5b506105b46004803603602081101561058857600080fd5b81019080803573ffffffffffffffffffffffffffffffffffffffff169060200190929190505050611499565b604051808215151515815260200191505060405180910390f35b3480156105da57600080fd5b506105e36114ab565b604051808215151515815260200191505060405180910390f35b34801561060957600080fd5b506106126114e5565b6040518082815260200191505060405180910390f35b34801561063457600080fd5b5061063d6114ec565b005b6000807f177667240aeeea7e35eabe3a35e18306f336219e1386f7710a6bf8783f761b2460001b9050805491505090565b610679816114f6565b50565b6106853361175b565b6106f7576040517f08c379a000000000000000000000000000000000000000000000000000000000815260040180806020018281038252600f8152602001807f4f4e4c595f474f5645524e414e4345000000000000000000000000000000000081525060200191505060405180910390fd5b6000600260008373ffffffffffffffffffffffffffffffffffffffff1673ffffffffffffffffffffffffffffffffffffffff168152602001908152602001600020549050600081116107b1576040517f08c379a000000000000000000000000000000000000000000000000000000000815260040180806020018281038252601d8152602001807f414444524553535f4e4f545f555047524144455f43414e44494441544500000081525060200191505060405180910390fd5b6000600260008473ffffffffffffffffffffffffffffffffffffffff1673ffffffffffffffffffffffffffffffffffffffff168152602001908152602001600020819055506000801b600160008473ffffffffffffffffffffffffffffffffffffffff1673ffffffffffffffffffffffffffffffffffffffff168152602001908152602001600020819055508173ffffffffffffffffffffffffffffffffffffffff167faf23121e2402485071dadf421078b368d7b67e54cabcc81540563c5d6bf1a4c360405160405180910390a25050565b6040517f08c379a00000000000000000000000000000000000000000000000000000000081526004018080602001828103825260168152602001807f43414e4e4f545f43414c4c5f494e495449414c495a450000000000000000000081525060200191505060405180910390fd5b6040518060600160405280602781526020016120fe6027913981565b6109173361175b565b610989576040517f08c379a000000000000000000000000000000000000000000000000000000000815260040180806020018281038252600f8152602001807f4f4e4c595f474f5645524e414e4345000000000000000000000000000000000081525060200191505060405180910390fd5b610992846117bf565b610a04576040517f08c379a00000000000000000000000000000000000000000000000000000000081526004018080602001828103825260148152602001807f414444524553535f4e4f545f434f4e545241435400000000000000000000000081525060200191505060405180910390fd5b60008383836040516020018080602001831515151581526020018281038252858582818152602001925080828437600081840152601f19601f82011690508083019250505094505050505060405160208183030381529060405280519060200120905080600160008773ffffffffffffffffffffffffffffffffffffffff1673ffffffffffffffffffffffffffffffffffffffff1681526020019081526020016000208190555060006224ea0042019050600073ffffffffffffffffffffffffffffffffffffffff16610ad561063f565b73ffffffffffffffffffffffffffffffffffffffff161415610af5574290505b80600260008873ffffffffffffffffffffffffffffffffffffffff1673ffffffffffffffffffffffffffffffffffffffff168152602001908152602001600020819055508573ffffffffffffffffffffffffffffffffffffffff167f723a7080d63c133cf338e44e00705cc1b7b2bde7e88d6218a8d62710a329ce1b8686866040518080602001831515151581526020018281038252858582818152602001925080828437600081840152601f19601f82011690508083019250505094505050505060405180910390a2505050505050565b610bcf6117d2565b565b610bda3361175b565b610c4c576040517f08c379a000000000000000000000000000000000000000000000000000000000815260040180806020018281038252600f8152602001807f4f4e4c595f474f5645524e414e4345000000000000000000000000000000000081525060200191505060405180910390fd5b610c546114ab565b610cc6576040517f08c379a00000000000000000000000000000000000000000000000000000000081526004018080602001828103825260188152602001807f494d504c454d454e544154494f4e5f46494e414c495a4544000000000000000081525060200191505060405180910390fd5b60001515610cd261197a565b151514610d47576040517f08c379a000000000000000000000000000000000000000000000000000000000815260040180806020018281038252600f8152602001807f53544154455f49535f46524f5a454e000000000000000000000000000000000081525060200191505060405180910390fd5b6000600260008673ffffffffffffffffffffffffffffffffffffffff1673ffffffffffffffffffffffffffffffffffffffff16815260200190815260200160002054905060008111610e01576040517f08c379a000000000000000000000000000000000000000000000000000000000815260040180806020018281038252601d8152602001807f414444524553535f4e4f545f555047524144455f43414e44494441544500000081525060200191505060405180910390fd5b42811115610e77576040517f08c379a00000000000000000000000000000000000000000000000000000000081526004018080602001828103825260178152602001807f555047524144455f4e4f545f454e41424c45445f59455400000000000000000081525060200191505060405180910390fd5b6000600160008773ffffffffffffffffffffffffffffffffffffffff1673ffffffffffffffffffffffffffffffffffffffff1681526020019081526020016000205490508484846040516020018080602001831515151581526020018281038252858582818152602001925080828437600081840152601f19601f820116905080830192505050945050505050604051602081830303815290604052805190602001208114610f8e576040517f08c379a00000000000000000000000000000000000000000000000000000000081526004018080602001828103825260138152602001807f4348414e4745445f494e495449414c495a45520000000000000000000000000081525060200191505060405180910390fd5b610f9786611bd9565b600060608773ffffffffffffffffffffffffffffffffffffffff1663439fab9160e01b888860405160240180806020018281038252848482818152602001925080828437600081840152601f19601f8201169050808301925050509350505050604051602081830303815290604052907bffffffffffffffffffffffffffffffffffffffffffffffffffffffff19166020820180517bffffffffffffffffffffffffffffffffffffffffffffffffffffffff83818316178352505050506040518082805190602001908083835b602083106110875780518252602082019150602081019050602083039250611064565b6001836020036101000a038019825116818451168082178552505050505050905001915050600060405180830381855af49150503d80600081146110e7576040519150601f19603f3d011682016040523d82523d6000602084013e6110ec565b606091505b5091509150818190611199576040517f08c379a00000000000000000000000000000000000000000000000000000000081526004018080602001828103825283818151815260200191508051906020019080838360005b8381101561115e578082015181840152602081019050611143565b50505050905090810190601f16801561118b5780820380516001836020036101000a031916815260200191505b509250505060405180910390fd5b508773ffffffffffffffffffffffffffffffffffffffff166040516024016040516020818303038152906040527f33eeb147000000000000000000000000000000000000000000000000000000007bffffffffffffffffffffffffffffffffffffffffffffffffffffffff19166020820180517bffffffffffffffffffffffffffffffffffffffffffffffffffffffff83818316178352505050506040518082805190602001908083835b602083106112675780518252602082019150602081019050602083039250611244565b6001836020036101000a038019825116818451168082178552505050505050905001915050600060405180830381855af49150503d80600081146112c7576040519150601f19603f3d011682016040523d82523d6000602084013e6112cc565b606091505b50809250819350505081611348576040517f08c379a00000000000000000000000000000000000000000000000000000000081526004018080602001828103825260198152602001807f43414c4c5f544f5f495346524f5a454e5f52455645525445440000000000000081525060200191505060405180910390fd5b6000151581806020019051602081101561136157600080fd5b81019080805190602001909291905050501515146113e7576040517f08c379a00000000000000000000000000000000000000000000000000000000081526004018080602001828103825260198152602001807f4e45575f494d504c454d454e544154494f4e5f46524f5a454e0000000000000081525060200191505060405180910390fd5b600115158515151415611440576113fc611c08565b8773ffffffffffffffffffffffffffffffffffffffff167fc13b75a5f14b69ebdc2431a5d475b3bff371abe251b5064144306fbd9c4de35c60405160405180910390a25b8773ffffffffffffffffffffffffffffffffffffffff167fbc7cd75a20ee27fd9adebab32041f755214dbc6bffa90cc0225b39da2e5c2d3b60405160405180910390a25050505050505050565b61149681611c37565b50565b60006114a48261175b565b9050919050565b6000807f7d433c6f837e8f93009937c466c82efbb5ba621fae36886d0cac433c5d0aa7d260001b9050600081549050600081149250505090565b6224ea0081565b6114f4611dea565b565b6114ff3361175b565b611571576040517f08c379a000000000000000000000000000000000000000000000000000000000815260040180806020018281038252600f8152602001807f4f4e4c595f474f5645524e414e4345000000000000000000000000000000000081525060200191505060405180910390fd5b8073ffffffffffffffffffffffffffffffffffffffff163373ffffffffffffffffffffffffffffffffffffffff161415611613576040517f08c379a00000000000000000000000000000000000000000000000000000000081526004018080602001828103825260148152602001807f474f5645524e4f525f53454c465f52454d4f564500000000000000000000000081525060200191505060405180910390fd5b600061161d611ee4565b90506116288261175b565b61169a576040517f08c379a000000000000000000000000000000000000000000000000000000000815260040180806020018281038252600c8152602001807f4e4f545f474f5645524e4f52000000000000000000000000000000000000000081525060200191505060405180910390fd5b60008160000160008473ffffffffffffffffffffffffffffffffffffffff1673ffffffffffffffffffffffffffffffffffffffff16815260200190815260200160002060006101000a81548160ff0219169083151502179055507fd75f94825e770b8b512be8e74759e252ad00e102e38f50cce2f7c6f868a2959982604051808273ffffffffffffffffffffffffffffffffffffffff1673ffffffffffffffffffffffffffffffffffffffff16815260200191505060405180910390a15050565b600080611766611ee4565b90508060000160008473ffffffffffffffffffffffffffffffffffffffff1673ffffffffffffffffffffffffffffffffffffffff16815260200190815260200160002060009054906101000a900460ff16915050919050565b600080823b905060008111915050919050565b60006117dc611ee4565b90508060010160009054906101000a900473ffffffffffffffffffffffffffffffffffffffff1673ffffffffffffffffffffffffffffffffffffffff163373ffffffffffffffffffffffffffffffffffffffff16146118a3576040517f08c379a00000000000000000000000000000000000000000000000000000000081526004018080602001828103825260178152602001807f4f4e4c595f43414e4449444154455f474f5645524e4f5200000000000000000081525060200191505060405180910390fd5b6118d08160010160009054906101000a900473ffffffffffffffffffffffffffffffffffffffff16611ff1565b60008160010160006101000a81548173ffffffffffffffffffffffffffffffffffffffff021916908373ffffffffffffffffffffffffffffffffffffffff1602179055507fcfb473e6c03f9a29ddaf990e736fa3de5188a0bd85d684f5b6e164ebfbfff5d233604051808273ffffffffffffffffffffffffffffffffffffffff1673ffffffffffffffffffffffffffffffffffffffff16815260200191505060405180910390a150565b60008061198561063f565b9050600073ffffffffffffffffffffffffffffffffffffffff168173ffffffffffffffffffffffffffffffffffffffff1614156119c6576000915050611bd6565b600060608273ffffffffffffffffffffffffffffffffffffffff166040516024016040516020818303038152906040527f33eeb147000000000000000000000000000000000000000000000000000000007bffffffffffffffffffffffffffffffffffffffffffffffffffffffff19166020820180517bffffffffffffffffffffffffffffffffffffffffffffffffffffffff83818316178352505050506040518082805190602001908083835b60208310611a975780518252602082019150602081019050602083039250611a74565b6001836020036101000a038019825116818451168082178552505050505050905001915050600060405180830381855af49150503d8060008114611af7576040519150601f19603f3d011682016040523d82523d6000602084013e611afc565b606091505b5091509150818190611ba9576040517f08c379a00000000000000000000000000000000000000000000000000000000081526004018080602001828103825283818151815260200191508051906020019080838360005b83811015611b6e578082015181840152602081019050611b53565b50505050905090810190601f168015611b9b5780820380516001836020036101000a031916815260200191505b509250505060405180910390fd5b50808060200190516020811015611bbf57600080fd5b810190808051906020019092919050505093505050505b90565b60007f177667240aeeea7e35eabe3a35e18306f336219e1386f7710a6bf8783f761b2460001b90508181555050565b60007f7d433c6f837e8f93009937c466c82efbb5ba621fae36886d0cac433c5d0aa7d260001b90506001815550565b611c403361175b565b611cb2576040517f08c379a000000000000000000000000000000000000000000000000000000000815260040180806020018281038252600f8152602001807f4f4e4c595f474f5645524e414e4345000000000000000000000000000000000081525060200191505060405180910390fd5b6000611cbc611ee4565b905060001515611ccb8361175b565b151514611d40576040517f08c379a00000000000000000000000000000000000000000000000000000000081526004018080602001828103825260108152602001807f414c52454144595f474f5645524e4f520000000000000000000000000000000081525060200191505060405180910390fd5b818160010160006101000a81548173ffffffffffffffffffffffffffffffffffffffff021916908373ffffffffffffffffffffffffffffffffffffffff1602179055507f6166272c8d3f5f579082f2827532732f97195007983bb5b83ac12c56700b01a682604051808273ffffffffffffffffffffffffffffffffffffffff1673ffffffffffffffffffffffffffffffffffffffff16815260200191505060405180910390a15050565b611df33361175b565b611e65576040517f08c379a000000000000000000000000000000000000000000000000000000000815260040180806020018281038252600f8152602001807f4f4e4c595f474f5645524e414e4345000000000000000000000000000000000081525060200191505060405180910390fd5b6000611e6f611ee4565b905060008160010160006101000a81548173ffffffffffffffffffffffffffffffffffffffff021916908373ffffffffffffffffffffffffffffffffffffffff1602179055507f7a8dc7dd7fffb43c4807438fa62729225156941e641fd877938f4edade3429f560405160405180910390a150565b60006060611ef06120dd565b9050600080826040518082805190602001908083835b60208310611f295780518252602082019150602081019050602083039250611f06565b6001836020036101000a03801982511681845116808217855250505050505090500191505090815260200160405180910390209050600115158160010160149054906101000a900460ff16151514611fe9576040517f08c379a000000000000000000000000000000000000000000000000000000000815260040180806020018281038252600f8152602001807f4e4f545f494e495449414c495a4544000000000000000000000000000000000081525060200191505060405180910390fd5b809250505090565b60001515611ffe8261175b565b151514612073576040517f08c379a00000000000000000000000000000000000000000000000000000000081526004018080602001828103825260108152602001807f414c52454144595f474f5645524e4f520000000000000000000000000000000081525060200191505060405180910390fd5b600061207d611ee4565b905060018160000160008473ffffffffffffffffffffffffffffffffffffffff1673ffffffffffffffffffffffffffffffffffffffff16815260200190815260200160002060006101000a81548160ff0219169083151502179055505050565b60606040518060600160405280602781526020016120fe6027913990509056fe537461726b45782e50726f78792e323031392e476f7665726e6f7273496e666f726d6174696f6ea265627a7a723158205d6daaf483beedfa532b162658d91ad760edbcc3f22784c9aeba8cfc2c7a196464736f6c63430005100032537461726b45782e50726f78792e323031392e476f7665726e6f7273496e666f726d6174696f6e",
  "source": "pragma solidity ^0.5.2;\n\nimport \"./ProxyGovernance.sol\";\nimport \"./ProxyStorage.sol\";\n\n/**\n  The Proxy contract implements delegation of calls to other contracts (`implementations`), with\n  proper forwarding of return values and revert reasons. This pattern allows retaining the contract\n  storage while replacing implementation code.\n\n  The following operations are supported by the proxy contract:\n\n  - :sol:func:`addImplementation`: Defines a new implementation, the data with which it should be initialized and whether this will be the last version of implementation.\n  - :sol:func:`upgradeTo`: Once an implementation is added, the governor may upgrade to that implementation only after a safety time period has passed (time lock), the current implementation is not the last version and the implementation is not frozen (see :sol:mod:`FullWithdrawals`).\n  - :sol:func:`removeImplementation`: Any announced implementation may be removed. Removing an implementation is especially important once it has been used for an upgrade in order to avoid an additional unwanted revert to an older version.\n\n  The only entity allowed to perform the above operations is the proxy governor\n  (see :sol:mod:`ProxyGovernance`).\n\n  Every implementation is required to have an `initialize` function that replaces the constructor\n  of a normal contract. Furthermore, the only parameter of this function is an array of bytes\n  (`data`) which may be decoded arbitrarily by the `initialize` function. It is up to the\n  implementation to ensure that this function cannot be run more than once if so desired.\n\n  When an implementation is added (:sol:func:`addImplementation`) the initialization `data` is also\n  announced, allowing users of the contract to analyze the full effect of an upgrade to the new\n  implementation. During an :sol:func:`upgradeTo`, the `data` is provided again and only if it is\n  identical to the announced `data` is the upgrade performed by pointing the proxy to the new\n  implementation and calling its `initialize` function with this `data`.\n\n  It is the responsibility of the implementation not to overwrite any storage belonging to the\n  proxy (`ProxyStorage`). In addition, upon upgrade, the new implementation is assumed to be\n  backward compatible with previous implementations with respect to the storage used until that\n  point.\n*/\ncontract Proxy is ProxyStorage, ProxyGovernance {\n\n    // Emitted when the active implementation is replaced.\n    event Upgraded(address indexed implementation);\n\n    // Emitted when an implementation is submitted as an upgrade candidate and a time lock\n    // is activated.\n    event ImplementationAdded(address indexed implementation, bytes initializer, bool finalize);\n\n    // Emitted when an implementation is removed from the list of upgrade candidates.\n    event ImplementationRemoved(address indexed implementation);\n\n    // Emitted when the implementation is finalized.\n    event FinalizedImplementation(address indexed implementation);\n\n\n    // Storage slot with the address of the current implementation.\n    // The address of the slot is keccak256(\"StarkWare2019.implemntation-slot\").\n    // We need to keep this variable stored outside of the commonly used space,\n    // so that it's not overrun by the logical implementaiton (the proxied contract).\n    bytes32 internal constant IMPLEMENTATION_SLOT =\n    0x177667240aeeea7e35eabe3a35e18306f336219e1386f7710a6bf8783f761b24;\n\n    // This storage slot stores the finalization flag.\n    // Once the value stored in this slot is set to non-zero\n    // the proxy blocks implementation upgrades.\n    // The current implementation is then referred to as Finalized.\n    // Web3.solidityKeccak(['string'], [\"StarkWare2019.finalization-flag-slot\"]).\n    bytes32 internal constant FINALIZED_STATE_SLOT =\n    0x7d433c6f837e8f93009937c466c82efbb5ba621fae36886d0cac433c5d0aa7d2;\n\n    uint256 public constant UPGRADE_ACTIVATION_DELAY = 28 days;\n\n    constructor ( )\n        public\n    {\n        initGovernance();\n    }\n\n    /*\n      Returns true if the implementation is frozen.\n      If the implementation was not assigned yet, returns false.\n    */\n    function implementationIsFrozen() private returns (bool) {\n        address _implementation = implementation();\n\n        // We can't call low level implementation before it's assigned. (i.e. ZERO).\n        if (_implementation == ZERO_ADDRESS) {\n            return false;\n        }\n        // solium-disable-next-line security/no-low-level-calls\n        (bool success, bytes memory returndata) = _implementation.delegatecall(\n            abi.encodeWithSignature(\"isFrozen()\"));\n        require(success, string(returndata));\n        return abi.decode(returndata, (bool));\n    }\n\n    /*\n      This method blocks delegation to initialize().\n      Only upgradeTo should be able to delegate call to initialize().\n    */\n    function initialize(bytes calldata /*data*/)\n        external pure\n    {\n        revert(\"CANNOT_CALL_INITIALIZE\");\n    }\n\n    modifier notFinalized()\n    {\n        require(isNotFinalized(), \"IMPLEMENTATION_FINALIZED\");\n        _;\n    }\n\n    /*\n      Forbids calling the function if the implementation is frozen.\n      This modifier relies on the lower level (logical contract) implementation of isFrozen().\n    */\n    modifier notFrozen()\n    {\n        require(implementationIsFrozen() == false, \"STATE_IS_FROZEN\");\n        _;\n    }\n\n    /*\n      Contract's default function. Delegates execution to the implementation contract.\n      It returns back to the external caller whatever the implementation delegated code returns.\n    */\n    function () external payable {\n        address _implementation = implementation();\n        require (_implementation != ZERO_ADDRESS, \"MISSING_IMPLEMENTATION\");\n\n        // solium-disable-next-line security/no-inline-assembly\n        assembly {\n            // Copy msg.data. We take full control of memory in this inline assembly\n            // block because it will not return to Solidity code. We overwrite the\n            // Solidity scratch pad at memory position 0.\n            calldatacopy(0, 0, calldatasize)\n\n            // Call the implementation.\n            // out and outsize are 0 for now, as we don't know the out size yet.\n            let result := delegatecall(gas, _implementation, 0, calldatasize, 0, 0)\n\n            // Copy the returned data.\n            returndatacopy(0, 0, returndatasize)\n\n            switch result\n            // delegatecall returns 0 on error.\n            case 0 { revert(0, returndatasize) }\n            default { return(0, returndatasize) }\n        }\n    }\n\n    /*\n      Returns the address of the current implementation.\n    */\n    function implementation() public view returns (address _implementation) {\n        bytes32 slot = IMPLEMENTATION_SLOT;\n        // solium-disable-next-line security/no-inline-assembly\n        assembly {\n            _implementation := sload(slot)\n        }\n    }\n\n    /*\n      Sets the implementation address of the proxy.\n    */\n    function setImplementation(address newImplementation) private {\n        bytes32 slot = IMPLEMENTATION_SLOT;\n        // solium-disable-next-line security/no-inline-assembly\n        assembly {\n            sstore(slot, newImplementation)\n        }\n    }\n\n    /*\n      Returns true if the contract is not in the finalized state.\n    */\n    function isNotFinalized() public view returns (bool notFinal) {\n        bytes32 slot = FINALIZED_STATE_SLOT;\n        uint256 slotValue;\n        // solium-disable-next-line security/no-inline-assembly\n        assembly {\n            slotValue := sload(slot)\n        }\n        notFinal = (slotValue == 0);\n    }\n\n    /*\n      Marks the current implementation as finalized.\n    */\n    function setFinalizedFlag() private {\n        bytes32 slot = FINALIZED_STATE_SLOT;\n        // solium-disable-next-line security/no-inline-assembly\n        assembly {\n            sstore(slot, 0x1)\n        }\n    }\n\n    /*\n      Introduce an implementation and its initialization vector,\n      and start the time-lock before it can be upgraded to.\n      addImplementation is not blocked when frozen or finalized.\n      (upgradeTo API is blocked when finalized or frozen).\n    */\n    function addImplementation(address newImplementation, bytes calldata data, bool finalize)\n        external onlyGovernance {\n        require(isContract(newImplementation), \"ADDRESS_NOT_CONTRACT\");\n\n        bytes32 init_hash = keccak256(abi.encode(data, finalize));\n        initializationHash[newImplementation] = init_hash;\n\n        // solium-disable-next-line security/no-block-members\n        uint256 activation_time = now + UPGRADE_ACTIVATION_DELAY;\n\n        // First implementation should not have time-lock.\n        if (implementation() == ZERO_ADDRESS) {\n            // solium-disable-next-line security/no-block-members\n            activation_time = now;\n        }\n\n        enabledTime[newImplementation] = activation_time;\n        emit ImplementationAdded(newImplementation, data, finalize);\n    }\n\n    /*\n      Removes a candidate implementation.\n      Note that it is possible to remove the current implementation. Doing so doesn't affect the\n      current implementation, but rather revokes it as a future candidate.\n    */\n    function removeImplementation(address newImplementation)\n        external onlyGovernance {\n\n        // If we have initializer, we set the hash of it.\n        uint256 activation_time = enabledTime[newImplementation];\n\n        require(activation_time > 0, \"ADDRESS_NOT_UPGRADE_CANDIDATE\");\n\n        enabledTime[newImplementation] = 0;\n\n        initializationHash[newImplementation] = 0;\n        emit ImplementationRemoved(newImplementation);\n    }\n\n    /*\n      Upgrades the proxy to a new implementation, with its initialization.\n      to upgrade successfully, implementation must have been added time-lock agreeably\n      before, and the init vector must be identical ot the one submitted before.\n\n      Upon assignment of new implementation address,\n      its initialize will be called with the inititalizing vector (even if empty).\n      Therefore, the implementatin MUST must have such a method.\n    */\n    function upgradeTo(address newImplementation, bytes calldata data, bool finalize)\n        external payable onlyGovernance notFinalized notFrozen {\n        uint256 activation_time = enabledTime[newImplementation];\n\n        require(activation_time > 0, \"ADDRESS_NOT_UPGRADE_CANDIDATE\");\n        // solium-disable-next-line security/no-block-members\n        require(activation_time <= now, \"UPGRADE_NOT_ENABLED_YET\");\n\n        bytes32 init_vector_hash = initializationHash[newImplementation];\n        require(init_vector_hash == keccak256(abi.encode(data, finalize)), \"CHANGED_INITIALIZER\");\n        setImplementation(newImplementation);\n\n        // solium-disable-next-line security/no-low-level-calls\n        (bool success, bytes memory returndata) = newImplementation.delegatecall(\n            abi.encodeWithSelector(this.initialize.selector, data));\n        require(success, string(returndata));\n\n        // Verify that the new implementation is not frozen post initialization.\n        (success, returndata) = newImplementation.delegatecall(\n            abi.encodeWithSignature(\"isFrozen()\"));\n        require(success, \"CALL_TO_ISFROZEN_REVERTED\");\n        require(abi.decode(returndata, (bool)) == false, \"NEW_IMPLEMENTATION_FROZEN\");\n\n        if (finalize == true) {\n            setFinalizedFlag();\n            emit FinalizedImplementation(newImplementation);\n        }\n\n        emit Upgraded(newImplementation);\n    }\n\n    function isContract(address account) internal view returns (bool) {\n        uint256 size;\n        // solium-disable-next-line security/no-inline-assembly\n        assembly {\n            size := extcodesize(account)\n        }\n        return size > 0;\n    }\n}\n",
  "sourcePath": "/Users/gokulalex/Apps/eth_apps/VerityNet/starkex-deployment/scalable-dex/contracts/upgrade/Proxy.sol",
  "compiler": {
    "name": "solc",
    "version": "0.5.16+commit.9c3226ce.Emscripten.clang"
  },
  "schemaVersion": "3.3.1",
  "updatedAt": "2020-10-21T18:42:18.135Z",
  "devdoc": {
    "methods": {}
  },
  "userdoc": {
    "methods": {},
    "notice": "The Proxy contract implements delegation of calls to other contracts (`implementations`), with proper forwarding of return values and revert reasons. This pattern allows retaining the contract storage while replacing implementation code. The following operations are supported by the proxy contract: - :sol:func:`addImplementation`: Defines a new implementation, the data with which it should be initialized and whether this will be the last version of implementation. - :sol:func:`upgradeTo`: Once an implementation is added, the governor may upgrade to that implementation only after a safety time period has passed (time lock), the current implementation is not the last version and the implementation is not frozen (see :sol:mod:`FullWithdrawals`). - :sol:func:`removeImplementation`: Any announced implementation may be removed. Removing an implementation is especially important once it has been used for an upgrade in order to avoid an additional unwanted revert to an older version. The only entity allowed to perform the above operations is the proxy governor (see :sol:mod:`ProxyGovernance`). Every implementation is required to have an `initialize` function that replaces the constructor of a normal contract. Furthermore, the only parameter of this function is an array of bytes (`data`) which may be decoded arbitrarily by the `initialize` function. It is up to the implementation to ensure that this function cannot be run more than once if so desired. When an implementation is added (:sol:func:`addImplementation`) the initialization `data` is also announced, allowing users of the contract to analyze the full effect of an upgrade to the new implementation. During an :sol:func:`upgradeTo`, the `data` is provided again and only if it is identical to the announced `data` is the upgrade performed by pointing the proxy to the new implementation and calling its `initialize` function with this `data`. It is the responsibility of the implementation not to overwrite any storage belonging to the proxy (`ProxyStorage`). In addition, upon upgrade, the new implementation is assumed to be backward compatible with previous implementations with respect to the storage used until that point."
  }
}