{
  "contractName": "Users",
  "abi": [
    {
      "anonymous": false,
      "inputs": [
        {
          "indexed": false,
          "internalType": "address",
          "name": "userAdmin",
          "type": "address"
        }
      ],
      "name": "LogUserAdminAdded",
      "type": "event"
    },
    {
      "anonymous": false,
      "inputs": [
        {
          "indexed": false,
          "internalType": "address",
          "name": "userAdmin",
          "type": "address"
        }
      ],
      "name": "LogUserAdminRemoved",
      "type": "event"
    },
    {
      "anonymous": false,
      "inputs": [
        {
          "indexed": false,
          "internalType": "address",
          "name": "etherKey",
          "type": "address"
        },
        {
          "indexed": false,
          "internalType": "uint256",
          "name": "starkKey",
          "type": "uint256"
        }
      ],
      "name": "LogUserRegistered",
      "type": "event"
    },
    {
      "constant": true,
      "inputs": [],
      "name": "DEPOSIT_CANCEL_DELAY",
      "outputs": [
        {
          "internalType": "uint256",
          "name": "",
          "type": "uint256"
        }
      ],
      "payable": false,
      "stateMutability": "view",
      "type": "function"
    },
    {
      "constant": true,
      "inputs": [],
      "name": "FREEZE_GRACE_PERIOD",
      "outputs": [
        {
          "internalType": "uint256",
          "name": "",
          "type": "uint256"
        }
      ],
      "payable": false,
      "stateMutability": "view",
      "type": "function"
    },
    {
      "constant": true,
      "inputs": [],
      "name": "MAX_VERIFIER_COUNT",
      "outputs": [
        {
          "internalType": "uint256",
          "name": "",
          "type": "uint256"
        }
      ],
      "payable": false,
      "stateMutability": "view",
      "type": "function"
    },
    {
      "constant": true,
      "inputs": [],
      "name": "UNFREEZE_DELAY",
      "outputs": [
        {
          "internalType": "uint256",
          "name": "",
          "type": "uint256"
        }
      ],
      "payable": false,
      "stateMutability": "view",
      "type": "function"
    },
    {
      "constant": true,
      "inputs": [],
      "name": "VERIFIER_REMOVAL_DELAY",
      "outputs": [
        {
          "internalType": "uint256",
          "name": "",
          "type": "uint256"
        }
      ],
      "payable": false,
      "stateMutability": "view",
      "type": "function"
    },
    {
      "constant": false,
      "inputs": [
        {
          "internalType": "address",
          "name": "newAdmin",
          "type": "address"
        }
      ],
      "name": "registerUserAdmin",
      "outputs": [],
      "payable": false,
      "stateMutability": "nonpayable",
      "type": "function"
    },
    {
      "constant": false,
      "inputs": [
        {
          "internalType": "address",
          "name": "oldAdmin",
          "type": "address"
        }
      ],
      "name": "unregisterUserAdmin",
      "outputs": [],
      "payable": false,
      "stateMutability": "nonpayable",
      "type": "function"
    },
    {
      "constant": true,
      "inputs": [
        {
          "internalType": "address",
          "name": "testedAdmin",
          "type": "address"
        }
      ],
      "name": "isUserAdmin",
      "outputs": [
        {
          "internalType": "bool",
          "name": "",
          "type": "bool"
        }
      ],
      "payable": false,
      "stateMutability": "view",
      "type": "function"
    },
    {
      "constant": false,
      "inputs": [
        {
          "internalType": "uint256",
          "name": "starkKey",
          "type": "uint256"
        },
        {
          "internalType": "bytes",
          "name": "signature",
          "type": "bytes"
        }
      ],
      "name": "register",
      "outputs": [],
      "payable": false,
      "stateMutability": "nonpayable",
      "type": "function"
    },
    {
      "constant": true,
      "inputs": [
        {
          "internalType": "address",
          "name": "etherKey",
          "type": "address"
        }
      ],
      "name": "getStarkKey",
      "outputs": [
        {
          "internalType": "uint256",
          "name": "starkKey",
          "type": "uint256"
        }
      ],
      "payable": false,
      "stateMutability": "view",
      "type": "function"
    },
    {
      "constant": true,
      "inputs": [
        {
          "internalType": "uint256",
          "name": "starkKey",
          "type": "uint256"
        }
      ],
      "name": "getEtherKey",
      "outputs": [
        {
          "internalType": "address",
          "name": "etherKey",
          "type": "address"
        }
      ],
      "payable": false,
      "stateMutability": "view",
      "type": "function"
    }
  ],
  "bytecode": "0x608060405234801561001057600080fd5b50611023806100206000396000f3fe608060405234801561001057600080fd5b50600436106100a85760003560e01c8063b04b617911610071578063b04b6179146101e6578063b76631121461022a578063b7c3236f14610248578063c1e5976e146102b6578063e6de62821461030e578063f3e0c3fb1461032c576100a8565b8062717542146100ad57806374d523a8146100cb578063765718d71461012757806377e84e0d146101aa578063993f3639146101c8575b600080fd5b6100b5610370565b6040518082815260200191505060405180910390f35b61010d600480360360208110156100e157600080fd5b81019080803573ffffffffffffffffffffffffffffffffffffffff169060200190929190505050610377565b604051808215151515815260200191505060405180910390f35b6101a86004803603604081101561013d57600080fd5b81019080803590602001909291908035906020019064010000000081111561016457600080fd5b82018360208201111561017657600080fd5b8035906020019184600183028401116401000000008311171561019857600080fd5b90919293919293905050506103cd565b005b6101b2610a2a565b6040518082815260200191505060405180910390f35b6101d0610a31565b6040518082815260200191505060405180910390f35b610228600480360360208110156101fc57600080fd5b81019080803573ffffffffffffffffffffffffffffffffffffffff169060200190929190505050610a39565b005b610232610aa7565b6040518082815260200191505060405180910390f35b6102746004803603602081101561025e57600080fd5b8101908080359060200190929190505050610ab3565b604051808273ffffffffffffffffffffffffffffffffffffffff1673ffffffffffffffffffffffffffffffffffffffff16815260200191505060405180910390f35b6102f8600480360360208110156102cc57600080fd5b81019080803573ffffffffffffffffffffffffffffffffffffffff169060200190929190505050610b93565b6040518082815260200191505060405180910390f35b610316610c53565b6040518082815260200191505060405180910390f35b61036e6004803603602081101561034257600080fd5b81019080803573ffffffffffffffffffffffffffffffffffffffff169060200190929190505050610c58565b005b62093a8081565b6000601260008373ffffffffffffffffffffffffffffffffffffffff1673ffffffffffffffffffffffffffffffffffffffff16815260200190815260200160002060009054906101000a900460ff169050919050565b60003390506000841415610449576040517f08c379a00000000000000000000000000000000000000000000000000000000081526004018080602001828103825260118152602001807f494e56414c49445f535441524b5f4b455900000000000000000000000000000081525060200191505060405180910390fd5b6000601760008373ffffffffffffffffffffffffffffffffffffffff1673ffffffffffffffffffffffffffffffffffffffff16815260200190815260200160002054146104fe576040517f08c379a00000000000000000000000000000000000000000000000000000000081526004018080602001828103825260158152602001807f45544845525f4b45595f554e415641494c41424c45000000000000000000000081525060200191505060405180910390fd5b600073ffffffffffffffffffffffffffffffffffffffff166018600086815260200190815260200160002060009054906101000a900473ffffffffffffffffffffffffffffffffffffffff1673ffffffffffffffffffffffffffffffffffffffff16146105d3576040517f08c379a00000000000000000000000000000000000000000000000000000000081526004018080602001828103825260158152602001807f535441524b5f4b45595f554e415641494c41424c45000000000000000000000081525060200191505060405180910390fd5b7f08000000000000110000000000000000000000000000000000000000000000018410610668576040517f08c379a00000000000000000000000000000000000000000000000000000000081526004018080602001828103825260118152602001807f494e56414c49445f535441524b5f4b455900000000000000000000000000000081525060200191505060405180910390fd5b61067184610cc6565b6106e3576040517f08c379a00000000000000000000000000000000000000000000000000000000081526004018080602001828103825260118152602001807f494e56414c49445f535441524b5f4b455900000000000000000000000000000081525060200191505060405180910390fd5b6041838390501461075c576040517f08c379a00000000000000000000000000000000000000000000000000000000081526004018080602001828103825260118152602001807f494e56414c49445f5349474e415455524500000000000000000000000000000081525060200191505060405180910390fd5b60008185604051602001808373ffffffffffffffffffffffffffffffffffffffff1673ffffffffffffffffffffffffffffffffffffffff1660601b815260140182815260200192505050604051602081830303815290604052805190602001209050606084848080601f016020809104026020016040519081016040528093929190818152602001838380828437600081840152601f19601f82011690508083019250505050505050905060008160408151811061081657fe5b602001015160f81c60f81b60f81c90506000806020840151915060408401519050600060018685858560405160008152602001604052604051808581526020018460ff1660ff1681526020018381526020018281526020019450505050506020604051602081039080840390855afa158015610896573d6000803e3d6000fd5b5050506020604051035190506108ab81610377565b61091d576040517f08c379a00000000000000000000000000000000000000000000000000000000081526004018080602001828103825260118152602001807f494e56414c49445f5349474e415455524500000000000000000000000000000081525060200191505060405180910390fd5b89601760008973ffffffffffffffffffffffffffffffffffffffff1673ffffffffffffffffffffffffffffffffffffffff1681526020019081526020016000208190555086601860008c815260200190815260200160002060006101000a81548173ffffffffffffffffffffffffffffffffffffffff021916908373ffffffffffffffffffffffffffffffffffffffff1602179055507f81e13c0bae932893ce70e84b95cdb60c8f083c903ae3516134f80f247cfe3bfc878b604051808373ffffffffffffffffffffffffffffffffffffffff1673ffffffffffffffffffffffffffffffffffffffff1681526020018281526020019250505060405180910390a150505050505050505050565b6201518081565b6301e1338081565b6040517f08c379a000000000000000000000000000000000000000000000000000000000815260040180806020018281038252600d8152602001807f554e494d504c454d454e5445440000000000000000000000000000000000000081525060200191505060405180910390fd5b621baf8062093a800181565b60006018600083815260200190815260200160002060009054906101000a900473ffffffffffffffffffffffffffffffffffffffff169050600073ffffffffffffffffffffffffffffffffffffffff168173ffffffffffffffffffffffffffffffffffffffff161415610b8e576040517f08c379a00000000000000000000000000000000000000000000000000000000081526004018080602001828103825260118152602001807f555345525f554e5245474953544552454400000000000000000000000000000081525060200191505060405180910390fd5b919050565b6000601760008373ffffffffffffffffffffffffffffffffffffffff1673ffffffffffffffffffffffffffffffffffffffff1681526020019081526020016000205490506000811415610c4e576040517f08c379a00000000000000000000000000000000000000000000000000000000081526004018080602001828103825260118152602001807f555345525f554e5245474953544552454400000000000000000000000000000081525060200191505060405180910390fd5b919050565b604081565b6040517f08c379a000000000000000000000000000000000000000000000000000000000815260040180806020018281038252600d8152602001807f554e494d504c454d454e5445440000000000000000000000000000000000000081525060200191505060405180910390fd5b6000807f080000000000001100000000000000000000000000000000000000000000000180610cf157fe5b837f080000000000001100000000000000000000000000000000000000000000000180610d1a57fe5b858609099050610d9d7f080000000000001100000000000000000000000000000000000000000000000180610d4b57fe5b7f06f21413efbe40de150e596d72f7a8c5609ad26c15c915c1f4cdfcb99cee9e897f080000000000001100000000000000000000000000000000000000000000000180610d9457fe5b86850808610da5565b915050919050565b6000610dde82600260017f08000000000000110000000000000000000000000000000000000000000000010381610dd857fe5b04610de8565b6001149050919050565b6000806060600573ffffffffffffffffffffffffffffffffffffffff16602080602088887f0800000000000011000000000000000000000000000000000000000000000001604051602001808760ff1681526020018660ff1681526020018560ff16815260200184815260200183815260200182815260200196505050505050506040516020818303038152906040526040518082805190602001908083835b60208310610eab5780518252602082019150602081019050602083039250610e88565b6001836020036101000a038019825116818451168082178552505050505050905001915050600060405180830381855afa9150503d8060008114610f0b576040519150601f19603f3d011682016040523d82523d6000602084013e610f10565b606091505b5091509150818190610fbd576040517f08c379a00000000000000000000000000000000000000000000000000000000081526004018080602001828103825283818151815260200191508051906020019080838360005b83811015610f82578082015181840152602081019050610f67565b50505050905090810190601f168015610faf5780820380516001836020036101000a031916815260200191505b509250505060405180910390fd5b50808060200190516020811015610fd357600080fd5b8101908080519060200190929190505050925050509291505056fea265627a7a72315820d75934158de0b8794c1372e41cf1fcd23b7d4e8f915bfd57ab2bed1bd24769e664736f6c63430005100032",
  "source": "pragma solidity ^0.5.2;\n\nimport \"../libraries/LibConstants.sol\";\nimport \"../interfaces/MUsers.sol\";\nimport \"../interfaces/MGovernance.sol\";\nimport \"./MainStorage.sol\";\n\n/**\n  Users of the Stark Exchange are identified within the exchange by their Stark Key which is a\n  public key defined over a Stark-friendly elliptic curve that is different from the standard\n  Ethereum elliptic curve. These keys may be generated using the same private key used by the user\n  on Ethereum.\n\n  The Stark-friendly elliptic curve used is defined as follows:\n\n  .. math:: y^2 = (x^3 + \\alpha \\cdot x + \\beta) \\% p\n\n  where:\n\n  .. math:: \\alpha = 1\n  .. math:: \\beta = 3141592653589793238462643383279502884197169399375105820974944592307816406665\n  .. math:: p = 3618502788666131213697322783095070105623107215331596699973092056135872020481\n\n  In order to associate exchange users with Ethereum account addresses, a user must register the\n  Stark Key on the exchange contract before any other user operation can take place.\n  User registration is performed by calling :sol:func:`register` with the selected Stark Key,\n  representing an `x` coordinate on the Stark-friendly elliptic curve, and the `y` coordinate of\n  the key on the curve (due to the nature of the curve, only two such possible `y` coordinates\n  exist).\n\n  The registration is accepted if the following holds:\n\n  1. The key registered is not zero and has not been registered in the past by the user or anyone else.\n  2. The key provided represents a valid point on the Stark-friendly elliptic curve.\n  3. The linkage between the Ethereum key of the caller and the selected Stark Key is signed by the User Admin (typically the exchange operator).\n\n  If the above holds, the Stark Key is registered by the contract mapping it to the Ethereum key\n  of the registering entity and vice versa. This mapping is later used to ensure that withdrawals\n  from accounts mapped to the Stark Key can only be performed by a user authenticated with the\n  associated Ethereum public key (see :sol:mod:`Withdrawals`).\n*/\n/*\n  Implements MUsers.\n*/\ncontract Users is MainStorage, LibConstants, MGovernance, MUsers {\n    event LogUserRegistered(address etherKey, uint256 starkKey);\n    event LogUserAdminAdded(address userAdmin);\n    event LogUserAdminRemoved(address userAdmin);\n\n    function isOnCurve(uint256 starkKey) private view returns (bool) {\n        uint256 xCubed = mulmod(mulmod(starkKey, starkKey, K_MODULUS), starkKey, K_MODULUS);\n        return isQuadraticResidue(addmod(addmod(xCubed, starkKey, K_MODULUS), K_BETA, K_MODULUS));\n    }\n\n    function registerUserAdmin(address newAdmin) external onlyGovernance() {\n        userAdmins[newAdmin] = true;\n        emit LogUserAdminAdded(newAdmin);\n    }\n\n    function unregisterUserAdmin(address oldAdmin) external onlyGovernance() {\n        userAdmins[oldAdmin] = false;\n        emit LogUserAdminRemoved(oldAdmin);\n    }\n\n    function isUserAdmin(address testedAdmin) public view returns (bool) {\n        return userAdmins[testedAdmin];\n    }\n\n    function register(uint256 starkKey, bytes calldata signature) external {\n        // Validate keys and availability.\n        address etherKey = msg.sender;\n        require(starkKey != 0, \"INVALID_STARK_KEY\");\n        require(starkKeys[etherKey] == 0, \"ETHER_KEY_UNAVAILABLE\");\n        require(etherKeys[starkKey] == ZERO_ADDRESS, \"STARK_KEY_UNAVAILABLE\");\n        require(starkKey < K_MODULUS, \"INVALID_STARK_KEY\");\n        require(isOnCurve(starkKey), \"INVALID_STARK_KEY\");\n        require(signature.length == 65, \"INVALID_SIGNATURE\");\n\n        bytes32 keyPairHash = keccak256(abi.encodePacked(etherKey, starkKey));\n\n        bytes memory sig = signature;\n        uint8 v = uint8(sig[64]);\n        bytes32 r;\n        bytes32 s;\n\n        // solium-disable-next-line security/no-inline-assembly\n        assembly {\n            r := mload(add(sig, 32))\n            s := mload(add(sig, 64))\n        }\n\n        address signer = ecrecover(keyPairHash, v, r, s);\n        require(isUserAdmin(signer), \"INVALID_SIGNATURE\");\n\n        // Update state.\n        starkKeys[etherKey] = starkKey;\n        etherKeys[starkKey] = etherKey;\n\n        // Log new user.\n        emit LogUserRegistered(etherKey, starkKey);\n    }\n\n    function getStarkKey(address etherKey) public view returns (uint256 starkKey) {\n        // Fetch the user's STARK key.\n        starkKey = starkKeys[etherKey];\n        require(starkKey != 0, \"USER_UNREGISTERED\");\n    }\n\n    function getEtherKey(uint256 starkKey) external view returns (address etherKey) {\n        // Fetch the user's Ether key.\n        etherKey = etherKeys[starkKey];\n        require(etherKey != ZERO_ADDRESS, \"USER_UNREGISTERED\");\n    }\n\n    function fieldPow(uint256 base, uint256 exponent) internal view returns (uint256) {\n        // solium-disable-next-line security/no-low-level-calls\n        (bool success, bytes memory returndata) = address(5).staticcall(\n            abi.encode(0x20, 0x20, 0x20, base, exponent, K_MODULUS)\n        );\n        require(success, string(returndata));\n        return abi.decode(returndata, (uint256));\n    }\n\n    function isQuadraticResidue(uint256 fieldElement) private view returns (bool) {\n        return 1 == fieldPow(fieldElement, ((K_MODULUS - 1) / 2));\n    }\n}\n",
  "sourcePath": "/Users/gokulalex/Apps/eth_apps/VerityNet/tinlake-tokenswap-starkex/scalable-dex/contracts/components/Users.sol",
  "compiler": {
    "name": "solc",
    "version": "0.5.16+commit.9c3226ce.Emscripten.clang"
  },
  "schemaVersion": "3.3.1",
  "updatedAt": "2020-10-21T21:01:22.859Z",
  "devdoc": {
    "methods": {}
  },
  "userdoc": {
    "methods": {},
    "notice": "Users of the Stark Exchange are identified within the exchange by their Stark Key which is a public key defined over a Stark-friendly elliptic curve that is different from the standard Ethereum elliptic curve. These keys may be generated using the same private key used by the user on Ethereum. The Stark-friendly elliptic curve used is defined as follows: .. math:: y^2 = (x^3 + \\alpha \\cdot x + \\beta) \\% p where: .. math:: \\alpha = 1 .. math:: \\beta = 3141592653589793238462643383279502884197169399375105820974944592307816406665 .. math:: p = 3618502788666131213697322783095070105623107215331596699973092056135872020481 In order to associate exchange users with Ethereum account addresses, a user must register the Stark Key on the exchange contract before any other user operation can take place. User registration is performed by calling :sol:func:`register` with the selected Stark Key, representing an `x` coordinate on the Stark-friendly elliptic curve, and the `y` coordinate of the key on the curve (due to the nature of the curve, only two such possible `y` coordinates exist). The registration is accepted if the following holds: 1. The key registered is not zero and has not been registered in the past by the user or anyone else. 2. The key provided represents a valid point on the Stark-friendly elliptic curve. 3. The linkage between the Ethereum key of the caller and the selected Stark Key is signed by the User Admin (typically the exchange operator). If the above holds, the Stark Key is registered by the contract mapping it to the Ethereum key of the registering entity and vice versa. This mapping is later used to ensure that withdrawals from accounts mapped to the Stark Key can only be performed by a user authenticated with the associated Ethereum public key (see :sol:mod:`Withdrawals`)."
  }
}