{
  "contractName": "CentralizedOracle",
  "abi": [
    {
      "inputs": [
        {
          "internalType": "address",
          "name": "_receiverStorage",
          "type": "address"
        },
        {
          "internalType": "address",
          "name": "_owner",
          "type": "address"
        },
        {
          "internalType": "address",
          "name": "_oracle",
          "type": "address"
        }
      ],
      "payable": false,
      "stateMutability": "nonpayable",
      "type": "constructor"
    },
    {
      "constant": true,
      "inputs": [
        {
          "internalType": "uint256",
          "name": "",
          "type": "uint256"
        },
        {
          "internalType": "uint256",
          "name": "",
          "type": "uint256"
        }
      ],
      "name": "isDisputed",
      "outputs": [
        {
          "internalType": "bool",
          "name": "",
          "type": "bool"
        }
      ],
      "payable": false,
      "stateMutability": "view",
      "type": "function"
    },
    {
      "constant": true,
      "inputs": [
        {
          "internalType": "uint256",
          "name": "",
          "type": "uint256"
        },
        {
          "internalType": "uint256",
          "name": "",
          "type": "uint256"
        }
      ],
      "name": "locked",
      "outputs": [
        {
          "internalType": "bool",
          "name": "",
          "type": "bool"
        }
      ],
      "payable": false,
      "stateMutability": "view",
      "type": "function"
    },
    {
      "constant": true,
      "inputs": [
        {
          "internalType": "uint256",
          "name": "",
          "type": "uint256"
        }
      ],
      "name": "metadata",
      "outputs": [
        {
          "internalType": "uint256",
          "name": "referenceRequestId",
          "type": "uint256"
        },
        {
          "internalType": "uint256",
          "name": "timestampWindow",
          "type": "uint256"
        }
      ],
      "payable": false,
      "stateMutability": "view",
      "type": "function"
    },
    {
      "constant": true,
      "inputs": [],
      "name": "receiverStorage",
      "outputs": [
        {
          "internalType": "contract IReceiverStorage",
          "name": "",
          "type": "address"
        }
      ],
      "payable": false,
      "stateMutability": "view",
      "type": "function"
    },
    {
      "constant": true,
      "inputs": [
        {
          "internalType": "uint256",
          "name": "",
          "type": "uint256"
        },
        {
          "internalType": "uint256",
          "name": "",
          "type": "uint256"
        }
      ],
      "name": "timestamps",
      "outputs": [
        {
          "internalType": "uint256",
          "name": "",
          "type": "uint256"
        }
      ],
      "payable": false,
      "stateMutability": "view",
      "type": "function"
    },
    {
      "constant": true,
      "inputs": [
        {
          "internalType": "uint256",
          "name": "",
          "type": "uint256"
        },
        {
          "internalType": "uint256",
          "name": "",
          "type": "uint256"
        }
      ],
      "name": "values",
      "outputs": [
        {
          "internalType": "uint256",
          "name": "",
          "type": "uint256"
        }
      ],
      "payable": false,
      "stateMutability": "view",
      "type": "function"
    },
    {
      "constant": false,
      "inputs": [
        {
          "internalType": "uint256",
          "name": "_referenceRequestId",
          "type": "uint256"
        },
        {
          "internalType": "uint256",
          "name": "_timestampWindow",
          "type": "uint256"
        }
      ],
      "name": "newDataset",
      "outputs": [],
      "payable": false,
      "stateMutability": "nonpayable",
      "type": "function"
    },
    {
      "constant": false,
      "inputs": [
        {
          "internalType": "uint256",
          "name": "_requestId",
          "type": "uint256"
        },
        {
          "internalType": "uint256",
          "name": "_timestamp",
          "type": "uint256"
        },
        {
          "internalType": "uint256",
          "name": "_value",
          "type": "uint256"
        }
      ],
      "name": "submitData",
      "outputs": [],
      "payable": false,
      "stateMutability": "nonpayable",
      "type": "function"
    },
    {
      "constant": false,
      "inputs": [
        {
          "internalType": "uint256",
          "name": "_requestId",
          "type": "uint256"
        },
        {
          "internalType": "uint256",
          "name": "_timestamp",
          "type": "uint256"
        },
        {
          "internalType": "uint256",
          "name": "_challengeTimestamp",
          "type": "uint256"
        }
      ],
      "name": "challengeData",
      "outputs": [],
      "payable": false,
      "stateMutability": "nonpayable",
      "type": "function"
    },
    {
      "constant": true,
      "inputs": [
        {
          "internalType": "uint256",
          "name": "_requestId",
          "type": "uint256"
        },
        {
          "internalType": "uint256",
          "name": "_timestamp",
          "type": "uint256"
        }
      ],
      "name": "retrieveData",
      "outputs": [
        {
          "internalType": "uint256",
          "name": "",
          "type": "uint256"
        }
      ],
      "payable": false,
      "stateMutability": "view",
      "type": "function"
    },
    {
      "constant": true,
      "inputs": [
        {
          "internalType": "uint256",
          "name": "_requestId",
          "type": "uint256"
        },
        {
          "internalType": "uint256",
          "name": "_timestamp",
          "type": "uint256"
        }
      ],
      "name": "isInDispute",
      "outputs": [
        {
          "internalType": "bool",
          "name": "",
          "type": "bool"
        }
      ],
      "payable": false,
      "stateMutability": "view",
      "type": "function"
    },
    {
      "constant": true,
      "inputs": [
        {
          "internalType": "uint256",
          "name": "_requestId",
          "type": "uint256"
        }
      ],
      "name": "getNewValueCountbyRequestId",
      "outputs": [
        {
          "internalType": "uint256",
          "name": "",
          "type": "uint256"
        }
      ],
      "payable": false,
      "stateMutability": "view",
      "type": "function"
    },
    {
      "constant": true,
      "inputs": [
        {
          "internalType": "uint256",
          "name": "_requestId",
          "type": "uint256"
        },
        {
          "internalType": "uint256",
          "name": "index",
          "type": "uint256"
        }
      ],
      "name": "getTimestampbyRequestIDandIndex",
      "outputs": [
        {
          "internalType": "uint256",
          "name": "",
          "type": "uint256"
        }
      ],
      "payable": false,
      "stateMutability": "view",
      "type": "function"
    }
  ],
  "bytecode": "0x608060405234801561001057600080fd5b50604051610bb7380380610bb78339818101604052606081101561003357600080fd5b81019080805190602001909291908051906020019092919080519060200190929190505050826000806101000a81548173ffffffffffffffffffffffffffffffffffffffff021916908373ffffffffffffffffffffffffffffffffffffffff16021790555081600760006101000a81548173ffffffffffffffffffffffffffffffffffffffff021916908373ffffffffffffffffffffffffffffffffffffffff16021790555080600860006101000a81548173ffffffffffffffffffffffffffffffffffffffff021916908373ffffffffffffffffffffffffffffffffffffffff1602179055506000600681905550505050610a83806101346000396000f3fe608060405234801561001057600080fd5b50600436106100cf5760003560e01c806393fa49151161008c578063b041d69611610066578063b041d69614610356578063e3684e39146103a6578063f5f75ba5146103ef578063fb0ceb0414610439576100cf565b806393fa49151461027c578063a3183701146102c8578063ae65b92b14610314576100cf565b80633df0777b146100d457806346eee1c414610124578063678402e014610166578063679c3cd2146101b65780636adbf1fe146101f857806377fbb66314610230575b600080fd5b61010a600480360360408110156100ea57600080fd5b810190808035906020019092919080359060200190929190505050610485565b604051808215151515815260200191505060405180910390f35b6101506004803603602081101561013a57600080fd5b81019080803590602001909291905050506104c1565b6040518082815260200191505060405180910390f35b61019c6004803603604081101561017c57600080fd5b8101908080359060200190929190803590602001909291905050506104e1565b604051808215151515815260200191505060405180910390f35b6101f6600480360360608110156101cc57600080fd5b81019080803590602001909291908035906020019092919080359060200190929190505050610510565b005b61022e6004803603604081101561020e57600080fd5b810190808035906020019092919080359060200190929190505050610611565b005b6102666004803603604081101561024657600080fd5b8101908080359060200190929190803590602001909291905050506106c2565b6040518082815260200191505060405180910390f35b6102b26004803603604081101561029257600080fd5b81019080803590602001909291908035906020019092919050505061072f565b6040518082815260200191505060405180910390f35b6102fe600480360360408110156102de57600080fd5b81019080803590602001909291908035906020019092919050505061075e565b6040518082815260200191505060405180910390f35b6103546004803603606081101561032a57600080fd5b81019080803590602001909291908035906020019092919080359060200190929190505050610783565b005b61038c6004803603604081101561036c57600080fd5b81019080803590602001909291908035906020019092919050505061095f565b604051808215151515815260200191505060405180910390f35b6103d2600480360360208110156103bc57600080fd5b810190808035906020019092919050505061098e565b604051808381526020018281526020019250505060405180910390f35b6103f76109b2565b604051808273ffffffffffffffffffffffffffffffffffffffff1673ffffffffffffffffffffffffffffffffffffffff16815260200191505060405180910390f35b61046f6004803603604081101561044f57600080fd5b8101908080359060200190929190803590602001909291905050506109d7565b6040518082815260200191505060405180910390f35b600060036000848152602001908152602001600020600083815260200190815260200160002060009054906101000a900460ff16905092915050565b600060046000838152602001908152602001600020805490509050919050565b60026020528160005260406000206020528060005260406000206000915091509054906101000a900460ff1681565b600860009054906101000a900473ffffffffffffffffffffffffffffffffffffffff1673ffffffffffffffffffffffffffffffffffffffff163373ffffffffffffffffffffffffffffffffffffffff161461056a57600080fd5b60026000848152602001908152602001600020600083815260200190815260200160002060009054906101000a900460ff16156105a657600080fd5b806001600085815260200190815260200160002060008481526020019081526020016000208190555060046000848152602001908152602001600020829080600181540180825580915050906001820390600052602060002001600090919290919091505550505050565b600760009054906101000a900473ffffffffffffffffffffffffffffffffffffffff1673ffffffffffffffffffffffffffffffffffffffff163373ffffffffffffffffffffffffffffffffffffffff161461066b57600080fd5b60405180604001604052808381526020018281525060056000600654815260200190815260200160002060008201518160000155602082015181600101559050506006600081548092919060010191905055505050565b6000806004600085815260200190815260200160002080549050905060008114806106ed5750828111155b156106fc576000915050610729565b60046000858152602001908152602001600020838154811061071a57fe5b90600052602060002001549150505b92915050565b600060016000848152602001908152602001600020600083815260200190815260200160002054905092915050565b6001602052816000526040600020602052806000526040600020600091509150505481565b600060016000858152602001908152602001600020600084815260200190815260200160002054116107b457600080fd5b60056000848152602001908152602001600020600101546108026107e18484610a0590919063ffffffff16565b6107f48585610a1e90919063ffffffff16565b610a3790919063ffffffff16565b111561080d57600080fd5b6000806000809054906101000a900473ffffffffffffffffffffffffffffffffffffffff1673ffffffffffffffffffffffffffffffffffffffff166393fa49156005600088815260200190815260200160002060000154856040518363ffffffff1660e01b81526004018083815260200182815260200192505050604080518083038186803b15801561089f57600080fd5b505afa1580156108b3573d6000803e3d6000fd5b505050506040513d60408110156108c957600080fd5b81019080805190602001909291908051906020019092919050505091509150816108f257600080fd5b600160026000878152602001908152602001600020600086815260200190815260200160002060006101000a81548160ff02191690831515021790555080600160008781526020019081526020016000206000868152602001908152602001600020819055505050505050565b60036020528160005260406000206020528060005260406000206000915091509054906101000a900460ff1681565b60056020528060005260406000206000915090508060000154908060010154905082565b6000809054906101000a900473ffffffffffffffffffffffffffffffffffffffff1681565b600460205281600052604060002081815481106109f057fe5b90600052602060002001600091509150505481565b6000818310610a145781610a16565b825b905092915050565b6000818311610a2d5781610a2f565b825b905092915050565b600082821115610a4357fe5b81830390509291505056fea265627a7a72315820f9a78ca74093987cf5a46abd048fc447e36eb022e9b1fda050a62b756712d21a64736f6c63430005100032",
  "source": "// CentralizedOracle2.sol\n\npragma solidity 0.5.16;\n\nlibrary SafeMath {\n\n    function max(uint256 a, uint256 b) internal pure returns (uint256) {\n        return a > b ? a : b;\n    }\n\n    function max(int256 a, int256 b) internal pure returns (uint256) {\n        return a > b ? uint256(a) : uint256(b);\n    }\n\n    function min(uint256 a, uint256 b) internal pure returns (uint256) {\n        return a < b ? a : b;\n    }\n\n\n    function sub(uint256 a, uint256 b) internal pure returns (uint256) {\n        assert(b <= a);\n        return a - b;\n    }\n\n    function sub(int256 a, int256 b) internal pure returns (int256 c) {\n        if (b > 0) {\n            c = a - b;\n            assert(c <= a);\n        } else {\n            c = a - b;\n            assert(c >= a);\n        }\n    }\n}\ncontract IReceiverStorage {\n  function retrieveData(uint256 _requestId, uint256 _timestamp) public view returns(bool, uint256);\n}\n\ncontract CentralizedOracle {\n  using SafeMath for uint256;\n\n  IReceiverStorage public receiverStorage;\n\n  mapping (uint256 => mapping(uint256 => uint256)) public values;\n  mapping (uint256 => mapping(uint256 => bool)) public locked;\n  mapping (uint256 => mapping(uint256 => bool)) public isDisputed;\n  mapping(uint256 => uint256[]) public timestamps;\n  mapping (uint256 => Metadata) public metadata;\n  uint256 datasetCount;\n  address owner;\n  address oracle;\n\n  struct Metadata {\n    uint256 referenceRequestId;     // ID of corresponding mainnet data\n    uint256 timestampWindow;        // Max distance from which a challenge datapoint applies to a centralized datapoint\n  }\n\n  constructor(address _receiverStorage, address _owner, address _oracle) public {\n      receiverStorage = IReceiverStorage(_receiverStorage);\n      owner = _owner;\n      oracle = _oracle;\n      datasetCount=0;\n  }\n\n  function newDataset(\n      uint256 _referenceRequestId,\n      uint256 _timestampWindow)\n      public {\n      require(msg.sender == owner);\n\n      metadata[datasetCount] = Metadata({\n          referenceRequestId: _referenceRequestId,\n          timestampWindow: _timestampWindow\n      });\n\n      datasetCount++;\n  }\n\n  function submitData(uint256 _requestId, uint256 _timestamp, uint256 _value) public {\n      require(msg.sender == oracle);\n      require(!locked[_requestId][_timestamp]);\n\n      values[_requestId][_timestamp] = _value;\n      timestamps[_requestId].push(_timestamp);\n  }\n\n  function challengeData(uint256 _requestId, uint256 _timestamp, uint256 _challengeTimestamp) public {\n      require(values[_requestId][_timestamp] > 0);\n      require(_challengeTimestamp.max(_timestamp).sub(_challengeTimestamp.min(_timestamp)) <= metadata[_requestId].timestampWindow);\n\n      (bool retrieved, uint256 retrievedValue) = receiverStorage.retrieveData(metadata[_requestId].referenceRequestId, _challengeTimestamp);\n      require(retrieved);\n      locked[_requestId][_timestamp] = true;\n      values[_requestId][_timestamp] = retrievedValue;\n  }\n\n  // Functions that allow for the use of UsingTellor\n  function retrieveData(uint256 _requestId, uint256 _timestamp) public view returns(uint256){\n      return values[_requestId][_timestamp];\n  }\n\n  function isInDispute(uint256 _requestId, uint256 _timestamp) public view returns(bool){\n      return isDisputed[_requestId][_timestamp];\n  }\n\n  function getNewValueCountbyRequestId(uint256 _requestId) public view returns(uint) {\n      return timestamps[_requestId].length;\n  }\n\n  function getTimestampbyRequestIDandIndex(uint256 _requestId, uint256 index) public view returns(uint256) {\n      uint len = timestamps[_requestId].length;\n      if(len == 0 || len <= index) return 0;\n      return timestamps[_requestId][index];\n  }\n}\n",
  "sourcePath": "/Users/gokulalex/Apps/eth_apps/VerityNet/tellor-circom-proofs/contracts/CentralizedOracle.sol",
  "compiler": {
    "name": "solc",
    "version": "0.5.16+commit.9c3226ce.Emscripten.clang"
  },
  "schemaVersion": "3.3.1",
  "updatedAt": "2020-10-22T14:20:01.519Z",
  "devdoc": {
    "methods": {}
  },
  "userdoc": {
    "methods": {}
  }
}