{
  "contractName": "MockTellor",
  "abi": [
    {
      "inputs": [
        {
          "internalType": "address[]",
          "name": "_initialBalances",
          "type": "address[]"
        },
        {
          "internalType": "uint256[]",
          "name": "_intialAmounts",
          "type": "uint256[]"
        }
      ],
      "payable": false,
      "stateMutability": "nonpayable",
      "type": "constructor"
    },
    {
      "anonymous": false,
      "inputs": [
        {
          "indexed": true,
          "internalType": "address",
          "name": "_from",
          "type": "address"
        },
        {
          "indexed": true,
          "internalType": "address",
          "name": "_to",
          "type": "address"
        },
        {
          "indexed": false,
          "internalType": "uint256",
          "name": "_value",
          "type": "uint256"
        }
      ],
      "name": "Transfer",
      "type": "event"
    },
    {
      "constant": true,
      "inputs": [
        {
          "internalType": "address",
          "name": "",
          "type": "address"
        }
      ],
      "name": "balances",
      "outputs": [
        {
          "internalType": "uint256",
          "name": "",
          "type": "uint256"
        }
      ],
      "payable": false,
      "stateMutability": "view",
      "type": "function"
    },
    {
      "constant": true,
      "inputs": [
        {
          "internalType": "uint256",
          "name": "",
          "type": "uint256"
        },
        {
          "internalType": "uint256",
          "name": "",
          "type": "uint256"
        }
      ],
      "name": "isDisputed",
      "outputs": [
        {
          "internalType": "bool",
          "name": "",
          "type": "bool"
        }
      ],
      "payable": false,
      "stateMutability": "view",
      "type": "function"
    },
    {
      "constant": true,
      "inputs": [
        {
          "internalType": "uint256",
          "name": "",
          "type": "uint256"
        },
        {
          "internalType": "uint256",
          "name": "",
          "type": "uint256"
        }
      ],
      "name": "timestamps",
      "outputs": [
        {
          "internalType": "uint256",
          "name": "",
          "type": "uint256"
        }
      ],
      "payable": false,
      "stateMutability": "view",
      "type": "function"
    },
    {
      "constant": true,
      "inputs": [],
      "name": "totalSupply",
      "outputs": [
        {
          "internalType": "uint256",
          "name": "",
          "type": "uint256"
        }
      ],
      "payable": false,
      "stateMutability": "view",
      "type": "function"
    },
    {
      "constant": true,
      "inputs": [
        {
          "internalType": "uint256",
          "name": "",
          "type": "uint256"
        },
        {
          "internalType": "uint256",
          "name": "",
          "type": "uint256"
        }
      ],
      "name": "values",
      "outputs": [
        {
          "internalType": "uint256",
          "name": "",
          "type": "uint256"
        }
      ],
      "payable": false,
      "stateMutability": "view",
      "type": "function"
    },
    {
      "constant": false,
      "inputs": [
        {
          "internalType": "address",
          "name": "_holder",
          "type": "address"
        },
        {
          "internalType": "uint256",
          "name": "_value",
          "type": "uint256"
        }
      ],
      "name": "mint",
      "outputs": [],
      "payable": false,
      "stateMutability": "nonpayable",
      "type": "function"
    },
    {
      "constant": false,
      "inputs": [
        {
          "internalType": "address",
          "name": "_to",
          "type": "address"
        },
        {
          "internalType": "uint256",
          "name": "_amount",
          "type": "uint256"
        }
      ],
      "name": "transfer",
      "outputs": [
        {
          "internalType": "bool",
          "name": "",
          "type": "bool"
        }
      ],
      "payable": false,
      "stateMutability": "nonpayable",
      "type": "function"
    },
    {
      "constant": false,
      "inputs": [
        {
          "internalType": "address",
          "name": "_from",
          "type": "address"
        },
        {
          "internalType": "address",
          "name": "_to",
          "type": "address"
        },
        {
          "internalType": "uint256",
          "name": "_amount",
          "type": "uint256"
        }
      ],
      "name": "transferFrom",
      "outputs": [
        {
          "internalType": "bool",
          "name": "",
          "type": "bool"
        }
      ],
      "payable": false,
      "stateMutability": "nonpayable",
      "type": "function"
    },
    {
      "constant": false,
      "inputs": [
        {
          "internalType": "uint256",
          "name": "_requestId",
          "type": "uint256"
        },
        {
          "internalType": "uint256",
          "name": "_value",
          "type": "uint256"
        }
      ],
      "name": "submitValue",
      "outputs": [],
      "payable": false,
      "stateMutability": "nonpayable",
      "type": "function"
    },
    {
      "constant": false,
      "inputs": [
        {
          "internalType": "uint256",
          "name": "_requestId",
          "type": "uint256"
        },
        {
          "internalType": "uint256",
          "name": "_timestamp",
          "type": "uint256"
        }
      ],
      "name": "disputeValue",
      "outputs": [],
      "payable": false,
      "stateMutability": "nonpayable",
      "type": "function"
    },
    {
      "constant": true,
      "inputs": [
        {
          "internalType": "uint256",
          "name": "_requestId",
          "type": "uint256"
        },
        {
          "internalType": "uint256",
          "name": "_timestamp",
          "type": "uint256"
        }
      ],
      "name": "retrieveData",
      "outputs": [
        {
          "internalType": "uint256",
          "name": "",
          "type": "uint256"
        }
      ],
      "payable": false,
      "stateMutability": "view",
      "type": "function"
    },
    {
      "constant": true,
      "inputs": [
        {
          "internalType": "uint256",
          "name": "_requestId",
          "type": "uint256"
        },
        {
          "internalType": "uint256",
          "name": "_timestamp",
          "type": "uint256"
        }
      ],
      "name": "isInDispute",
      "outputs": [
        {
          "internalType": "bool",
          "name": "",
          "type": "bool"
        }
      ],
      "payable": false,
      "stateMutability": "view",
      "type": "function"
    },
    {
      "constant": true,
      "inputs": [
        {
          "internalType": "uint256",
          "name": "_requestId",
          "type": "uint256"
        }
      ],
      "name": "getNewValueCountbyRequestId",
      "outputs": [
        {
          "internalType": "uint256",
          "name": "",
          "type": "uint256"
        }
      ],
      "payable": false,
      "stateMutability": "view",
      "type": "function"
    },
    {
      "constant": true,
      "inputs": [
        {
          "internalType": "uint256",
          "name": "_requestId",
          "type": "uint256"
        },
        {
          "internalType": "uint256",
          "name": "index",
          "type": "uint256"
        }
      ],
      "name": "getTimestampbyRequestIDandIndex",
      "outputs": [
        {
          "internalType": "uint256",
          "name": "",
          "type": "uint256"
        }
      ],
      "payable": false,
      "stateMutability": "view",
      "type": "function"
    }
  ],
  "bytecode": "0x60806040523480156200001157600080fd5b5060405162000e4938038062000e49833981810160405260408110156200003757600080fd5b81019080805160405193929190846401000000008211156200005857600080fd5b838201915060208201858111156200006f57600080fd5b82518660208202830111640100000000821117156200008d57600080fd5b8083526020830192505050908051906020019060200280838360005b83811015620000c6578082015181840152602081019050620000a9565b5050505090500160405260200180516040519392919084640100000000821115620000f057600080fd5b838201915060208201858111156200010757600080fd5b82518660208202830111640100000000821117156200012557600080fd5b8083526020830192505050908051906020019060200280838360005b838110156200015e57808201518184015260208101905062000141565b505050509050016040525050508051825114620001e3576040517f08c379a000000000000000000000000000000000000000000000000000000000815260040180806020018281038252601d8152602001807f417272617973206861766520646966666572656e74206c656e6774687300000081525060200191505060405180910390fd5b60008090505b8151811015620002a3578181815181106200020057fe5b6020026020010151600360008584815181106200021957fe5b602002602001015173ffffffffffffffffffffffffffffffffffffffff1673ffffffffffffffffffffffffffffffffffffffff168152602001908152602001600020819055506200028f8282815181106200027057fe5b6020026020010151600454620002ac60201b62000afe1790919060201c565b6004819055508080600101915050620001e9565b505050620002c9565b600080828401905083811015620002bf57fe5b8091505092915050565b610b7080620002d96000396000f3fe608060405234801561001057600080fd5b50600436106100ea5760003560e01c806377fbb6631161008c578063a9059cbb11610066578063a9059cbb146103e7578063acebfc541461044d578063b041d69614610485578063fb0ceb04146104d5576100ea565b806377fbb6631461030357806393fa49151461034f578063a31837011461039b576100ea565b80633df0777b116100c85780633df0777b146101eb57806340c10f191461023b57806346eee1c41461028957806362f55112146102cb576100ea565b806318160ddd146100ef57806323b872dd1461010d57806327e235e314610193575b600080fd5b6100f7610521565b6040518082815260200191505060405180910390f35b6101796004803603606081101561012357600080fd5b81019080803573ffffffffffffffffffffffffffffffffffffffff169060200190929190803573ffffffffffffffffffffffffffffffffffffffff16906020019092919080359060200190929190505050610527565b604051808215151515815260200191505060405180910390f35b6101d5600480360360208110156101a957600080fd5b81019080803573ffffffffffffffffffffffffffffffffffffffff1690602001909291905050506107bb565b6040518082815260200191505060405180910390f35b6102216004803603604081101561020157600080fd5b8101908080359060200190929190803590602001909291905050506107d3565b604051808215151515815260200191505060405180910390f35b6102876004803603604081101561025157600080fd5b81019080803573ffffffffffffffffffffffffffffffffffffffff1690602001909291908035906020019092919050505061080f565b005b6102b56004803603602081101561029f57600080fd5b81019080803590602001909291905050506108c3565b6040518082815260200191505060405180910390f35b610301600480360360408110156102e157600080fd5b8101908080359060200190929190803590602001909291905050506108e3565b005b6103396004803603604081101561031957600080fd5b81019080803590602001909291908035906020019092919050505061094c565b6040518082815260200191505060405180910390f35b6103856004803603604081101561036557600080fd5b8101908080359060200190929190803590602001909291905050506109b9565b6040518082815260200191505060405180910390f35b6103d1600480360360408110156103b157600080fd5b8101908080359060200190929190803590602001909291905050506109e7565b6040518082815260200191505060405180910390f35b610433600480360360408110156103fd57600080fd5b81019080803573ffffffffffffffffffffffffffffffffffffffff16906020019092919080359060200190929190505050610a0c565b604051808215151515815260200191505060405180910390f35b6104836004803603604081101561046357600080fd5b810190808035906020019092919080359060200190929190505050610a21565b005b6104bb6004803603604081101561049b57600080fd5b810190808035906020019092919080359060200190929190505050610a8a565b604051808215151515815260200191505060405180910390f35b61050b600480360360408110156104eb57600080fd5b810190808035906020019092919080359060200190929190505050610ab9565b6040518082815260200191505060405180910390f35b60045481565b600080821415610582576040517f08c379a0000000000000000000000000000000000000000000000000000000008152600401808060200182810382526021815260200180610b1b6021913960400191505060405180910390fd5b600073ffffffffffffffffffffffffffffffffffffffff168373ffffffffffffffffffffffffffffffffffffffff161415610625576040517f08c379a00000000000000000000000000000000000000000000000000000000081526004018080602001828103825260158152602001807f526563656976657220697320302061646472657373000000000000000000000081525060200191505060405180910390fd5b61067782600360008773ffffffffffffffffffffffffffffffffffffffff1673ffffffffffffffffffffffffffffffffffffffff16815260200190815260200160002054610ae790919063ffffffff16565b600360008673ffffffffffffffffffffffffffffffffffffffff1673ffffffffffffffffffffffffffffffffffffffff1681526020019081526020016000208190555061070c82600360008673ffffffffffffffffffffffffffffffffffffffff1673ffffffffffffffffffffffffffffffffffffffff16815260200190815260200160002054610afe90919063ffffffff16565b600360008573ffffffffffffffffffffffffffffffffffffffff1673ffffffffffffffffffffffffffffffffffffffff168152602001908152602001600020819055508273ffffffffffffffffffffffffffffffffffffffff168473ffffffffffffffffffffffffffffffffffffffff167fddf252ad1be2c89b69c2b068fc378daa952ba7f163c4a11628f55a4df523b3ef846040518082815260200191505060405180910390a39392505050565b60036020528060005260406000206000915090505481565b600060016000848152602001908152602001600020600083815260200190815260200160002060009054906101000a900460ff16905092915050565b61086181600360008573ffffffffffffffffffffffffffffffffffffffff1673ffffffffffffffffffffffffffffffffffffffff16815260200190815260200160002054610afe90919063ffffffff16565b600360008473ffffffffffffffffffffffffffffffffffffffff1673ffffffffffffffffffffffffffffffffffffffff168152602001908152602001600020819055506108b981600454610afe90919063ffffffff16565b6004819055505050565b600060026000838152602001908152602001600020805490509050919050565b80600080848152602001908152602001600020600042815260200190815260200160002081905550600260008381526020019081526020016000204290806001815401808255809150509060018203906000526020600020016000909192909190915055505050565b6000806002600085815260200190815260200160002080549050905060008114806109775750828111155b156109865760009150506109b3565b6002600085815260200190815260200160002083815481106109a457fe5b90600052602060002001549150505b92915050565b6000806000848152602001908152602001600020600083815260200190815260200160002054905092915050565b6000602052816000526040600020602052806000526040600020600091509150505481565b6000610a19338484610527565b905092915050565b60008060008481526020019081526020016000206000838152602001908152602001600020819055506001806000848152602001908152602001600020600083815260200190815260200160002060006101000a81548160ff0219169083151502179055505050565b60016020528160005260406000206020528060005260406000206000915091509054906101000a900460ff1681565b60026020528160005260406000208181548110610ad257fe5b90600052602060002001600091509150505481565b600082821115610af357fe5b818303905092915050565b600080828401905083811015610b1057fe5b809150509291505056fe547269656420746f2073656e64206e6f6e2d706f73697469766520616d6f756e74a265627a7a72315820e42e8a033b1f89f09c3db504b6faed2879a69f01a261ad19d127c7453948c08464736f6c63430005100032",
  "source": "pragma solidity 0.5.16;\n\n\n//Slightly modified SafeMath library - includes a min and max function, removes useless div function\nlibrary SafeMath {\n    function add(uint256 a, uint256 b) internal pure returns (uint256) {\n        uint256 c = a + b;\n        assert(c >= a);\n        return c;\n    }\n\n    function add(int256 a, int256 b) internal pure returns (int256 c) {\n        if (b > 0) {\n            c = a + b;\n            assert(c >= a);\n        } else {\n            c = a + b;\n            assert(c <= a);\n        }\n    }\n\n    function max(uint256 a, uint256 b) internal pure returns (uint256) {\n        return a > b ? a : b;\n    }\n\n    function max(int256 a, int256 b) internal pure returns (uint256) {\n        return a > b ? uint256(a) : uint256(b);\n    }\n\n    function min(uint256 a, uint256 b) internal pure returns (uint256) {\n        return a < b ? a : b;\n    }\n\n    function mul(uint256 a, uint256 b) internal pure returns (uint256) {\n        uint256 c = a * b;\n        assert(a == 0 || c / a == b);\n        return c;\n    }\n\n    function sub(uint256 a, uint256 b) internal pure returns (uint256) {\n        assert(b <= a);\n        return a - b;\n    }\n\n    function sub(int256 a, int256 b) internal pure returns (int256 c) {\n        if (b > 0) {\n            c = a - b;\n            assert(c <= a);\n        } else {\n            c = a - b;\n            assert(c >= a);\n        }\n\n    }\n}\n\ncontract MockTellor {\n\n    using SafeMath for uint256;\n    event Transfer(address indexed _from, address indexed _to, uint256 _value);//ERC20 Transfer Event\n\n    mapping(uint256 => mapping(uint256 => uint256)) public values; //requestId -> timestamp -> value\n    mapping(uint256 => mapping(uint256 => bool)) public isDisputed; //requestId -> timestamp -> value\n    mapping(uint256 => uint256[]) public timestamps;\n    mapping(address => uint) public balances;\n    uint256 public totalSupply;\n\n    constructor(address[] memory _initialBalances, uint256[] memory _intialAmounts) public {\n        require(_initialBalances.length == _intialAmounts.length, \"Arrays have different lengths\");\n        for(uint i = 0; i < _intialAmounts.length; i++){\n            balances[_initialBalances[i]] = _intialAmounts[i];\n            totalSupply = totalSupply.add(_intialAmounts[i]);\n        }\n    }\n\n    function mint(address _holder, uint256 _value) public {\n        balances[_holder] = balances[_holder].add(_value);\n        totalSupply = totalSupply.add(_value);\n    }\n\n    function transfer(address _to, uint256 _amount) public returns(bool) {\n        return transferFrom(msg.sender, _to, _amount);\n    }\n\n    function transferFrom(address _from, address _to, uint256 _amount) public returns(bool){\n        require(_amount != 0, \"Tried to send non-positive amount\");\n        require(_to != address(0), \"Receiver is 0 address\");\n        balances[_from] = balances[_from].sub(_amount);\n        balances[_to] = balances[_to].add(_amount);\n        emit Transfer(_from, _to, _amount);\n    }\n\n    function submitValue(uint256 _requestId,uint256 _value) external {\n        values[_requestId][block.timestamp] = _value;\n        timestamps[_requestId].push(block.timestamp);\n    }\n\n    function disputeValue(uint256 _requestId, uint256 _timestamp) external {\n        values[_requestId][_timestamp] = 0;\n        isDisputed[_requestId][_timestamp] = true;\n    }\n\n    function retrieveData(uint256 _requestId, uint256 _timestamp) public view returns(uint256){\n        return values[_requestId][_timestamp];\n    }\n\n    function isInDispute(uint256 _requestId, uint256 _timestamp) public view returns(bool){\n        return isDisputed[_requestId][_timestamp];\n    }\n\n    function getNewValueCountbyRequestId(uint256 _requestId) public view returns(uint) {\n        return timestamps[_requestId].length;\n    }\n\n    function getTimestampbyRequestIDandIndex(uint256 _requestId, uint256 index) public view returns(uint256) {\n        uint len = timestamps[_requestId].length;\n        if(len == 0 || len <= index) return 0;\n        return timestamps[_requestId][index];\n    }\n}\n",
  "sourcePath": "/Users/gokulalex/Apps/eth_apps/VerityNet/tellor-circom-proofs/contracts/MockTellor.sol",
  "compiler": {
    "name": "solc",
    "version": "0.5.16+commit.9c3226ce.Emscripten.clang"
  },
  "schemaVersion": "3.3.1",
  "updatedAt": "2020-10-22T14:20:01.573Z",
  "devdoc": {
    "methods": {}
  },
  "userdoc": {
    "methods": {}
  }
}