{
  "contractName": "ReceiverStorage",
  "abi": [
    {
      "inputs": [],
      "payable": false,
      "stateMutability": "nonpayable",
      "type": "constructor"
    },
    {
      "constant": true,
      "inputs": [
        {
          "internalType": "uint256",
          "name": "",
          "type": "uint256"
        },
        {
          "internalType": "uint256",
          "name": "",
          "type": "uint256"
        }
      ],
      "name": "set",
      "outputs": [
        {
          "internalType": "bool",
          "name": "",
          "type": "bool"
        }
      ],
      "payable": false,
      "stateMutability": "view",
      "type": "function"
    },
    {
      "constant": true,
      "inputs": [
        {
          "internalType": "uint256",
          "name": "",
          "type": "uint256"
        },
        {
          "internalType": "uint256",
          "name": "",
          "type": "uint256"
        }
      ],
      "name": "timestamps",
      "outputs": [
        {
          "internalType": "uint256",
          "name": "",
          "type": "uint256"
        }
      ],
      "payable": false,
      "stateMutability": "view",
      "type": "function"
    },
    {
      "constant": true,
      "inputs": [
        {
          "internalType": "uint256",
          "name": "",
          "type": "uint256"
        },
        {
          "internalType": "uint256",
          "name": "",
          "type": "uint256"
        }
      ],
      "name": "values",
      "outputs": [
        {
          "internalType": "uint256",
          "name": "",
          "type": "uint256"
        }
      ],
      "payable": false,
      "stateMutability": "view",
      "type": "function"
    },
    {
      "constant": false,
      "inputs": [
        {
          "internalType": "uint256",
          "name": "stateId",
          "type": "uint256"
        },
        {
          "internalType": "bytes",
          "name": "data",
          "type": "bytes"
        }
      ],
      "name": "onStateReceive",
      "outputs": [],
      "payable": false,
      "stateMutability": "nonpayable",
      "type": "function"
    },
    {
      "constant": true,
      "inputs": [
        {
          "internalType": "uint256",
          "name": "_requestId",
          "type": "uint256"
        },
        {
          "internalType": "uint256",
          "name": "_timestamp",
          "type": "uint256"
        }
      ],
      "name": "retrieveData",
      "outputs": [
        {
          "internalType": "bool",
          "name": "",
          "type": "bool"
        },
        {
          "internalType": "uint256",
          "name": "",
          "type": "uint256"
        }
      ],
      "payable": false,
      "stateMutability": "view",
      "type": "function"
    },
    {
      "constant": true,
      "inputs": [
        {
          "internalType": "bytes",
          "name": "data",
          "type": "bytes"
        }
      ],
      "name": "parse96BytesToThreeUint256",
      "outputs": [
        {
          "internalType": "uint256",
          "name": "",
          "type": "uint256"
        },
        {
          "internalType": "uint256",
          "name": "",
          "type": "uint256"
        },
        {
          "internalType": "uint256",
          "name": "",
          "type": "uint256"
        }
      ],
      "payable": false,
      "stateMutability": "pure",
      "type": "function"
    }
  ],
  "bytecode": "0x608060405234801561001057600080fd5b5061058d806100206000396000f3fe608060405234801561001057600080fd5b50600436106100625760003560e01c80631ab06ee51461006757806326c53bea146100b75780633b61a0781461013a57806393fa491514610217578063a31837011461026e578063fb0ceb04146102ba575b600080fd5b61009d6004803603604081101561007d57600080fd5b810190808035906020019092919080359060200190929190505050610306565b604051808215151515815260200191505060405180910390f35b610138600480360360408110156100cd57600080fd5b8101908080359060200190929190803590602001906401000000008111156100f457600080fd5b82018360208201111561010657600080fd5b8035906020019184600183028401116401000000008311171561012857600080fd5b9091929391929390505050610335565b005b6101f36004803603602081101561015057600080fd5b810190808035906020019064010000000081111561016d57600080fd5b82018360208201111561017f57600080fd5b803590602001918460018302840111640100000000831117156101a157600080fd5b91908080601f016020809104026020016040519081016040528093929190818152602001838380828437600081840152601f19601f820116905080830192505050505050509192919290505050610470565b60405180848152602001838152602001828152602001935050505060405180910390f35b61024d6004803603604081101561022d57600080fd5b8101908080359060200190929190803590602001909291905050506104a1565b60405180831515151581526020018281526020019250505060405180910390f35b6102a46004803603604081101561028457600080fd5b810190808035906020019092919080359060200190929190505050610505565b6040518082815260200191505060405180910390f35b6102f0600480360360408110156102d057600080fd5b81019080803590602001909291908035906020019092919050505061052a565b6040518082815260200191505060405180910390f35b60016020528160005260406000206020528060005260406000206000915091509054906101000a900460ff1681565b61100173ffffffffffffffffffffffffffffffffffffffff163373ffffffffffffffffffffffffffffffffffffffff161461036f57600080fd5b60008060006103c185858080601f016020809104026020016040519081016040528093929190818152602001838380828437600081840152601f19601f82011690508083019250505050505050610470565b92509250925080600080858152602001908152602001600020600084815260200190815260200160002081905550600260008481526020019081526020016000208290806001815401808255809150509060018203906000526020600020016000909192909190915055506001806000858152602001908152602001600020600084815260200190815260200160002060006101000a81548160ff021916908315150217905550505050505050565b6000806000806000806020870151925060408701519150606087015190508282829550955095505050509193909250565b60008060016000858152602001908152602001600020600084815260200190815260200160002060009054906101000a900460ff16600080868152602001908152602001600020600085815260200190815260200160002054915091509250929050565b6000602052816000526040600020602052806000526040600020600091509150505481565b6002602052816000526040600020818154811061054357fe5b9060005260206000200160009150915050548156fea265627a7a7231582007d220a139380ce34a880244ca6970d63f4c242e1da08a939d953c4a5445be4564736f6c63430005100032",
  "source": "// ReceiverStorage.sol\n\npragma solidity 0.5.16;\n\n// IStateReceiver represents interface to receive state\ninterface IStateReceiver {\n  function onStateReceive(uint256 stateId, bytes calldata data) external;\n}\n\ncontract ReceiverStorage {\n  mapping(uint256 => mapping(uint256 => uint256)) public values;\n  mapping(uint256 => mapping(uint256 => bool)) public set;\n  mapping(uint256 => uint256[]) public timestamps;\n\n  address constant STATE_SYNCER_ROLE = 0x0000000000000000000000000000000000001001;\n\n  constructor() public {}\n\n  function onStateReceive(uint256 stateId, bytes calldata data) external {\n    require(msg.sender == STATE_SYNCER_ROLE);\n    (uint256 requestId, uint256 timestamp, uint256 value) = parse96BytesToThreeUint256(data);\n\n    values[requestId][timestamp] = value;   // Save to values datastore\n    timestamps[requestId].push(timestamp);\n    set[requestId][timestamp] = true;\n  }\n\n  function retrieveData(uint256 _requestId, uint256 _timestamp) public view returns(bool, uint256) {\n    return(set[_requestId][_timestamp], values[_requestId][_timestamp]);\n  }\n\n  function parse96BytesToThreeUint256(bytes memory data) public pure returns(uint256, uint256, uint256) {\n    uint256 parsed1;\n    uint256 parsed2;\n    uint256 parsed3;\n    assembly {\n\t    parsed1 := mload(add(data, 32))\n\t    parsed2 := mload(add(data, 64))\n\t    parsed3 := mload(add(data, 96))\n    }\n    return(parsed1, parsed2, parsed3);\n  }\n}\n",
  "sourcePath": "/Users/gokulalex/Apps/eth_apps/VerityNet/tellor-circom-proofs/contracts/ReceiverStorage.sol",
  "compiler": {
    "name": "solc",
    "version": "0.5.16+commit.9c3226ce.Emscripten.clang"
  },
  "schemaVersion": "3.3.1",
  "updatedAt": "2020-10-22T14:20:01.582Z",
  "devdoc": {
    "methods": {}
  },
  "userdoc": {
    "methods": {}
  }
}