{
  "contractName": "Sender",
  "abi": [
    {
      "inputs": [
        {
          "internalType": "address payable",
          "name": "_tellorAddress",
          "type": "address"
        },
        {
          "internalType": "address",
          "name": "_stateSender",
          "type": "address"
        },
        {
          "internalType": "address",
          "name": "_receiver",
          "type": "address"
        }
      ],
      "payable": false,
      "stateMutability": "nonpayable",
      "type": "constructor"
    },
    {
      "constant": true,
      "inputs": [
        {
          "internalType": "uint256",
          "name": "_requestId",
          "type": "uint256"
        }
      ],
      "name": "getCurrentValue",
      "outputs": [
        {
          "internalType": "bool",
          "name": "ifRetrieve",
          "type": "bool"
        },
        {
          "internalType": "uint256",
          "name": "value",
          "type": "uint256"
        },
        {
          "internalType": "uint256",
          "name": "_timestampRetrieved",
          "type": "uint256"
        }
      ],
      "payable": false,
      "stateMutability": "view",
      "type": "function"
    },
    {
      "constant": false,
      "inputs": [
        {
          "internalType": "uint256",
          "name": "_requestId",
          "type": "uint256"
        },
        {
          "internalType": "uint256",
          "name": "_timestamp",
          "type": "uint256"
        }
      ],
      "name": "getDataBefore",
      "outputs": [
        {
          "internalType": "bool",
          "name": "_ifRetrieve",
          "type": "bool"
        },
        {
          "internalType": "uint256",
          "name": "_value",
          "type": "uint256"
        },
        {
          "internalType": "uint256",
          "name": "_timestampRetrieved",
          "type": "uint256"
        }
      ],
      "payable": false,
      "stateMutability": "nonpayable",
      "type": "function"
    },
    {
      "constant": true,
      "inputs": [
        {
          "internalType": "uint256",
          "name": "_requestId",
          "type": "uint256"
        },
        {
          "internalType": "uint256",
          "name": "_timestamp",
          "type": "uint256"
        }
      ],
      "name": "getIndexForDataBefore",
      "outputs": [
        {
          "internalType": "bool",
          "name": "found",
          "type": "bool"
        },
        {
          "internalType": "uint256",
          "name": "index",
          "type": "uint256"
        }
      ],
      "payable": false,
      "stateMutability": "view",
      "type": "function"
    },
    {
      "constant": true,
      "inputs": [
        {
          "internalType": "uint256",
          "name": "_requestId",
          "type": "uint256"
        }
      ],
      "name": "getNewValueCountbyRequestId",
      "outputs": [
        {
          "internalType": "uint256",
          "name": "",
          "type": "uint256"
        }
      ],
      "payable": false,
      "stateMutability": "view",
      "type": "function"
    },
    {
      "constant": true,
      "inputs": [
        {
          "internalType": "uint256",
          "name": "_requestId",
          "type": "uint256"
        },
        {
          "internalType": "uint256",
          "name": "_index",
          "type": "uint256"
        }
      ],
      "name": "getTimestampbyRequestIDandIndex",
      "outputs": [
        {
          "internalType": "uint256",
          "name": "",
          "type": "uint256"
        }
      ],
      "payable": false,
      "stateMutability": "view",
      "type": "function"
    },
    {
      "constant": true,
      "inputs": [
        {
          "internalType": "uint256",
          "name": "_requestId",
          "type": "uint256"
        },
        {
          "internalType": "uint256",
          "name": "_timestamp",
          "type": "uint256"
        }
      ],
      "name": "isInDispute",
      "outputs": [
        {
          "internalType": "bool",
          "name": "",
          "type": "bool"
        }
      ],
      "payable": false,
      "stateMutability": "view",
      "type": "function"
    },
    {
      "constant": true,
      "inputs": [],
      "name": "receiver",
      "outputs": [
        {
          "internalType": "address",
          "name": "",
          "type": "address"
        }
      ],
      "payable": false,
      "stateMutability": "view",
      "type": "function"
    },
    {
      "constant": true,
      "inputs": [
        {
          "internalType": "uint256",
          "name": "_requestId",
          "type": "uint256"
        },
        {
          "internalType": "uint256",
          "name": "_timestamp",
          "type": "uint256"
        }
      ],
      "name": "retrieveData",
      "outputs": [
        {
          "internalType": "uint256",
          "name": "",
          "type": "uint256"
        }
      ],
      "payable": false,
      "stateMutability": "view",
      "type": "function"
    },
    {
      "constant": true,
      "inputs": [],
      "name": "stateSender",
      "outputs": [
        {
          "internalType": "contract IStateSender",
          "name": "",
          "type": "address"
        }
      ],
      "payable": false,
      "stateMutability": "view",
      "type": "function"
    },
    {
      "constant": false,
      "inputs": [
        {
          "internalType": "uint256",
          "name": "_requestId",
          "type": "uint256"
        },
        {
          "internalType": "uint256",
          "name": "_timestamp",
          "type": "uint256"
        }
      ],
      "name": "retrieveDataAndSend",
      "outputs": [],
      "payable": false,
      "stateMutability": "nonpayable",
      "type": "function"
    },
    {
      "constant": false,
      "inputs": [
        {
          "internalType": "uint256",
          "name": "_requestId",
          "type": "uint256"
        }
      ],
      "name": "getCurrentValueAndSend",
      "outputs": [],
      "payable": false,
      "stateMutability": "nonpayable",
      "type": "function"
    }
  ],
  "bytecode": "0x608060405234801561001057600080fd5b5060405161150f38038061150f8339818101604052606081101561003357600080fd5b8101908080519060200190929190805190602001909291908051906020019092919050505082806000806101000a81548173ffffffffffffffffffffffffffffffffffffffff021916908373ffffffffffffffffffffffffffffffffffffffff1602179055505081600160006101000a81548173ffffffffffffffffffffffffffffffffffffffff021916908373ffffffffffffffffffffffffffffffffffffffff16021790555080600260006101000a81548173ffffffffffffffffffffffffffffffffffffffff021916908373ffffffffffffffffffffffffffffffffffffffff1602179055505050506113e18061012e6000396000f3fe608060405234801561001057600080fd5b50600436106100a95760003560e01c806393fa49151161007157806393fa49151461023e578063a4bbf5cc1461028a578063b73e4979146102b8578063cb10f94c1461030f578063edcde9d114610359578063f7260d3e14610391576100a9565b80633df0777b146100ae5780633fcad964146100fe57806346eee1c41461015257806366b446111461019457806377fbb663146101f2575b600080fd5b6100e4600480360360408110156100c457600080fd5b8101908080359060200190929190803590602001909291905050506103db565b604051808215151515815260200191505060405180910390f35b61012a6004803603602081101561011457600080fd5b810190808035906020019092919050505061049a565b6040518084151515158152602001838152602001828152602001935050505060405180910390f35b61017e6004803603602081101561016857600080fd5b81019080803590602001909291905050506106f7565b6040518082815260200191505060405180910390f35b6101ca600480360360408110156101aa57600080fd5b8101908080359060200190929190803590602001909291905050506107ad565b6040518084151515158152602001838152602001828152602001935050505060405180910390f35b6102286004803603604081101561020857600080fd5b810190808035906020019092919080359060200190929190505050610987565b6040518082815260200191505060405180910390f35b6102746004803603604081101561025457600080fd5b810190808035906020019092919080359060200190929190505050610a46565b6040518082815260200191505060405180910390f35b6102b6600480360360208110156102a057600080fd5b8101908080359060200190929190505050610b05565b005b6102ee600480360360408110156102ce57600080fd5b810190808035906020019092919080359060200190929190505050610ca0565b60405180831515151581526020018281526020019250505060405180910390f35b6103176111c9565b604051808273ffffffffffffffffffffffffffffffffffffffff1673ffffffffffffffffffffffffffffffffffffffff16815260200191505060405180910390f35b61038f6004803603604081101561036f57600080fd5b8101908080359060200190929190803590602001909291905050506111ef565b005b610399611386565b604051808273ffffffffffffffffffffffffffffffffffffffff1673ffffffffffffffffffffffffffffffffffffffff16815260200191505060405180910390f35b60008060009054906101000a900473ffffffffffffffffffffffffffffffffffffffff1673ffffffffffffffffffffffffffffffffffffffff16633df0777b84846040518363ffffffff1660e01b8152600401808381526020018281526020019250505060206040518083038186803b15801561045757600080fd5b505afa15801561046b573d6000803e3d6000fd5b505050506040513d602081101561048157600080fd5b8101908080519060200190929190505050905092915050565b6000806000806000809054906101000a900473ffffffffffffffffffffffffffffffffffffffff1673ffffffffffffffffffffffffffffffffffffffff166346eee1c4866040518263ffffffff1660e01b81526004018082815260200191505060206040518083038186803b15801561051257600080fd5b505afa158015610526573d6000803e3d6000fd5b505050506040513d602081101561053c57600080fd5b8101908080519060200190929190505050905060008060009054906101000a900473ffffffffffffffffffffffffffffffffffffffff1673ffffffffffffffffffffffffffffffffffffffff166377fbb66387600185036040518363ffffffff1660e01b8152600401808381526020018281526020019250505060206040518083038186803b1580156105ce57600080fd5b505afa1580156105e2573d6000803e3d6000fd5b505050506040513d60208110156105f857600080fd5b8101908080519060200190929190505050905060008060009054906101000a900473ffffffffffffffffffffffffffffffffffffffff1673ffffffffffffffffffffffffffffffffffffffff166393fa491588846040518363ffffffff1660e01b8152600401808381526020018281526020019250505060206040518083038186803b15801561068757600080fd5b505afa15801561069b573d6000803e3d6000fd5b505050506040513d60208110156106b157600080fd5b8101908080519060200190929190505050905060008111156106df57600181839550955095505050506106f0565b600080838191509550955095505050505b9193909250565b60008060009054906101000a900473ffffffffffffffffffffffffffffffffffffffff1673ffffffffffffffffffffffffffffffffffffffff166346eee1c4836040518263ffffffff1660e01b81526004018082815260200191505060206040518083038186803b15801561076b57600080fd5b505afa15801561077f573d6000803e3d6000fd5b505050506040513d602081101561079557600080fd5b81019080805190602001909291905050509050919050565b60008060008060006107bf8787610ca0565b91509150816107e05760008060008191508090509450945094505050610980565b60008060009054906101000a900473ffffffffffffffffffffffffffffffffffffffff1673ffffffffffffffffffffffffffffffffffffffff166377fbb66389846040518363ffffffff1660e01b8152600401808381526020018281526020019250505060206040518083038186803b15801561085c57600080fd5b505afa158015610870573d6000803e3d6000fd5b505050506040513d602081101561088657600080fd5b810190808051906020019092919050505090506000809054906101000a900473ffffffffffffffffffffffffffffffffffffffff1673ffffffffffffffffffffffffffffffffffffffff166393fa491589836040518363ffffffff1660e01b8152600401808381526020018281526020019250505060206040518083038186803b15801561091357600080fd5b505afa158015610927573d6000803e3d6000fd5b505050506040513d602081101561093d57600080fd5b81019080805190602001909291905050509450600085111561096b5760018582955095509550505050610980565b60008060008191508090509550955095505050505b9250925092565b60008060009054906101000a900473ffffffffffffffffffffffffffffffffffffffff1673ffffffffffffffffffffffffffffffffffffffff166377fbb66384846040518363ffffffff1660e01b8152600401808381526020018281526020019250505060206040518083038186803b158015610a0357600080fd5b505afa158015610a17573d6000803e3d6000fd5b505050506040513d6020811015610a2d57600080fd5b8101908080519060200190929190505050905092915050565b60008060009054906101000a900473ffffffffffffffffffffffffffffffffffffffff1673ffffffffffffffffffffffffffffffffffffffff166393fa491584846040518363ffffffff1660e01b8152600401808381526020018281526020019250505060206040518083038186803b158015610ac257600080fd5b505afa158015610ad6573d6000803e3d6000fd5b505050506040513d6020811015610aec57600080fd5b8101908080519060200190929190505050905092915050565b6000806000610b138461049a565b92509250925082610b2357600080fd5b600160009054906101000a900473ffffffffffffffffffffffffffffffffffffffff1673ffffffffffffffffffffffffffffffffffffffff166316f19831600260009054906101000a900473ffffffffffffffffffffffffffffffffffffffff168684866040516020018084815260200183815260200182815260200193505050506040516020818303038152906040526040518363ffffffff1660e01b8152600401808373ffffffffffffffffffffffffffffffffffffffff1673ffffffffffffffffffffffffffffffffffffffff16815260200180602001828103825283818151815260200191508051906020019080838360005b83811015610c35578082015181840152602081019050610c1a565b50505050905090810190601f168015610c625780820380516001836020036101000a031916815260200191505b509350505050600060405180830381600087803b158015610c8257600080fd5b505af1158015610c96573d6000803e3d6000fd5b5050505050505050565b60008060008060009054906101000a900473ffffffffffffffffffffffffffffffffffffffff1673ffffffffffffffffffffffffffffffffffffffff166346eee1c4866040518263ffffffff1660e01b81526004018082815260200191505060206040518083038186803b158015610d1757600080fd5b505afa158015610d2b573d6000803e3d6000fd5b505050506040513d6020811015610d4157600080fd5b8101908080519060200190929190505050905060008111156111b65760008060009050600060018403905060008060009054906101000a900473ffffffffffffffffffffffffffffffffffffffff1673ffffffffffffffffffffffffffffffffffffffff166377fbb6638a856040518363ffffffff1660e01b8152600401808381526020018281526020019250505060206040518083038186803b158015610de857600080fd5b505afa158015610dfc573d6000803e3d6000fd5b505050506040513d6020811015610e1257600080fd5b81019080805190602001909291905050509050878110610e40576000808090509650965050505050506111c2565b6000809054906101000a900473ffffffffffffffffffffffffffffffffffffffff1673ffffffffffffffffffffffffffffffffffffffff166377fbb6638a846040518363ffffffff1660e01b8152600401808381526020018281526020019250505060206040518083038186803b158015610eba57600080fd5b505afa158015610ece573d6000803e3d6000fd5b505050506040513d6020811015610ee457600080fd5b8101908080519060200190929190505050905087811015610f10576001829650965050505050506111c2565b5b6001156111b157826001600285850381610f2757fe5b04010193506000809054906101000a900473ffffffffffffffffffffffffffffffffffffffff1673ffffffffffffffffffffffffffffffffffffffff166377fbb6638a866040518363ffffffff1660e01b8152600401808381526020018281526020019250505060206040518083038186803b158015610fa657600080fd5b505afa158015610fba573d6000803e3d6000fd5b505050506040513d6020811015610fd057600080fd5b81019080805190602001909291905050509050878110156110cc5760008060009054906101000a900473ffffffffffffffffffffffffffffffffffffffff1673ffffffffffffffffffffffffffffffffffffffff166377fbb6638b600188016040518363ffffffff1660e01b8152600401808381526020018281526020019250505060206040518083038186803b15801561106a57600080fd5b505afa15801561107e573d6000803e3d6000fd5b505050506040513d602081101561109457600080fd5b810190808051906020019092919050505090508881106110c057600185975097505050505050506111c2565b600185019350506111ac565b60008060009054906101000a900473ffffffffffffffffffffffffffffffffffffffff1673ffffffffffffffffffffffffffffffffffffffff166377fbb6638b600188036040518363ffffffff1660e01b8152600401808381526020018281526020019250505060206040518083038186803b15801561114b57600080fd5b505afa15801561115f573d6000803e3d6000fd5b505050506040513d602081101561117557600080fd5b81019080805190602001909291905050509050888110156111a4576001808603975097505050505050506111c2565b600185039250505b610f11565b505050505b60008080905092509250505b9250929050565b600160009054906101000a900473ffffffffffffffffffffffffffffffffffffffff1681565b60006111fb8383610a46565b90506000811161120a57600080fd5b600160009054906101000a900473ffffffffffffffffffffffffffffffffffffffff1673ffffffffffffffffffffffffffffffffffffffff166316f19831600260009054906101000a900473ffffffffffffffffffffffffffffffffffffffff168585856040516020018084815260200183815260200182815260200193505050506040516020818303038152906040526040518363ffffffff1660e01b8152600401808373ffffffffffffffffffffffffffffffffffffffff1673ffffffffffffffffffffffffffffffffffffffff16815260200180602001828103825283818151815260200191508051906020019080838360005b8381101561131c578082015181840152602081019050611301565b50505050905090810190601f1680156113495780820380516001836020036101000a031916815260200191505b509350505050600060405180830381600087803b15801561136957600080fd5b505af115801561137d573d6000803e3d6000fd5b50505050505050565b600260009054906101000a900473ffffffffffffffffffffffffffffffffffffffff168156fea265627a7a7231582049852d1ddb42920b0d05384d6d17c23c2c23205db3f9c33c70091f88c98cbaf864736f6c63430005100032",
  "source": "// Sender.sol\n\npragma solidity ^0.5.11;\n\nimport \"./UsingTellor.sol\";\n\ncontract IStateSender {\n  function syncState(address receiver, bytes calldata data) external;\n  function register(address sender, address receiver) public;\n}\n\ncontract Sender is UsingTellor {\n    IStateSender public stateSender;\n    address public receiver;\n\n    constructor(address payable _tellorAddress, address _stateSender, address _receiver) UsingTellor(_tellorAddress) public {\n      stateSender = IStateSender(_stateSender);\n      receiver = _receiver;\n    }\n\n    function retrieveDataAndSend(uint256 _requestId, uint256 _timestamp) public {\n        uint256 value = retrieveData(_requestId, _timestamp);\n        require(value > 0);\n        stateSender.syncState(receiver, abi.encode(_requestId, _timestamp, value));\n    }\n\n    function getCurrentValueAndSend(uint256 _requestId) public {\n      (bool ifRetrieve, uint256 value, uint256 timestamp) = getCurrentValue(_requestId);\n      require(ifRetrieve);\n      stateSender.syncState(receiver, abi.encode(_requestId, timestamp, value));\n    }\n}\n",
  "sourcePath": "/Users/gokulalex/Apps/eth_apps/VerityNet/tellor-circom-proofs/contracts/Sender.sol",
  "compiler": {
    "name": "solc",
    "version": "0.5.16+commit.9c3226ce.Emscripten.clang"
  },
  "schemaVersion": "3.3.1",
  "updatedAt": "2020-10-22T14:20:01.585Z",
  "devdoc": {
    "methods": {
      "getCurrentValue(uint256)": {
        "details": "Allows the user to get the latest value for the requestId specified",
        "params": {
          "_requestId": "is the requestId to look up the value for"
        },
        "return": "bool true if it is able to retreive a value, the value, and the value's timestamp"
      },
      "getDataBefore(uint256,uint256)": {
        "details": "Allows the user to get the first value for the requestId before the specified timestamp",
        "params": {
          "_requestId": "is the requestId to look up the value for",
          "_timestamp": "before which to search for first verified value"
        },
        "return": "bool true if it is able to retreive a value, the value, and the value's timestamp"
      },
      "getNewValueCountbyRequestId(uint256)": {
        "details": "Counts the number of values that have been submited for the request",
        "params": {
          "_requestId": "the requestId to look up"
        },
        "return": "uint count of the number of values received for the requestId"
      },
      "getTimestampbyRequestIDandIndex(uint256,uint256)": {
        "details": "Gets the timestamp for the value based on their index",
        "params": {
          "_index": "is the value index to look up",
          "_requestId": "is the requestId to look up"
        },
        "return": "uint timestamp"
      },
      "isInDispute(uint256,uint256)": {
        "details": "Gets the 5 miners who mined the value for the specified requestId/_timestamp",
        "params": {
          "_requestId": "to looku p",
          "_timestamp": "is the timestamp to look up miners for"
        },
        "return": "bool true if requestId/timestamp is under dispute"
      },
      "retrieveData(uint256,uint256)": {
        "details": "Retreive value from oracle based on requestId/timestamp",
        "params": {
          "_requestId": "being requested",
          "_timestamp": "to retreive data/value from"
        },
        "return": "uint value for requestId/timestamp submitted"
      }
    }
  },
  "userdoc": {
    "methods": {}
  }
}