{
  "contractName": "UsingTellor",
  "abi": [
    {
      "inputs": [
        {
          "internalType": "address payable",
          "name": "_tellor",
          "type": "address"
        }
      ],
      "payable": false,
      "stateMutability": "nonpayable",
      "type": "constructor"
    },
    {
      "constant": true,
      "inputs": [
        {
          "internalType": "uint256",
          "name": "_requestId",
          "type": "uint256"
        },
        {
          "internalType": "uint256",
          "name": "_timestamp",
          "type": "uint256"
        }
      ],
      "name": "retrieveData",
      "outputs": [
        {
          "internalType": "uint256",
          "name": "",
          "type": "uint256"
        }
      ],
      "payable": false,
      "stateMutability": "view",
      "type": "function"
    },
    {
      "constant": true,
      "inputs": [
        {
          "internalType": "uint256",
          "name": "_requestId",
          "type": "uint256"
        },
        {
          "internalType": "uint256",
          "name": "_timestamp",
          "type": "uint256"
        }
      ],
      "name": "isInDispute",
      "outputs": [
        {
          "internalType": "bool",
          "name": "",
          "type": "bool"
        }
      ],
      "payable": false,
      "stateMutability": "view",
      "type": "function"
    },
    {
      "constant": true,
      "inputs": [
        {
          "internalType": "uint256",
          "name": "_requestId",
          "type": "uint256"
        }
      ],
      "name": "getNewValueCountbyRequestId",
      "outputs": [
        {
          "internalType": "uint256",
          "name": "",
          "type": "uint256"
        }
      ],
      "payable": false,
      "stateMutability": "view",
      "type": "function"
    },
    {
      "constant": true,
      "inputs": [
        {
          "internalType": "uint256",
          "name": "_requestId",
          "type": "uint256"
        },
        {
          "internalType": "uint256",
          "name": "_index",
          "type": "uint256"
        }
      ],
      "name": "getTimestampbyRequestIDandIndex",
      "outputs": [
        {
          "internalType": "uint256",
          "name": "",
          "type": "uint256"
        }
      ],
      "payable": false,
      "stateMutability": "view",
      "type": "function"
    },
    {
      "constant": true,
      "inputs": [
        {
          "internalType": "uint256",
          "name": "_requestId",
          "type": "uint256"
        }
      ],
      "name": "getCurrentValue",
      "outputs": [
        {
          "internalType": "bool",
          "name": "ifRetrieve",
          "type": "bool"
        },
        {
          "internalType": "uint256",
          "name": "value",
          "type": "uint256"
        },
        {
          "internalType": "uint256",
          "name": "_timestampRetrieved",
          "type": "uint256"
        }
      ],
      "payable": false,
      "stateMutability": "view",
      "type": "function"
    },
    {
      "constant": true,
      "inputs": [
        {
          "internalType": "uint256",
          "name": "_requestId",
          "type": "uint256"
        },
        {
          "internalType": "uint256",
          "name": "_timestamp",
          "type": "uint256"
        }
      ],
      "name": "getIndexForDataBefore",
      "outputs": [
        {
          "internalType": "bool",
          "name": "found",
          "type": "bool"
        },
        {
          "internalType": "uint256",
          "name": "index",
          "type": "uint256"
        }
      ],
      "payable": false,
      "stateMutability": "view",
      "type": "function"
    },
    {
      "constant": false,
      "inputs": [
        {
          "internalType": "uint256",
          "name": "_requestId",
          "type": "uint256"
        },
        {
          "internalType": "uint256",
          "name": "_timestamp",
          "type": "uint256"
        }
      ],
      "name": "getDataBefore",
      "outputs": [
        {
          "internalType": "bool",
          "name": "_ifRetrieve",
          "type": "bool"
        },
        {
          "internalType": "uint256",
          "name": "_value",
          "type": "uint256"
        },
        {
          "internalType": "uint256",
          "name": "_timestampRetrieved",
          "type": "uint256"
        }
      ],
      "payable": false,
      "stateMutability": "nonpayable",
      "type": "function"
    }
  ],
  "bytecode": "0x608060405234801561001057600080fd5b50604051610fd1380380610fd18339818101604052602081101561003357600080fd5b8101908080519060200190929190505050806000806101000a81548173ffffffffffffffffffffffffffffffffffffffff021916908373ffffffffffffffffffffffffffffffffffffffff16021790555050610f3d806100946000396000f3fe608060405234801561001057600080fd5b506004361061007d5760003560e01c806366b446111161005b57806366b446111461016857806377fbb663146101c657806393fa491514610212578063b73e49791461025e5761007d565b80633df0777b146100825780633fcad964146100d257806346eee1c414610126575b600080fd5b6100b86004803603604081101561009857600080fd5b8101908080359060200190929190803590602001909291905050506102b5565b604051808215151515815260200191505060405180910390f35b6100fe600480360360208110156100e857600080fd5b8101908080359060200190929190505050610374565b6040518084151515158152602001838152602001828152602001935050505060405180910390f35b6101526004803603602081101561013c57600080fd5b81019080803590602001909291905050506105d1565b6040518082815260200191505060405180910390f35b61019e6004803603604081101561017e57600080fd5b810190808035906020019092919080359060200190929190505050610687565b6040518084151515158152602001838152602001828152602001935050505060405180910390f35b6101fc600480360360408110156101dc57600080fd5b810190808035906020019092919080359060200190929190505050610861565b6040518082815260200191505060405180910390f35b6102486004803603604081101561022857600080fd5b810190808035906020019092919080359060200190929190505050610920565b6040518082815260200191505060405180910390f35b6102946004803603604081101561027457600080fd5b8101908080359060200190929190803590602001909291905050506109df565b60405180831515151581526020018281526020019250505060405180910390f35b60008060009054906101000a900473ffffffffffffffffffffffffffffffffffffffff1673ffffffffffffffffffffffffffffffffffffffff16633df0777b84846040518363ffffffff1660e01b8152600401808381526020018281526020019250505060206040518083038186803b15801561033157600080fd5b505afa158015610345573d6000803e3d6000fd5b505050506040513d602081101561035b57600080fd5b8101908080519060200190929190505050905092915050565b6000806000806000809054906101000a900473ffffffffffffffffffffffffffffffffffffffff1673ffffffffffffffffffffffffffffffffffffffff166346eee1c4866040518263ffffffff1660e01b81526004018082815260200191505060206040518083038186803b1580156103ec57600080fd5b505afa158015610400573d6000803e3d6000fd5b505050506040513d602081101561041657600080fd5b8101908080519060200190929190505050905060008060009054906101000a900473ffffffffffffffffffffffffffffffffffffffff1673ffffffffffffffffffffffffffffffffffffffff166377fbb66387600185036040518363ffffffff1660e01b8152600401808381526020018281526020019250505060206040518083038186803b1580156104a857600080fd5b505afa1580156104bc573d6000803e3d6000fd5b505050506040513d60208110156104d257600080fd5b8101908080519060200190929190505050905060008060009054906101000a900473ffffffffffffffffffffffffffffffffffffffff1673ffffffffffffffffffffffffffffffffffffffff166393fa491588846040518363ffffffff1660e01b8152600401808381526020018281526020019250505060206040518083038186803b15801561056157600080fd5b505afa158015610575573d6000803e3d6000fd5b505050506040513d602081101561058b57600080fd5b8101908080519060200190929190505050905060008111156105b957600181839550955095505050506105ca565b600080838191509550955095505050505b9193909250565b60008060009054906101000a900473ffffffffffffffffffffffffffffffffffffffff1673ffffffffffffffffffffffffffffffffffffffff166346eee1c4836040518263ffffffff1660e01b81526004018082815260200191505060206040518083038186803b15801561064557600080fd5b505afa158015610659573d6000803e3d6000fd5b505050506040513d602081101561066f57600080fd5b81019080805190602001909291905050509050919050565b600080600080600061069987876109df565b91509150816106ba576000806000819150809050945094509450505061085a565b60008060009054906101000a900473ffffffffffffffffffffffffffffffffffffffff1673ffffffffffffffffffffffffffffffffffffffff166377fbb66389846040518363ffffffff1660e01b8152600401808381526020018281526020019250505060206040518083038186803b15801561073657600080fd5b505afa15801561074a573d6000803e3d6000fd5b505050506040513d602081101561076057600080fd5b810190808051906020019092919050505090506000809054906101000a900473ffffffffffffffffffffffffffffffffffffffff1673ffffffffffffffffffffffffffffffffffffffff166393fa491589836040518363ffffffff1660e01b8152600401808381526020018281526020019250505060206040518083038186803b1580156107ed57600080fd5b505afa158015610801573d6000803e3d6000fd5b505050506040513d602081101561081757600080fd5b810190808051906020019092919050505094506000851115610845576001858295509550955050505061085a565b60008060008191508090509550955095505050505b9250925092565b60008060009054906101000a900473ffffffffffffffffffffffffffffffffffffffff1673ffffffffffffffffffffffffffffffffffffffff166377fbb66384846040518363ffffffff1660e01b8152600401808381526020018281526020019250505060206040518083038186803b1580156108dd57600080fd5b505afa1580156108f1573d6000803e3d6000fd5b505050506040513d602081101561090757600080fd5b8101908080519060200190929190505050905092915050565b60008060009054906101000a900473ffffffffffffffffffffffffffffffffffffffff1673ffffffffffffffffffffffffffffffffffffffff166393fa491584846040518363ffffffff1660e01b8152600401808381526020018281526020019250505060206040518083038186803b15801561099c57600080fd5b505afa1580156109b0573d6000803e3d6000fd5b505050506040513d60208110156109c657600080fd5b8101908080519060200190929190505050905092915050565b60008060008060009054906101000a900473ffffffffffffffffffffffffffffffffffffffff1673ffffffffffffffffffffffffffffffffffffffff166346eee1c4866040518263ffffffff1660e01b81526004018082815260200191505060206040518083038186803b158015610a5657600080fd5b505afa158015610a6a573d6000803e3d6000fd5b505050506040513d6020811015610a8057600080fd5b810190808051906020019092919050505090506000811115610ef55760008060009050600060018403905060008060009054906101000a900473ffffffffffffffffffffffffffffffffffffffff1673ffffffffffffffffffffffffffffffffffffffff166377fbb6638a856040518363ffffffff1660e01b8152600401808381526020018281526020019250505060206040518083038186803b158015610b2757600080fd5b505afa158015610b3b573d6000803e3d6000fd5b505050506040513d6020811015610b5157600080fd5b81019080805190602001909291905050509050878110610b7f57600080809050965096505050505050610f01565b6000809054906101000a900473ffffffffffffffffffffffffffffffffffffffff1673ffffffffffffffffffffffffffffffffffffffff166377fbb6638a846040518363ffffffff1660e01b8152600401808381526020018281526020019250505060206040518083038186803b158015610bf957600080fd5b505afa158015610c0d573d6000803e3d6000fd5b505050506040513d6020811015610c2357600080fd5b8101908080519060200190929190505050905087811015610c4f57600182965096505050505050610f01565b5b600115610ef057826001600285850381610c6657fe5b04010193506000809054906101000a900473ffffffffffffffffffffffffffffffffffffffff1673ffffffffffffffffffffffffffffffffffffffff166377fbb6638a866040518363ffffffff1660e01b8152600401808381526020018281526020019250505060206040518083038186803b158015610ce557600080fd5b505afa158015610cf9573d6000803e3d6000fd5b505050506040513d6020811015610d0f57600080fd5b8101908080519060200190929190505050905087811015610e0b5760008060009054906101000a900473ffffffffffffffffffffffffffffffffffffffff1673ffffffffffffffffffffffffffffffffffffffff166377fbb6638b600188016040518363ffffffff1660e01b8152600401808381526020018281526020019250505060206040518083038186803b158015610da957600080fd5b505afa158015610dbd573d6000803e3d6000fd5b505050506040513d6020811015610dd357600080fd5b81019080805190602001909291905050509050888110610dff5760018597509750505050505050610f01565b60018501935050610eeb565b60008060009054906101000a900473ffffffffffffffffffffffffffffffffffffffff1673ffffffffffffffffffffffffffffffffffffffff166377fbb6638b600188036040518363ffffffff1660e01b8152600401808381526020018281526020019250505060206040518083038186803b158015610e8a57600080fd5b505afa158015610e9e573d6000803e3d6000fd5b505050506040513d6020811015610eb457600080fd5b8101908080519060200190929190505050905088811015610ee357600180860397509750505050505050610f01565b600185039250505b610c50565b505050505b60008080905092509250505b925092905056fea265627a7a723158201a1a7f4c0ef8cfa08bf11e681cee2f1e818cb402abe665102c5bec175afb442b64736f6c63430005100032",
  "source": "pragma solidity 0.5.16;\n\nimport \"./MockTellor.sol\";\n\n/**\n* @title UserContract\n* This contracts creates for easy integration to the Tellor System\n* by allowing smart contracts to read data off Tellor\n*/\ncontract UsingTellor{\n    MockTellor tellor;\n    /*Constructor*/\n    /**\n    * @dev the constructor sets the storage address and owner\n    * @param _tellor is the TellorMaster address\n    */\n    constructor(address payable _tellor) public {\n        tellor = MockTellor(_tellor);\n    }\n\n     /**\n    * @dev Retreive value from oracle based on requestId/timestamp\n    * @param _requestId being requested\n    * @param _timestamp to retreive data/value from\n    * @return uint value for requestId/timestamp submitted\n    */\n    function retrieveData(uint256 _requestId, uint256 _timestamp) public view returns(uint256){\n        return tellor.retrieveData(_requestId,_timestamp);\n    }\n\n    /**\n    * @dev Gets the 5 miners who mined the value for the specified requestId/_timestamp\n    * @param _requestId to looku p\n    * @param _timestamp is the timestamp to look up miners for\n    * @return bool true if requestId/timestamp is under dispute\n    */\n    function isInDispute(uint256 _requestId, uint256 _timestamp) public view returns(bool){\n        return tellor.isInDispute(_requestId, _timestamp);\n    }\n\n    /**\n    * @dev Counts the number of values that have been submited for the request\n    * @param _requestId the requestId to look up\n    * @return uint count of the number of values received for the requestId\n    */\n    function getNewValueCountbyRequestId(uint256 _requestId) public view returns(uint) {\n        return tellor.getNewValueCountbyRequestId(_requestId);\n    }\n\n    /**\n    * @dev Gets the timestamp for the value based on their index\n    * @param _requestId is the requestId to look up\n    * @param _index is the value index to look up\n    * @return uint timestamp\n    */\n    function getTimestampbyRequestIDandIndex(uint256 _requestId, uint256 _index) public view returns(uint256) {\n        return tellor.getTimestampbyRequestIDandIndex( _requestId,_index);\n    }\n\n    /**\n    * @dev Allows the user to get the latest value for the requestId specified\n    * @param _requestId is the requestId to look up the value for\n    * @return bool true if it is able to retreive a value, the value, and the value's timestamp\n    */\n    function getCurrentValue(uint256 _requestId) public view returns (bool ifRetrieve, uint256 value, uint256 _timestampRetrieved) {\n        uint256 _count = tellor.getNewValueCountbyRequestId(_requestId);\n        uint _time = tellor.getTimestampbyRequestIDandIndex(_requestId, _count - 1);\n        uint _value = tellor.retrieveData(_requestId, _time);\n        if(_value > 0) return (true, _value, _time);\n        return (false, 0 , _time);\n    }\n\n    function getIndexForDataBefore(uint _requestId, uint256 _timestamp) public view returns (bool found, uint256 index){\n        uint256 _count = tellor.getNewValueCountbyRequestId(_requestId);\n        if (_count > 0) {\n            uint middle;\n            uint start = 0;\n            uint end = _count - 1;\n            uint _time;\n\n            //Checking Boundaries to short-circuit the algorithm\n            _time = tellor.getTimestampbyRequestIDandIndex(_requestId, start);\n            if(_time >= _timestamp) return (false, 0);\n            _time = tellor.getTimestampbyRequestIDandIndex(_requestId, end);\n            if(_time < _timestamp) return (true, end);\n\n            //Since the value is within our boundaries, do a binary search\n            while(true) {\n                middle = (end - start) / 2 + 1 + start;\n                _time = tellor.getTimestampbyRequestIDandIndex(_requestId, middle);\n                if(_time < _timestamp){\n                    //get imeadiate next value\n                    uint _nextTime = tellor.getTimestampbyRequestIDandIndex(_requestId, middle + 1);\n                    if(_nextTime >= _timestamp){\n                        //_time is correct\n                        return (true, middle);\n                    } else  {\n                        //look from middle + 1(next value) to end\n                        start = middle + 1;\n                    }\n                } else {\n                    uint _prevTime = tellor.getTimestampbyRequestIDandIndex(_requestId, middle - 1);\n                    if(_prevTime < _timestamp){\n                        // _prevtime is correct\n                        return(true, middle - 1);\n                    } else {\n                        //look from start to middle -1(prev value)\n                        end = middle -1;\n                    }\n                }\n                //We couldn't found a value\n                //if(middle - 1 == start || middle == _count) return (false, 0);\n            }\n        }\n        return (false, 0);\n    }\n\n\n    /**\n    * @dev Allows the user to get the first value for the requestId before the specified timestamp\n    * @param _requestId is the requestId to look up the value for\n    * @param _timestamp before which to search for first verified value\n    * @return bool true if it is able to retreive a value, the value, and the value's timestamp\n    */\n    function getDataBefore(uint256 _requestId, uint256 _timestamp)\n        public\n        returns (bool _ifRetrieve, uint256 _value, uint256 _timestampRetrieved)\n    {\n\n        (bool _found, uint _index) = getIndexForDataBefore(_requestId,_timestamp);\n        if(!_found) return (false, 0, 0);\n        uint256 _time = tellor.getTimestampbyRequestIDandIndex(_requestId, _index);\n        _value = tellor.retrieveData(_requestId, _time);\n        //If value is diputed it'll return zero\n        if (_value > 0) return (true, _value, _time);\n        return (false, 0, 0);\n    }\n}\n",
  "sourcePath": "/Users/gokulalex/Apps/eth_apps/VerityNet/tellor-circom-proofs/contracts/UsingTellor.sol",
  "compiler": {
    "name": "solc",
    "version": "0.5.16+commit.9c3226ce.Emscripten.clang"
  },
  "schemaVersion": "3.3.1",
  "updatedAt": "2020-10-22T14:20:01.587Z",
  "devdoc": {
    "methods": {
      "constructor": {
        "details": "the constructor sets the storage address and owner",
        "params": {
          "_tellor": "is the TellorMaster address"
        }
      },
      "getCurrentValue(uint256)": {
        "details": "Allows the user to get the latest value for the requestId specified",
        "params": {
          "_requestId": "is the requestId to look up the value for"
        },
        "return": "bool true if it is able to retreive a value, the value, and the value's timestamp"
      },
      "getDataBefore(uint256,uint256)": {
        "details": "Allows the user to get the first value for the requestId before the specified timestamp",
        "params": {
          "_requestId": "is the requestId to look up the value for",
          "_timestamp": "before which to search for first verified value"
        },
        "return": "bool true if it is able to retreive a value, the value, and the value's timestamp"
      },
      "getNewValueCountbyRequestId(uint256)": {
        "details": "Counts the number of values that have been submited for the request",
        "params": {
          "_requestId": "the requestId to look up"
        },
        "return": "uint count of the number of values received for the requestId"
      },
      "getTimestampbyRequestIDandIndex(uint256,uint256)": {
        "details": "Gets the timestamp for the value based on their index",
        "params": {
          "_index": "is the value index to look up",
          "_requestId": "is the requestId to look up"
        },
        "return": "uint timestamp"
      },
      "isInDispute(uint256,uint256)": {
        "details": "Gets the 5 miners who mined the value for the specified requestId/_timestamp",
        "params": {
          "_requestId": "to looku p",
          "_timestamp": "is the timestamp to look up miners for"
        },
        "return": "bool true if requestId/timestamp is under dispute"
      },
      "retrieveData(uint256,uint256)": {
        "details": "Retreive value from oracle based on requestId/timestamp",
        "params": {
          "_requestId": "being requested",
          "_timestamp": "to retreive data/value from"
        },
        "return": "uint value for requestId/timestamp submitted"
      }
    },
    "title": "UserContract This contracts creates for easy integration to the Tellor System by allowing smart contracts to read data off Tellor"
  },
  "userdoc": {
    "methods": {}
  }
}