{
  "contractName": "MerkleTree",
  "abi": [
    {
      "constant": false,
      "inputs": [
        {
          "internalType": "address",
          "name": "user",
          "type": "address"
        }
      ],
      "name": "whitelistAddress",
      "outputs": [],
      "payable": false,
      "stateMutability": "nonpayable",
      "type": "function"
    },
    {
      "constant": false,
      "inputs": [],
      "name": "renounceOwnership",
      "outputs": [],
      "payable": false,
      "stateMutability": "nonpayable",
      "type": "function"
    },
    {
      "constant": true,
      "inputs": [],
      "name": "owner",
      "outputs": [
        {
          "internalType": "address",
          "name": "",
          "type": "address"
        }
      ],
      "payable": false,
      "stateMutability": "view",
      "type": "function"
    },
    {
      "constant": false,
      "inputs": [
        {
          "internalType": "address",
          "name": "user",
          "type": "address"
        }
      ],
      "name": "unWhitelistAddress",
      "outputs": [],
      "payable": false,
      "stateMutability": "nonpayable",
      "type": "function"
    },
    {
      "constant": false,
      "inputs": [
        {
          "internalType": "address",
          "name": "newOwner",
          "type": "address"
        }
      ],
      "name": "transferOwnership",
      "outputs": [],
      "payable": false,
      "stateMutability": "nonpayable",
      "type": "function"
    },
    {
      "inputs": [
        {
          "internalType": "uint256",
          "name": "_depth",
          "type": "uint256"
        },
        {
          "internalType": "uint256",
          "name": "_zeroValue",
          "type": "uint256"
        },
        {
          "internalType": "address",
          "name": "hasherAddress",
          "type": "address"
        }
      ],
      "payable": false,
      "stateMutability": "nonpayable",
      "type": "constructor"
    },
    {
      "anonymous": false,
      "inputs": [
        {
          "indexed": false,
          "internalType": "uint256",
          "name": "leaf",
          "type": "uint256"
        },
        {
          "indexed": false,
          "internalType": "uint256",
          "name": "leafIndex",
          "type": "uint256"
        }
      ],
      "name": "LeafAdded",
      "type": "event"
    },
    {
      "anonymous": false,
      "inputs": [
        {
          "indexed": false,
          "internalType": "uint256",
          "name": "leaf",
          "type": "uint256"
        },
        {
          "indexed": false,
          "internalType": "uint256",
          "name": "leafIndex",
          "type": "uint256"
        }
      ],
      "name": "LeafUpdated",
      "type": "event"
    },
    {
      "anonymous": false,
      "inputs": [
        {
          "indexed": true,
          "internalType": "address",
          "name": "previousOwner",
          "type": "address"
        },
        {
          "indexed": true,
          "internalType": "address",
          "name": "newOwner",
          "type": "address"
        }
      ],
      "name": "OwnershipTransferred",
      "type": "event"
    },
    {
      "constant": false,
      "inputs": [
        {
          "internalType": "uint256",
          "name": "leaf",
          "type": "uint256"
        }
      ],
      "name": "insert",
      "outputs": [],
      "payable": false,
      "stateMutability": "nonpayable",
      "type": "function"
    },
    {
      "constant": false,
      "inputs": [
        {
          "internalType": "uint256",
          "name": "leafIndex",
          "type": "uint256"
        },
        {
          "internalType": "uint256",
          "name": "leaf",
          "type": "uint256"
        }
      ],
      "name": "update",
      "outputs": [],
      "payable": false,
      "stateMutability": "nonpayable",
      "type": "function"
    },
    {
      "constant": true,
      "inputs": [
        {
          "internalType": "uint256",
          "name": "left",
          "type": "uint256"
        },
        {
          "internalType": "uint256",
          "name": "right",
          "type": "uint256"
        }
      ],
      "name": "hashLeftRight",
      "outputs": [
        {
          "internalType": "uint256",
          "name": "",
          "type": "uint256"
        }
      ],
      "payable": false,
      "stateMutability": "view",
      "type": "function"
    },
    {
      "constant": true,
      "inputs": [],
      "name": "getRoot",
      "outputs": [
        {
          "internalType": "uint256",
          "name": "",
          "type": "uint256"
        }
      ],
      "payable": false,
      "stateMutability": "view",
      "type": "function"
    },
    {
      "constant": true,
      "inputs": [],
      "name": "getDepth",
      "outputs": [
        {
          "internalType": "uint256",
          "name": "",
          "type": "uint256"
        }
      ],
      "payable": false,
      "stateMutability": "view",
      "type": "function"
    },
    {
      "constant": true,
      "inputs": [
        {
          "internalType": "uint256",
          "name": "leafIndex",
          "type": "uint256"
        }
      ],
      "name": "getLeafAt",
      "outputs": [
        {
          "internalType": "uint256",
          "name": "",
          "type": "uint256"
        }
      ],
      "payable": false,
      "stateMutability": "view",
      "type": "function"
    },
    {
      "constant": true,
      "inputs": [],
      "name": "getInsertedLeavesNo",
      "outputs": [
        {
          "internalType": "uint256",
          "name": "",
          "type": "uint256"
        }
      ],
      "payable": false,
      "stateMutability": "view",
      "type": "function"
    }
  ],
  "bytecode": "0x60806040523480156200001157600080fd5b506040516200198338038062001983833981810160405260608110156200003757600080fd5b8101908080519060200190929190805190602001909291908051906020019092919050505060006200006e6200046760201b60201c565b9050806000806101000a81548173ffffffffffffffffffffffffffffffffffffffff021916908373ffffffffffffffffffffffffffffffffffffffff1602179055508073ffffffffffffffffffffffffffffffffffffffff16600073ffffffffffffffffffffffffffffffffffffffff167f8be0079c531659141344cd1fd0a4f28419497f9722a3daafe3b4186f6b6457e060405160405180910390a35080600260006101000a81548173ffffffffffffffffffffffffffffffffffffffff021916908373ffffffffffffffffffffffffffffffffffffffff160217905550826003819055506001830360020a600781905550600a8290806001815401808255809150509060018203906000526020600020016000909192909190915055506008600a6000815481106200019e57fe5b906000526020600020015490806001815401808255809150509060018203906000526020600020016000909192909190915055506000600190505b6003548160ff1610156200035c57600a600260009054906101000a900473ffffffffffffffffffffffffffffffffffffffff1673ffffffffffffffffffffffffffffffffffffffff166366d82b2b600a6001850360ff16815481106200023b57fe5b9060005260206000200154600a6001860360ff16815481106200025a57fe5b90600052602060002001546040518363ffffffff1660e01b8152600401808381526020018281526020019250505060206040518083038186803b158015620002a157600080fd5b505afa158015620002b6573d6000803e3d6000fd5b505050506040513d6020811015620002cd57600080fd5b810190808051906020019092919050505090806001815401808255809150509060018203906000526020600020016000909192909190915055506008600a8260ff16815481106200031a57fe5b906000526020600020015490806001815401808255809150509060018203906000526020600020016000909192909190915055508080600101915050620001d9565b50600260009054906101000a900473ffffffffffffffffffffffffffffffffffffffff1673ffffffffffffffffffffffffffffffffffffffff166366d82b2b600a60016003540381548110620003ae57fe5b9060005260206000200154600a60016003540381548110620003cc57fe5b90600052602060002001546040518363ffffffff1660e01b8152600401808381526020018281526020019250505060206040518083038186803b1580156200041357600080fd5b505afa15801562000428573d6000803e3d6000fd5b505050506040513d60208110156200043f57600080fd5b810190808051906020019092919050505060048190555060006006819055505050506200046f565b600033905090565b611504806200047f6000396000f3fe608060405234801561001057600080fd5b50600436106100b45760003560e01c80638da5cb5b116100715780638da5cb5b146101c757806390b5561d14610211578063af41b8711461023f578063cac9ffee1461025d578063d78f71fa146102a1578063f2fde38b146102e3576100b4565b80632fb565e8146100b9578063367506ef146100f1578063415665851461010f5780635bb93995146101535780635ca1e1651461019f578063715018a6146101bd575b600080fd5b6100ef600480360360408110156100cf57600080fd5b810190808035906020019092919080359060200190929190505050610327565b005b6100f9610942565b6040518082815260200191505060405180910390f35b6101516004803603602081101561012557600080fd5b81019080803573ffffffffffffffffffffffffffffffffffffffff16906020019092919050505061094c565b005b6101896004803603604081101561016957600080fd5b810190808035906020019092919080359060200190929190505050610a6f565b6040518082815260200191505060405180910390f35b6101a7610b2f565b6040518082815260200191505060405180910390f35b6101c5610b39565b005b6101cf610cc1565b604051808273ffffffffffffffffffffffffffffffffffffffff1673ffffffffffffffffffffffffffffffffffffffff16815260200191505060405180910390f35b61023d6004803603602081101561022757600080fd5b8101908080359060200190929190505050610cea565b005b6102476110ba565b6040518082815260200191505060405180910390f35b61029f6004803603602081101561027357600080fd5b81019080803573ffffffffffffffffffffffffffffffffffffffff1690602001909291905050506110c4565b005b6102cd600480360360208110156102b757600080fd5b81019080803590602001909291905050506111e8565b6040518082815260200191505060405180910390f35b610325600480360360208110156102f957600080fd5b81019080803573ffffffffffffffffffffffffffffffffffffffff169060200190929190505050611209565b005b600160003373ffffffffffffffffffffffffffffffffffffffff1673ffffffffffffffffffffffffffffffffffffffff16815260200190815260200160002060009054906101000a900460ff166103c9576040517f08c379a00000000000000000000000000000000000000000000000000000000081526004018080602001828103825260298152602001806114456029913960400191505060405180910390fd5b6006548210610423576040517f08c379a000000000000000000000000000000000000000000000000000000000815260040180806020018281038252602f8152602001806114a1602f913960400191505060405180910390fd5b6000829050606060035460405190808252806020026020018201604052801561045b5781602001602082028038833980820191505090505b50905060008090505b6003548160ff1610156105305760006002848161047d57fe5b0614156104cf57600960008260ff168152602001908152602001600020600060018501815260200190815260200160002054828260ff16815181106104be57fe5b602002602001018181525050610516565b600960008260ff168152602001908152602001600020600060018503815260200190815260200160002054828260ff168151811061050957fe5b6020026020010181815250505b6002838161052057fe5b0492508080600101915050610464565b5060006005858154811061054057fe5b9060005260206000200154905060008086945060008090505b6003548160ff1610156106895760006002878161057257fe5b06141561059a57839250848160ff168151811061058b57fe5b602002602001015191506105b7565b848160ff16815181106105a957fe5b602002602001015192508391505b600260009054906101000a900473ffffffffffffffffffffffffffffffffffffffff1673ffffffffffffffffffffffffffffffffffffffff166366d82b2b84846040518363ffffffff1660e01b8152600401808381526020018281526020019250505060206040518083038186803b15801561063257600080fd5b505afa158015610646573d6000803e3d6000fd5b505050506040513d602081101561065c57600080fd5b810190808051906020019092919050505093506002868161067957fe5b0495508080600101915050610559565b5082600454146106e4576040517f08c379a000000000000000000000000000000000000000000000000000000000815260040180806020018281038252603381526020018061146e6033913960400191505060405180910390fd5b86945085925060008090505b6003548160ff1610156108d65760006002878161070957fe5b06141561078c57839250848160ff168151811061072257fe5b6020026020010151915082600960008360ff16815260200190815260200160002060008881526020019081526020016000208190555081600960008360ff168152602001908152602001600020600060018901815260200190815260200160002081905550610804565b848160ff168151811061079b57fe5b6020026020010151925083915082600960008360ff16815260200190815260200160002060006001890381526020019081526020016000208190555081600960008360ff1681526020019081526020016000206000888152602001908152602001600020819055505b600260009054906101000a900473ffffffffffffffffffffffffffffffffffffffff1673ffffffffffffffffffffffffffffffffffffffff166366d82b2b84846040518363ffffffff1660e01b8152600401808381526020018281526020019250505060206040518083038186803b15801561087f57600080fd5b505afa158015610893573d6000803e3d6000fd5b505050506040513d60208110156108a957600080fd5b81019080805190602001909291905050509350600286816108c657fe5b04955080806001019150506106f0565b508260048190555085600588815481106108ec57fe5b90600052602060002001819055507f5983a314e5149c32e4931f98348011a8eaa8d5546981ce338f790050fad852698688604051808381526020018281526020019250505060405180910390a150505050505050565b6000600354905090565b610954611416565b73ffffffffffffffffffffffffffffffffffffffff166000809054906101000a900473ffffffffffffffffffffffffffffffffffffffff1673ffffffffffffffffffffffffffffffffffffffff1614610a15576040517f08c379a00000000000000000000000000000000000000000000000000000000081526004018080602001828103825260208152602001807f4f776e61626c653a2063616c6c6572206973206e6f7420746865206f776e657281525060200191505060405180910390fd5b60018060008373ffffffffffffffffffffffffffffffffffffffff1673ffffffffffffffffffffffffffffffffffffffff16815260200190815260200160002060006101000a81548160ff02191690831515021790555050565b6000600260009054906101000a900473ffffffffffffffffffffffffffffffffffffffff1673ffffffffffffffffffffffffffffffffffffffff166366d82b2b84846040518363ffffffff1660e01b8152600401808381526020018281526020019250505060206040518083038186803b158015610aec57600080fd5b505afa158015610b00573d6000803e3d6000fd5b505050506040513d6020811015610b1657600080fd5b8101908080519060200190929190505050905092915050565b6000600454905090565b610b41611416565b73ffffffffffffffffffffffffffffffffffffffff166000809054906101000a900473ffffffffffffffffffffffffffffffffffffffff1673ffffffffffffffffffffffffffffffffffffffff1614610c02576040517f08c379a00000000000000000000000000000000000000000000000000000000081526004018080602001828103825260208152602001807f4f776e61626c653a2063616c6c6572206973206e6f7420746865206f776e657281525060200191505060405180910390fd5b600073ffffffffffffffffffffffffffffffffffffffff166000809054906101000a900473ffffffffffffffffffffffffffffffffffffffff1673ffffffffffffffffffffffffffffffffffffffff167f8be0079c531659141344cd1fd0a4f28419497f9722a3daafe3b4186f6b6457e060405160405180910390a360008060006101000a81548173ffffffffffffffffffffffffffffffffffffffff021916908373ffffffffffffffffffffffffffffffffffffffff160217905550565b60008060009054906101000a900473ffffffffffffffffffffffffffffffffffffffff16905090565b600160003373ffffffffffffffffffffffffffffffffffffffff1673ffffffffffffffffffffffffffffffffffffffff16815260200190815260200160002060009054906101000a900460ff16610d8c576040517f08c379a00000000000000000000000000000000000000000000000000000000081526004018080602001828103825260298152602001806114456029913960400191505060405180910390fd5b60075460065410610e05576040517f08c379a000000000000000000000000000000000000000000000000000000000815260040180806020018281038252601b8152602001807f4d65726b6c652054726565206174206d6178206361706163697479000000000081525060200191505060405180910390fd5b60006006549050600060065490506001600660008282540192505081905550600083905060008060008090505b6003548160ff16101561103f57600060028681610e4b57fe5b061415610ef157839250600a8160ff1681548110610e6557fe5b906000526020600020015491508360088260ff1681548110610e8357fe5b906000526020600020018190555082600960008360ff16815260200190815260200160002060008781526020019081526020016000208190555081600960008360ff168152602001908152602001600020600060018801815260200190815260200160002081905550610f6d565b60088160ff1681548110610f0157fe5b9060005260206000200154925083915082600960008360ff16815260200190815260200160002060006001880381526020019081526020016000208190555081600960008360ff1681526020019081526020016000206000878152602001908152602001600020819055505b600260009054906101000a900473ffffffffffffffffffffffffffffffffffffffff1673ffffffffffffffffffffffffffffffffffffffff166366d82b2b84846040518363ffffffff1660e01b8152600401808381526020018281526020019250505060206040518083038186803b158015610fe857600080fd5b505afa158015610ffc573d6000803e3d6000fd5b505050506040513d602081101561101257600080fd5b810190808051906020019092919050505093506002858161102f57fe5b0494508080600101915050610e32565b508260048190555060058690806001815401808255809150509060018203906000526020600020016000909192909190915055507f039fe56c88c7423b368b110113d8483a6b9ee8fc3d8155d1ea6266f8ed3ef1958686604051808381526020018281526020019250505060405180910390a1505050505050565b6000600654905090565b6110cc611416565b73ffffffffffffffffffffffffffffffffffffffff166000809054906101000a900473ffffffffffffffffffffffffffffffffffffffff1673ffffffffffffffffffffffffffffffffffffffff161461118d576040517f08c379a00000000000000000000000000000000000000000000000000000000081526004018080602001828103825260208152602001807f4f776e61626c653a2063616c6c6572206973206e6f7420746865206f776e657281525060200191505060405180910390fd5b6000600160008373ffffffffffffffffffffffffffffffffffffffff1673ffffffffffffffffffffffffffffffffffffffff16815260200190815260200160002060006101000a81548160ff02191690831515021790555050565b6000600582815481106111f757fe5b90600052602060002001549050919050565b611211611416565b73ffffffffffffffffffffffffffffffffffffffff166000809054906101000a900473ffffffffffffffffffffffffffffffffffffffff1673ffffffffffffffffffffffffffffffffffffffff16146112d2576040517f08c379a00000000000000000000000000000000000000000000000000000000081526004018080602001828103825260208152602001807f4f776e61626c653a2063616c6c6572206973206e6f7420746865206f776e657281525060200191505060405180910390fd5b600073ffffffffffffffffffffffffffffffffffffffff168173ffffffffffffffffffffffffffffffffffffffff161415611358576040517f08c379a000000000000000000000000000000000000000000000000000000000815260040180806020018281038252602681526020018061141f6026913960400191505060405180910390fd5b8073ffffffffffffffffffffffffffffffffffffffff166000809054906101000a900473ffffffffffffffffffffffffffffffffffffffff1673ffffffffffffffffffffffffffffffffffffffff167f8be0079c531659141344cd1fd0a4f28419497f9722a3daafe3b4186f6b6457e060405160405180910390a3806000806101000a81548173ffffffffffffffffffffffffffffffffffffffff021916908373ffffffffffffffffffffffffffffffffffffffff16021790555050565b60003390509056fe4f776e61626c653a206e6577206f776e657220697320746865207a65726f206164647265737357686974656c6973743a2063616c6c6572206973206e6f7420696e207468652077686974656c6973744d65726b6c65547265653a207472656520726f6f74202f2063757272656e74206c6576656c2068617368206d69736d6174636843616e2774207570646174652061206c656166207768696368206861736e2774206265656e20696e73657274656421a265627a7a72315820113fbe2ad91103545a42c20b23ba8f23354f83b3cedd58397aa1cdbdd8085adf64736f6c634300050b0032",
  "source": "pragma solidity 0.5.11;\n\nimport \"./Hasher.sol\";\nimport \"./Whitelist.sol\";\n\ncontract MerkleTree is Whitelist {\n  // Hasher object\n  Hasher hasher;\n\n  // Depth of the merkle tree.\n  // Number of leaves = 2^depth\n  uint256 depth;\n\n  // Current tree root\n  uint256 root;\n\n  // Value of the leaves\n  uint256[] leaves;\n\n  // Index to keep track of how many\n  // leaves have been inserted in the tree\n  uint256 nextLeafIndex;\n  uint256 maxLeafIndex;\n\n  // Filled 'subtrees' - used for optimized\n  // inserting of new leaves\n  uint256[] internal filledSubtrees;\n\n  // Filled 'paths' - used for optimized\n  // updating of paths\n  mapping(uint256 => mapping(uint256 => uint256)) internal filledPaths;\n\n  // Stores hashes of zeros\n  uint256[] internal zeros;\n\n  event LeafAdded(uint256 leaf, uint256 leafIndex);\n  event LeafUpdated(uint256 leaf, uint256 leafIndex);\n\n  constructor(uint256 _depth, uint256 _zeroValue, address hasherAddress)\n    public\n  {\n    // Hasher object\n    hasher = Hasher(hasherAddress);\n\n    // Depth of the tree\n    depth = _depth;\n    maxLeafIndex = 2**(_depth - 1);\n\n    // 'Caches' zero values and filledSubTrees\n    // for optimized inserts later on\n    zeros.push(_zeroValue);\n    filledSubtrees.push(zeros[0]);\n\n    for (uint8 i = 1; i < depth; i++) {\n      zeros.push(hasher.hashPair(zeros[i - 1], zeros[i - 1]));\n      filledSubtrees.push(zeros[i]);\n    }\n\n    // Calculate current root\n    root = hasher.hashPair(zeros[depth - 1], zeros[depth - 1]);\n    nextLeafIndex = 0;\n  }\n\n  // Inserts (appends) a new leaf into the\n  // merkle tree\n  function insert(uint256 leaf) public whitelisted {\n    require(nextLeafIndex < maxLeafIndex, \"Merkle Tree at max capacity\");\n\n    uint256 leafIndex = nextLeafIndex;\n    uint256 currentIndex = nextLeafIndex;\n    nextLeafIndex += 1;\n\n    uint256 currentLevelHash = leaf;\n    uint256 left;\n    uint256 right;\n\n    for (uint8 i = 0; i < depth; i++) {\n      if (currentIndex % 2 == 0) {\n        left = currentLevelHash;\n        right = zeros[i];\n\n        filledSubtrees[i] = currentLevelHash;\n\n        filledPaths[i][currentIndex] = left;\n        filledPaths[i][currentIndex + 1] = right;\n      } else {\n        left = filledSubtrees[i];\n        right = currentLevelHash;\n\n        filledPaths[i][currentIndex - 1] = left;\n        filledPaths[i][currentIndex] = right;\n      }\n\n      currentLevelHash = hasher.hashPair(left, right);\n      currentIndex /= 2;\n    }\n\n    root = currentLevelHash;\n    leaves.push(leaf);\n\n    emit LeafAdded(leaf, leafIndex);\n  }\n\n  // Updates leaf of merkle tree at index `leafIndex`\n  function update(uint256 leafIndex, uint256 leaf) public whitelisted {\n    require(\n      leafIndex < nextLeafIndex,\n      \"Can't update a leaf which hasn't been inserted!\"\n    );\n\n    uint256 currentIndex = leafIndex;\n\n    uint256[] memory path = new uint256[](depth);\n\n    for (uint8 i = 0; i < depth; i++) {\n      if (currentIndex % 2 == 0) {\n        path[i] = filledPaths[i][currentIndex + 1];\n      } else {\n        path[i] = filledPaths[i][currentIndex - 1];\n      }\n      currentIndex /= 2;\n    }\n\n    uint256 currentLevelHash = leaves[leafIndex];\n    uint256 left;\n    uint256 right;\n\n    currentIndex = leafIndex;\n\n    for (uint8 i = 0; i < depth; i++) {\n      if (currentIndex % 2 == 0) {\n        left = currentLevelHash;\n        right = path[i];\n      } else {\n        left = path[i];\n        right = currentLevelHash;\n      }\n\n      currentLevelHash = hasher.hashPair(left, right);\n      currentIndex /= 2;\n    }\n\n    require(\n      root == currentLevelHash,\n      \"MerkleTree: tree root / current level hash mismatch\"\n    );\n\n    currentIndex = leafIndex;\n    currentLevelHash = leaf;\n\n    for (uint8 i = 0; i < depth; i++) {\n      if (currentIndex % 2 == 0) {\n        left = currentLevelHash;\n        right = path[i];\n\n        filledPaths[i][currentIndex] = left;\n        filledPaths[i][currentIndex + 1] = right;\n      } else {\n        left = path[i];\n        right = currentLevelHash;\n\n        filledPaths[i][currentIndex - 1] = left;\n        filledPaths[i][currentIndex] = right;\n      }\n\n      currentLevelHash = hasher.hashPair(left, right);\n      currentIndex /= 2;\n    }\n\n    root = currentLevelHash;\n    leaves[leafIndex] = leaf;\n\n    emit LeafUpdated(leaf, leafIndex);\n  }\n\n  function hashLeftRight(uint256 left, uint256 right)\n    public\n    view\n    returns (uint256)\n  {\n    return hasher.hashPair(left, right);\n  }\n\n  /*** Getters ***/\n  function getRoot() public view returns (uint256) {\n    return root;\n  }\n\n  function getDepth() public view returns (uint256) {\n    return depth;\n  }\n\n  function getLeafAt(uint256 leafIndex) public view returns (uint256) {\n    return leaves[leafIndex];\n  }\n\n  function getInsertedLeavesNo() public view returns (uint256) {\n    return nextLeafIndex;\n  }\n}\n",
  "sourcePath": "/Users/gokulalex/Apps/eth_apps/VerityNet/aave-circom-zkrollups/iden3-zkrollups/contracts/MerkleTree.sol",
  "compiler": {
    "name": "solc",
    "version": "0.5.11+commit.c082d0b4.Emscripten.clang"
  },
  "schemaVersion": "3.3.1",
  "updatedAt": "2020-10-20T12:59:39.891Z",
  "devdoc": {
    "methods": {
      "owner()": {
        "details": "Returns the address of the current owner."
      },
      "renounceOwnership()": {
        "details": "Leaves the contract without owner. It will not be possible to call `onlyOwner` functions anymore. Can only be called by the current owner.     * NOTE: Renouncing ownership will leave the contract without an owner, thereby removing any functionality that is only available to the owner."
      },
      "transferOwnership(address)": {
        "details": "Transfers ownership of the contract to a new account (`newOwner`). Can only be called by the current owner."
      }
    }
  },
  "userdoc": {
    "methods": {
      "getRoot()": {
        "notice": "* Getters **"
      }
    }
  }
}