{
  "contractName": "RollUp",
  "abi": [
    {
      "inputs": [
        {
          "internalType": "address",
          "name": "hasherAddress",
          "type": "address"
        },
        {
          "internalType": "address",
          "name": "balanceTreeAddress",
          "type": "address"
        },
        {
          "internalType": "address",
          "name": "fairVerifierAddress",
          "type": "address"
        }
      ],
      "payable": false,
      "stateMutability": "nonpayable",
      "type": "constructor"
    },
    {
      "anonymous": false,
      "inputs": [
        {
          "indexed": false,
          "internalType": "uint256",
          "name": "balanceTreeIndex",
          "type": "uint256"
        },
        {
          "indexed": false,
          "internalType": "uint256",
          "name": "publicKeyX",
          "type": "uint256"
        },
        {
          "indexed": false,
          "internalType": "uint256",
          "name": "publicKeyY",
          "type": "uint256"
        },
        {
          "indexed": false,
          "internalType": "uint256",
          "name": "balance",
          "type": "uint256"
        },
        {
          "indexed": false,
          "internalType": "uint256",
          "name": "nonce",
          "type": "uint256"
        }
      ],
      "name": "Deposit",
      "type": "event"
    },
    {
      "anonymous": false,
      "inputs": [
        {
          "indexed": false,
          "internalType": "uint256",
          "name": "balanceTreeIndex",
          "type": "uint256"
        },
        {
          "indexed": false,
          "internalType": "uint256",
          "name": "publicKeyX",
          "type": "uint256"
        },
        {
          "indexed": false,
          "internalType": "uint256",
          "name": "publicKeyY",
          "type": "uint256"
        },
        {
          "indexed": false,
          "internalType": "uint256",
          "name": "balance",
          "type": "uint256"
        },
        {
          "indexed": false,
          "internalType": "uint256",
          "name": "nonce",
          "type": "uint256"
        }
      ],
      "name": "Withdraw",
      "type": "event"
    },
    {
      "anonymous": false,
      "inputs": [
        {
          "indexed": false,
          "internalType": "uint256",
          "name": "newBalanceTreeRoot",
          "type": "uint256"
        }
      ],
      "name": "RollUpProcessed",
      "type": "event"
    },
    {
      "constant": false,
      "inputs": [
        {
          "internalType": "uint256[2]",
          "name": "a",
          "type": "uint256[2]"
        },
        {
          "internalType": "uint256[2][2]",
          "name": "b",
          "type": "uint256[2][2]"
        },
        {
          "internalType": "uint256[2]",
          "name": "c",
          "type": "uint256[2]"
        },
        {
          "internalType": "uint256[4]",
          "name": "input",
          "type": "uint256[4]"
        }
      ],
      "name": "rollUp",
      "outputs": [],
      "payable": false,
      "stateMutability": "nonpayable",
      "type": "function"
    },
    {
      "constant": true,
      "inputs": [
        {
          "internalType": "uint256",
          "name": "publicKeyX",
          "type": "uint256"
        },
        {
          "internalType": "uint256",
          "name": "publicKeyY",
          "type": "uint256"
        }
      ],
      "name": "isPublicKeyRegistered",
      "outputs": [
        {
          "internalType": "bool",
          "name": "",
          "type": "bool"
        }
      ],
      "payable": false,
      "stateMutability": "view",
      "type": "function"
    },
    {
      "constant": true,
      "inputs": [
        {
          "internalType": "uint256",
          "name": "index",
          "type": "uint256"
        }
      ],
      "name": "getUserKey",
      "outputs": [
        {
          "internalType": "uint256",
          "name": "",
          "type": "uint256"
        }
      ],
      "payable": false,
      "stateMutability": "view",
      "type": "function"
    },
    {
      "constant": true,
      "inputs": [
        {
          "internalType": "uint256",
          "name": "publicKeyHash",
          "type": "uint256"
        }
      ],
      "name": "getUserData",
      "outputs": [
        {
          "internalType": "uint256",
          "name": "",
          "type": "uint256"
        },
        {
          "internalType": "uint256",
          "name": "",
          "type": "uint256"
        },
        {
          "internalType": "uint256",
          "name": "",
          "type": "uint256"
        },
        {
          "internalType": "uint256",
          "name": "",
          "type": "uint256"
        },
        {
          "internalType": "uint256",
          "name": "",
          "type": "uint256"
        }
      ],
      "payable": false,
      "stateMutability": "view",
      "type": "function"
    },
    {
      "constant": false,
      "inputs": [
        {
          "internalType": "uint256[2]",
          "name": "a",
          "type": "uint256[2]"
        },
        {
          "internalType": "uint256[2][2]",
          "name": "b",
          "type": "uint256[2][2]"
        },
        {
          "internalType": "uint256[2]",
          "name": "c",
          "type": "uint256[2]"
        },
        {
          "internalType": "uint256[4]",
          "name": "input",
          "type": "uint256[4]"
        }
      ],
      "name": "withdrawAll",
      "outputs": [],
      "payable": false,
      "stateMutability": "nonpayable",
      "type": "function"
    },
    {
      "constant": false,
      "inputs": [
        {
          "internalType": "uint256",
          "name": "amount",
          "type": "uint256"
        },
        {
          "internalType": "uint256[2]",
          "name": "a",
          "type": "uint256[2]"
        },
        {
          "internalType": "uint256[2][2]",
          "name": "b",
          "type": "uint256[2][2]"
        },
        {
          "internalType": "uint256[2]",
          "name": "c",
          "type": "uint256[2]"
        },
        {
          "internalType": "uint256[4]",
          "name": "input",
          "type": "uint256[4]"
        }
      ],
      "name": "withdraw",
      "outputs": [],
      "payable": false,
      "stateMutability": "nonpayable",
      "type": "function"
    },
    {
      "constant": false,
      "inputs": [
        {
          "internalType": "uint256",
          "name": "publicKeyX",
          "type": "uint256"
        },
        {
          "internalType": "uint256",
          "name": "publicKeyY",
          "type": "uint256"
        }
      ],
      "name": "deposit",
      "outputs": [],
      "payable": true,
      "stateMutability": "payable",
      "type": "function"
    },
    {
      "constant": true,
      "inputs": [],
      "name": "getAccuredFees",
      "outputs": [
        {
          "internalType": "uint256",
          "name": "",
          "type": "uint256"
        }
      ],
      "payable": false,
      "stateMutability": "view",
      "type": "function"
    },
    {
      "constant": false,
      "inputs": [],
      "name": "withdrawAccuredFees",
      "outputs": [],
      "payable": false,
      "stateMutability": "nonpayable",
      "type": "function"
    }
  ],
  "bytecode": "0x608060405234801561001057600080fd5b50604051611ebf380380611ebf8339818101604052606081101561003357600080fd5b81019080805190602001909291908051906020019092919080519060200190929190505050336000806101000a81548173ffffffffffffffffffffffffffffffffffffffff021916908373ffffffffffffffffffffffffffffffffffffffff16021790555082600160006101000a81548173ffffffffffffffffffffffffffffffffffffffff021916908373ffffffffffffffffffffffffffffffffffffffff16021790555081600260006101000a81548173ffffffffffffffffffffffffffffffffffffffff021916908373ffffffffffffffffffffffffffffffffffffffff16021790555080600360006101000a81548173ffffffffffffffffffffffffffffffffffffffff021916908373ffffffffffffffffffffffffffffffffffffffff1602179055506000600881905550505050611d4a806101756000396000f3fe6080604052600436106100865760003560e01c80638cd1f20d116100595780638cd1f20d14610407578063a7a054e51461041e578063d7a71b9a1461058c578063dd1e2651146105e9578063e2bbb1581461063857610086565b806310bfb87a1461008b5780631fef580c146102035780635b86df081461026e5780637d23238c146103dc575b600080fd5b34801561009757600080fd5b5061020160048036036101a08110156100af57600080fd5b810190808035906020019092919080604001906002806020026040519081016040528092919082600260200280828437600081840152601f19601f82011690508083019250505050505091929192908060800190600280602002604051908101604052809291906000905b8282101561016e578382604002016002806020026040519081016040528092919082600260200280828437600081840152601f19601f8201169050808301925050505050508152602001906001019061011a565b50505050919291929080604001906002806020026040519081016040528092919082600260200280828437600081840152601f19601f820116905080830192505050505050919291929080608001906004806020026040519081016040528092919082600460200280828437600081840152601f19601f8201169050808301925050505050509192919290505050610670565b005b34801561020f57600080fd5b5061023c6004803603602081101561022657600080fd5b8101908080359060200190929190505050610b69565b604051808681526020018581526020018481526020018381526020018281526020019550505050505060405180910390f35b34801561027a57600080fd5b506103da600480360361018081101561029257600080fd5b8101908080604001906002806020026040519081016040528092919082600260200280828437600081840152601f19601f82011690508083019250505050505091929192908060800190600280602002604051908101604052809291906000905b82821015610347578382604002016002806020026040519081016040528092919082600260200280828437600081840152601f19601f820116905080830192505050505050815260200190600101906102f3565b50505050919291929080604001906002806020026040519081016040528092919082600260200280828437600081840152601f19601f820116905080830192505050505050919291929080608001906004806020026040519081016040528092919082600460200280828437600081840152601f19601f8201169050808301925050505050509192919290505050610bf8565b005b3480156103e857600080fd5b506103f1610dcd565b6040518082815260200191505060405180910390f35b34801561041357600080fd5b5061041c610dd7565b005b34801561042a57600080fd5b5061058a600480360361018081101561044257600080fd5b8101908080604001906002806020026040519081016040528092919082600260200280828437600081840152601f19601f82011690508083019250505050505091929192908060800190600280602002604051908101604052809291906000905b828210156104f7578382604002016002806020026040519081016040528092919082600260200280828437600081840152601f19601f820116905080830192505050505050815260200190600101906104a3565b50505050919291929080604001906002806020026040519081016040528092919082600260200280828437600081840152601f19601f820116905080830192505050505050919291929080608001906004806020026040519081016040528092919082600460200280828437600081840152601f19601f8201169050808301925050505050509192919290505050610ecf565b005b34801561059857600080fd5b506105cf600480360360408110156105af57600080fd5b810190808035906020019092919080359060200190929190505050611720565b604051808215151515815260200191505060405180910390f35b3480156105f557600080fd5b506106226004803603602081101561060c57600080fd5b8101908080359060200190929190505050611805565b6040518082815260200191505060405180910390f35b61066e6004803603604081101561064e57600080fd5b810190808035906020019092919080359060200190929190505050611822565b005b60008160006004811061067f57fe5b6020020151905060008260016004811061069557fe5b602002015190506000836002600481106106ab57fe5b602002015190506006600082815260200190815260200160002060009054906101000a900460ff1615610746576040517f08c379a00000000000000000000000000000000000000000000000000000000081526004018080602001828103825260178152602001807f4e756c6c696669657220686173206265656e207573656400000000000000000081525060200191505060405180910390fd5b6000600360009054906101000a900473ffffffffffffffffffffffffffffffffffffffff1673ffffffffffffffffffffffffffffffffffffffff16635fe8c13b898989896040518563ffffffff1660e01b81526004018085600260200280838360005b838110156107c45780820151818401526020810190506107a9565b505050509050018460026000925b818410156108185782846020020151600260200280838360005b838110156108075780820151818401526020810190506107ec565b5050505090500192600101926107d2565b9250505083600260200280838360005b83811015610843578082015181840152602081019050610828565b5050505090500182600460200280838360005b83811015610871578082015181840152602081019050610856565b5050505090500194505050505060206040518083038186803b15801561089657600080fd5b505afa1580156108aa573d6000803e3d6000fd5b505050506040513d60208110156108c057600080fd5b8101908080519060200190929190505050905080610946576040517f08c379a000000000000000000000000000000000000000000000000000000000815260040180806020018281038252601e8152602001807f556e617574686f72697a656420746f2077697468647261772066756e6473000081525060200191505060405180910390fd5b6000600160009054906101000a900473ffffffffffffffffffffffffffffffffffffffff1673ffffffffffffffffffffffffffffffffffffffff166366d82b2b86866040518363ffffffff1660e01b8152600401808381526020018281526020019250505060206040518083038186803b1580156109c357600080fd5b505afa1580156109d7573d6000803e3d6000fd5b505050506040513d60208110156109ed57600080fd5b81019080805190602001909291905050509050600060046000838152602001908152602001600020905080600301548b1115610a74576040517f08c379a000000000000000000000000000000000000000000000000000000000815260040180806020018281038252602e815260200180611ce8602e913960400191505060405180910390fd5b60016006600086815260200190815260200160002060006101000a81548160ff0219169083151502179055508a81600301600082825403925050819055503373ffffffffffffffffffffffffffffffffffffffff166108fc8c9081150290604051600060405180830381858888f19350505050158015610af8573d6000803e3d6000fd5b507f5411c8b0be451a010d4911d19e0a687a853789e0e5236433fe8ee9e144d1f3da8160000154878784600301548560040154604051808681526020018581526020018481526020018381526020018281526020019550505050505060405180910390a15050505050505050505050565b6000806000806000610b79611c97565b600460008881526020019081526020016000206040518060a001604052908160008201548152602001600182015481526020016002820154815260200160038201548152602001600482015481525050905080600001518160200151826040015183606001518460800151955095509550955095505091939590929450565b600081600060048110610c0757fe5b60200201519050600082600160048110610c1d57fe5b602002015190506000600160009054906101000a900473ffffffffffffffffffffffffffffffffffffffff1673ffffffffffffffffffffffffffffffffffffffff166366d82b2b84846040518363ffffffff1660e01b8152600401808381526020018281526020019250505060206040518083038186803b158015610ca157600080fd5b505afa158015610cb5573d6000803e3d6000fd5b505050506040513d6020811015610ccb57600080fd5b81019080805190602001909291905050509050610ce6611c97565b600460008381526020019081526020016000206040518060a00160405290816000820154815260200160018201548152602001600282015481526020016003820154815260200160048201548152505090506000816060015111610db2576040517f08c379a000000000000000000000000000000000000000000000000000000000815260040180806020018281038252601e8152602001807f43616e6e6f74207769746864726177207769746820302062616c616e6365000081525060200191505060405180910390fd5b610dc3816060015189898989610670565b5050505050505050565b6000600854905090565b6000809054906101000a900473ffffffffffffffffffffffffffffffffffffffff1673ffffffffffffffffffffffffffffffffffffffff163373ffffffffffffffffffffffffffffffffffffffff1614610e7c576040517f08c379a0000000000000000000000000000000000000000000000000000000008152600401808060200182810382526021815260200180611cc76021913960400191505060405180910390fd5b3373ffffffffffffffffffffffffffffffffffffffff166108fc6008549081150290604051600060405180830381858888f19350505050158015610ec4573d6000803e3d6000fd5b506000600881905550565b600081600160048110610ede57fe5b6020020151905080600260009054906101000a900473ffffffffffffffffffffffffffffffffffffffff1673ffffffffffffffffffffffffffffffffffffffff16635ca1e1656040518163ffffffff1660e01b815260040160206040518083038186803b158015610f4e57600080fd5b505afa158015610f62573d6000803e3d6000fd5b505050506040513d6020811015610f7857600080fd5b810190808051906020019092919050505014610ffc576040517f08c379a00000000000000000000000000000000000000000000000000000000081526004018080602001828103825260208152602001807f50726f6f66206e6f742076616c696420666f722063757272656e74207472656581525060200191505060405180910390fd5b600360009054906101000a900473ffffffffffffffffffffffffffffffffffffffff1673ffffffffffffffffffffffffffffffffffffffff16635fe8c13b868686866040518563ffffffff1660e01b81526004018085600260200280838360005b8381101561107857808201518184015260208101905061105d565b505050509050018460026000925b818410156110cc5782846020020151600260200280838360005b838110156110bb5780820151818401526020810190506110a0565b505050509050019260010192611086565b9250505083600260200280838360005b838110156110f75780820151818401526020810190506110dc565b5050505090500182600460200280838360005b8381101561112557808201518184015260208101905061110a565b5050505090500194505050505060206040518083038186803b15801561114a57600080fd5b505afa15801561115e573d6000803e3d6000fd5b505050506040513d602081101561117457600080fd5b81019080805190602001909291905050506111f7576040517f08c379a00000000000000000000000000000000000000000000000000000000081526004018080602001828103825260168152602001807f496e76616c696420726f6c6c2075702070726f6f66730000000000000000000081525060200191505060405180910390fd5b60008060008060008060008060008060006003905060006008905060006002905060008090505b8181101561163257808302840198508f896004811061123957fe5b60200201519d508f60018a016004811061124f57fe5b60200201519c508f60028a016004811061126557fe5b60200201519b508f60038a016004811061127b57fe5b60200201519a508f60048a016004811061129157fe5b60200201519950600760008f8152602001908152602001600020549550600760008e815260200190815260200160002054945060006004600088815260200190815260200160002090508c81600301600082825403925050819055508b81600301600082825403925050819055508a816004018190555060006004600088815260200190815260200160002090508d81600301600082825401925050819055508c600860008282540192505081905550600160009054906101000a900473ffffffffffffffffffffffffffffffffffffffff1673ffffffffffffffffffffffffffffffffffffffff1663c73f4f9a83600101548460020154856003015486600401546040518563ffffffff1660e01b81526004018085815260200184815260200183815260200182815260200194505050505060206040518083038186803b1580156113dc57600080fd5b505afa1580156113f0573d6000803e3d6000fd5b505050506040513d602081101561140657600080fd5b81019080805190602001909291905050509950600160009054906101000a900473ffffffffffffffffffffffffffffffffffffffff1673ffffffffffffffffffffffffffffffffffffffff1663c73f4f9a82600101548360020154846003015485600401546040518563ffffffff1660e01b81526004018085815260200184815260200183815260200182815260200194505050505060206040518083038186803b1580156114b457600080fd5b505afa1580156114c8573d6000803e3d6000fd5b505050506040513d60208110156114de57600080fd5b81019080805190602001909291905050509850600260009054906101000a900473ffffffffffffffffffffffffffffffffffffffff1673ffffffffffffffffffffffffffffffffffffffff16632fb565e883600001548c6040518363ffffffff1660e01b81526004018083815260200182815260200192505050600060405180830381600087803b15801561157257600080fd5b505af1158015611586573d6000803e3d6000fd5b50505050600260009054906101000a900473ffffffffffffffffffffffffffffffffffffffff1673ffffffffffffffffffffffffffffffffffffffff16632fb565e882600001548b6040518363ffffffff1660e01b81526004018083815260200182815260200192505050600060405180830381600087803b15801561160b57600080fd5b505af115801561161f573d6000803e3d6000fd5b505050505050808060010191505061121e565b507f980df2e30de6eec43543d112640d5d1770245325a048a1e236b890dad1b8ad25600260009054906101000a900473ffffffffffffffffffffffffffffffffffffffff1673ffffffffffffffffffffffffffffffffffffffff16635ca1e1656040518163ffffffff1660e01b815260040160206040518083038186803b1580156116bc57600080fd5b505afa1580156116d0573d6000803e3d6000fd5b505050506040513d60208110156116e657600080fd5b81019080805190602001909291905050506040518082815260200191505060405180910390a1505050505050505050505050505050505050565b600080600160009054906101000a900473ffffffffffffffffffffffffffffffffffffffff1673ffffffffffffffffffffffffffffffffffffffff166366d82b2b85856040518363ffffffff1660e01b8152600401808381526020018281526020019250505060206040518083038186803b15801561179e57600080fd5b505afa1580156117b2573d6000803e3d6000fd5b505050506040513d60208110156117c857600080fd5b810190808051906020019092919050505090506005600082815260200190815260200160002060009054906101000a900460ff1691505092915050565b600060076000838152602001908152602001600020549050919050565b6000600160009054906101000a900473ffffffffffffffffffffffffffffffffffffffff1673ffffffffffffffffffffffffffffffffffffffff166366d82b2b84846040518363ffffffff1660e01b8152600401808381526020018281526020019250505060206040518083038186803b15801561189f57600080fd5b505afa1580156118b3573d6000803e3d6000fd5b505050506040513d60208110156118c957600080fd5b8101908080519060200190929190505050905060006004600083815260200190815260200160002090503481600301600082825401925050819055506000600160009054906101000a900473ffffffffffffffffffffffffffffffffffffffff1673ffffffffffffffffffffffffffffffffffffffff1663c73f4f9a8686856003015486600401546040518563ffffffff1660e01b81526004018085815260200184815260200183815260200182815260200194505050505060206040518083038186803b15801561199a57600080fd5b505afa1580156119ae573d6000803e3d6000fd5b505050506040513d60208110156119c457600080fd5b810190808051906020019092919050505090506005600084815260200190815260200160002060009054906101000a900460ff16611b935760016005600085815260200190815260200160002060006101000a81548160ff021916908315150217905550848260010181905550838260020181905550600260009054906101000a900473ffffffffffffffffffffffffffffffffffffffff1673ffffffffffffffffffffffffffffffffffffffff1663af41b8716040518163ffffffff1660e01b815260040160206040518083038186803b158015611aa257600080fd5b505afa158015611ab6573d6000803e3d6000fd5b505050506040513d6020811015611acc57600080fd5b81019080805190602001909291905050508260000181905550600260009054906101000a900473ffffffffffffffffffffffffffffffffffffffff1673ffffffffffffffffffffffffffffffffffffffff166390b5561d826040518263ffffffff1660e01b815260040180828152602001915050600060405180830381600087803b158015611b5a57600080fd5b505af1158015611b6e573d6000803e3d6000fd5b5050505082600760008460000154815260200190815260200160002081905550611c2d565b600260009054906101000a900473ffffffffffffffffffffffffffffffffffffffff1673ffffffffffffffffffffffffffffffffffffffff16632fb565e88360000154836040518363ffffffff1660e01b81526004018083815260200182815260200192505050600060405180830381600087803b158015611c1457600080fd5b505af1158015611c28573d6000803e3d6000fd5b505050505b7f429ca5f64e18925b7c661f0901b31c18f8ebc5de6aeb8dc059e5b96d8fe8957e8260000154868685600301548660040154604051808681526020018581526020018481526020018381526020018281526020019550505050505060405180910390a15050505050565b6040518060a001604052806000815260200160008152602001600081526020016000815260200160008152509056fe4f6e6c79206f776e65722063616e2063616c6c20746869732066756e6374696f6e576974686472617720616d6f756e74206973206d6f7265207468616e2072656d61696e696e672062616c616e6365a265627a7a723158202ae9dc4a6368e4af3b41dd71c95da95a9ff66f54dc8c150945199989041d0e2a64736f6c634300050b0032",
  "source": "pragma solidity 0.5.11;\n\nimport \"./SafeMath.sol\";\nimport \"./Hasher.sol\";\nimport \"./Whitelist.sol\";\nimport \"./MerkleTree.sol\";\nimport {FairVerifier as FairVerifier} from \"./FairVerifier.sol\";\n\ncontract RollUp {\n  using SafeMath for uint256;\n\n  // Contract owner\n  address owner;\n\n  // Hasher function\n  Hasher hasher;\n\n  // Merkle Tree that represents all users's\n  // deposits\n  MerkleTree balanceTree;\n\n  // ZK Proofs\n  FairVerifier fairVerifier;\n\n  // Deposit event\n  event Deposit(\n    uint256 balanceTreeIndex,\n    uint256 publicKeyX,\n    uint256 publicKeyY,\n    uint256 balance,\n    uint256 nonce\n  );\n\n  // Withdraw\n  event Withdraw(\n    uint256 balanceTreeIndex,\n    uint256 publicKeyX,\n    uint256 publicKeyY,\n    uint256 balance,\n    uint256 nonce\n  );\n\n  event RollUpProcessed(uint256 newBalanceTreeRoot);\n\n  // Registered users\n  struct User {\n    uint256 balanceTreeLeafIndex;\n    uint256 publicKeyX;\n    uint256 publicKeyY;\n    uint256 balance;\n    uint256 nonce;\n  }\n  mapping(uint256 => User) balanceTreeUsers;\n  mapping(uint256 => bool) isPublicKeysRegistered;\n  mapping(uint256 => bool) usedNullifiers;\n\n  // index => hash(public key)\n  mapping(uint256 => uint256) balanceTreeKeys;\n\n  uint256 accuredFees;\n\n  constructor(\n    address hasherAddress,\n    address balanceTreeAddress,\n    address fairVerifierAddress\n  ) public {\n    owner = msg.sender;\n\n    hasher = Hasher(hasherAddress);\n    balanceTree = MerkleTree(balanceTreeAddress);\n    fairVerifier = FairVerifier(fairVerifierAddress);\n\n    accuredFees = 0;\n  }\n\n  function rollUp(\n    uint256[2] memory a,\n    uint256[2][2] memory b,\n    uint256[2] memory c,\n    uint256[4] memory input\n  ) public {\n    // TODO: Check if current merkle tree is\n    // equal to supplied merkle tree\n    uint256 balanceTreeRoot = input[1];\n    // uint256 newBalanceTreeRoot = input[1];\n\n    if (balanceTree.getRoot() != balanceTreeRoot) {\n      revert(\"Proof not valid for current tree\");\n    }\n\n    if (!fairVerifier.verifyProof(a, b, c, input)) {\n      revert(\"Invalid roll up proofs\");\n    }\n\n    // Transaction one\n    uint256 from;\n    uint256 to;\n    uint256 amount;\n    uint256 fee;\n    uint256 nonce;\n    uint256 curOffset;\n\n    uint256 senderLeaf;\n    uint256 recipientLeaf;\n\n    uint256 senderPublicKeyHash;\n    uint256 recipientPublicKeyHash;\n\n    uint256 txDataOffset = 3;\n    uint256 txDataLength = 8;\n    uint256 batchSize = 2;\n\n    for (uint256 i = 0; i < batchSize; i++) {\n      curOffset = txDataOffset + (txDataLength * i);\n\n      from = input[curOffset];\n      to = input[curOffset + 1];\n      amount = input[curOffset + 2];\n      fee = input[curOffset + 3];\n      nonce = input[curOffset + 4];\n\n      // Update user data\n      senderPublicKeyHash = balanceTreeKeys[from];\n      recipientPublicKeyHash = balanceTreeKeys[to];\n\n      User storage sender = balanceTreeUsers[senderPublicKeyHash];\n      sender.balance -= amount;\n      sender.balance -= fee;\n      sender.nonce = nonce;\n\n      User storage recipient = balanceTreeUsers[recipientPublicKeyHash];\n      recipient.balance += amount;\n\n      accuredFees += fee;\n\n      // Update merkle tree leaf\n      senderLeaf = hasher.hashBalanceTreeLeaf(\n        sender.publicKeyX,\n        sender.publicKeyY,\n        sender.balance,\n        sender.nonce\n      );\n\n      recipientLeaf = hasher.hashBalanceTreeLeaf(\n        recipient.publicKeyX,\n        recipient.publicKeyY,\n        recipient.balance,\n        recipient.nonce\n      );\n\n      balanceTree.update(sender.balanceTreeLeafIndex, senderLeaf);\n      balanceTree.update(recipient.balanceTreeLeafIndex, recipientLeaf);\n    }\n\n    emit RollUpProcessed(balanceTree.getRoot());\n  }\n\n  // Checks if public key is registered\n  function isPublicKeyRegistered(uint256 publicKeyX, uint256 publicKeyY)\n    public\n    view\n    returns (bool)\n  {\n    uint256 publicKeyHash = hasher.hashPair(publicKeyX, publicKeyY);\n    return isPublicKeysRegistered[publicKeyHash];\n  }\n\n  function getUserKey(uint256 index) public view returns (uint256) {\n    return balanceTreeKeys[index];\n  }\n\n  function getUserData(uint256 publicKeyHash)\n    public\n    view\n    returns (uint256, uint256, uint256, uint256, uint256)\n  {\n    User memory user = balanceTreeUsers[publicKeyHash];\n\n    return (\n      user.balanceTreeLeafIndex,\n      user.publicKeyX,\n      user.publicKeyY,\n      user.balance,\n      user.nonce\n    );\n  }\n\n  function withdrawAll(\n    uint256[2] memory a,\n    uint256[2][2] memory b,\n    uint256[2] memory c,\n    uint256[4] memory input\n  ) public {\n    // Inputs are the public signal\n    uint256 publicKeyX = input[0];\n    uint256 publicKeyY = input[1];\n\n    uint256 publicKeyHash = hasher.hashPair(publicKeyX, publicKeyY);\n    User memory user = balanceTreeUsers[publicKeyHash];\n    if (user.balance <= 0) {\n      revert(\"Cannot withdraw with 0 balance\");\n    }\n\n    withdraw(user.balance, a, b, c, input);\n  }\n\n  function withdraw(\n    uint256 amount,\n    uint256[2] memory a,\n    uint256[2][2] memory b,\n    uint256[2] memory c,\n    uint256[4] memory input\n  ) public {\n    // Inputs are the public signal\n    uint256 publicKeyX = input[0];\n    uint256 publicKeyY = input[1];\n    uint256 nullifier = input[2];\n\n    if (usedNullifiers[nullifier]) {\n      revert(\"Nullifier has been used\");\n    }\n\n    // Check if proof is valid\n    bool validProof = fairVerifier.verifyProof(a, b, c, input);\n    if (!validProof) {\n      revert(\"Unauthorized to withdraw funds\");\n    }\n\n    // CHeck user balance\n    uint256 publicKeyHash = hasher.hashPair(publicKeyX, publicKeyY);\n    User storage user = balanceTreeUsers[publicKeyHash];\n    if (amount > user.balance) {\n      revert(\"Withdraw amount is more than remaining balance\");\n    }\n\n    // Register nullifier as used\n    usedNullifiers[nullifier] = true;\n    user.balance -= amount;\n    msg.sender.transfer(amount);\n\n    emit Withdraw(\n      user.balanceTreeLeafIndex,\n      publicKeyX,\n      publicKeyY,\n      user.balance,\n      user.nonce\n    );\n  }\n\n  function deposit(uint256 publicKeyX, uint256 publicKeyY) public payable {\n    uint256 publicKeyHash = hasher.hashPair(publicKeyX, publicKeyY);\n\n    User storage user = balanceTreeUsers[publicKeyHash];\n    user.balance += msg.value;\n\n    // Insert user into balance tree\n    uint256 leaf = hasher.hashBalanceTreeLeaf(\n      publicKeyX,\n      publicKeyY,\n      user.balance,\n      user.nonce\n    );\n\n    // If its a new user, mark them as registered,\n    // and insert them into the merkleTree\n    if (!isPublicKeysRegistered[publicKeyHash]) {\n      isPublicKeysRegistered[publicKeyHash] = true;\n\n      // Saves user's public key\n      user.publicKeyX = publicKeyX;\n      user.publicKeyY = publicKeyY;\n\n      // Saves user's index in balance tree\n      user.balanceTreeLeafIndex = balanceTree.getInsertedLeavesNo();\n      balanceTree.insert(leaf);\n\n      // Saves user's index in balanceTreeKeys\n      balanceTreeKeys[user.balanceTreeLeafIndex] = publicKeyHash;\n\n    } else {\n      // Updates balance and data in balance tree\n      balanceTree.update(user.balanceTreeLeafIndex, leaf);\n    }\n\n    emit Deposit(\n      user.balanceTreeLeafIndex,\n      publicKeyX,\n      publicKeyY,\n      user.balance,\n      user.nonce\n    );\n  }\n\n  function getAccuredFees() public view returns (uint256) {\n    return accuredFees;\n  }\n\n  function withdrawAccuredFees() public {\n    if (msg.sender != owner) {\n      revert(\"Only owner can call this function\");\n    }\n    msg.sender.transfer(accuredFees);\n    accuredFees = 0;\n  }\n}\n",
  "sourcePath": "/Users/gokulalex/Apps/eth_apps/VerityNet/aave-circom-zkrollups/iden3-zkrollups/contracts/RollUp.sol",
  "compiler": {
    "name": "solc",
    "version": "0.5.11+commit.c082d0b4.Emscripten.clang"
  },
  "schemaVersion": "3.3.1",
  "updatedAt": "2020-10-20T12:59:39.897Z",
  "devdoc": {
    "methods": {}
  },
  "userdoc": {
    "methods": {}
  }
}