{
  "contractName": "TxVerifier",
  "abi": [
    {
      "constant": true,
      "inputs": [
        {
          "internalType": "uint256[2]",
          "name": "a",
          "type": "uint256[2]"
        },
        {
          "internalType": "uint256[2][2]",
          "name": "b",
          "type": "uint256[2][2]"
        },
        {
          "internalType": "uint256[2]",
          "name": "c",
          "type": "uint256[2]"
        },
        {
          "internalType": "uint256[73]",
          "name": "input",
          "type": "uint256[73]"
        }
      ],
      "name": "verifyProof",
      "outputs": [
        {
          "internalType": "bool",
          "name": "r",
          "type": "bool"
        }
      ],
      "payable": false,
      "stateMutability": "view",
      "type": "function"
    }
  ],
  "bytecode": "0x608060405234801561001057600080fd5b5061320f806100206000396000f3fe608060405234801561001057600080fd5b506004361061002b5760003560e01c80638d1b779014610030575b600080fd5b6101906004803603610a2081101561004757600080fd5b8101908080604001906002806020026040519081016040528092919082600260200280828437600081840152601f19601f82011690508083019250505050505091929192908060800190600280602002604051908101604052809291906000905b828210156100fc578382604002016002806020026040519081016040528092919082600260200280828437600081840152601f19601f820116905080830192505050505050815260200190600101906100a8565b50505050919291929080604001906002806020026040519081016040528092919082600260200280828437600081840152601f19601f82011690508083019250505050505091929192908061092001906049806020026040519081016040528092919082604960200280828437600081840152601f19601f82011690508083019250505050505091929192905050506101aa565b604051808215151515815260200191505060405180910390f35b60006101b461307e565b6040518060400160405280876000600281106101cc57fe5b60200201518152602001876001600281106101e357fe5b60200201518152508160000181905250604051806040016040528060405180604001604052808860006002811061021657fe5b602002015160006002811061022757fe5b602002015181526020018860006002811061023e57fe5b602002015160016002811061024f57fe5b6020020151815250815260200160405180604001604052808860016002811061027457fe5b602002015160006002811061028557fe5b602002015181526020018860016002811061029c57fe5b60200201516001600281106102ad57fe5b602002015181525081525081602001819052506040518060400160405280856000600281106102d857fe5b60200201518152602001856001600281106102ef57fe5b60200201518152508160400181905250606060496040519080825280602002602001820160405280156103315781602001602082028038833980820191505090505b50905060008090505b60498110156103795784816049811061034f57fe5b602002015182828151811061036057fe5b602002602001018181525050808060010191505061033a565b50600061038682846103a6565b14156103975760019250505061039e565b6000925050505b949350505050565b6000807f30644e72e131a029b85045b68181585d2833e84879b9709143e1f593f000000190506103d46130b1565b6103dc6105da565b905080608001515160018651011461045c576040517f08c379a00000000000000000000000000000000000000000000000000000000081526004018080602001828103825260128152602001807f76657269666965722d6261642d696e707574000000000000000000000000000081525060200191505060405180910390fd5b6104646130f8565b6040518060400160405280600081526020016000815250905060008090505b8651811015610563578387828151811061049957fe5b602002602001015110610514576040517f08c379a000000000000000000000000000000000000000000000000000000000815260040180806020018281038252601f8152602001807f76657269666965722d6774652d736e61726b2d7363616c61722d6669656c640081525060200191505060405180910390fd5b6105548261054f8560800151600185018151811061052e57fe5b60200260200101518a858151811061054257fe5b602002602001015161297b565b612a66565b91508080600101915050610483565b5061058681836080015160008151811061057957fe5b6020026020010151612a66565b90506105bc6105988660000151612b70565b8660200151846000015185602001518587604001518b604001518960600151612c0a565b6105cc57600193505050506105d4565b600093505050505b92915050565b6105e26130b1565b60405180604001604052807f29dcdb3bccb552c858c71e26afab6d6f982023a9df329a44020f83e774c6ad9c81526020017f0b9dc24c1fa2127f1102ea3c3908681e45e864917e012c61775155d34e0b4a4a8152508160000181905250604051806040016040528060405180604001604052807f219487ab677de5c6ca2eeab5fdc68081ba9e17449ca3506ccf522692865aaed181526020017f2cc663d8b8dd721841b3c2a6c286d7ff8b304b35ded1d97aec4f0ce26511f2f1815250815260200160405180604001604052807f272acb1a1c3006dfbdd38da79650434313eccb1fe7acb3ff2f1f7e218eae50a081526020017f13730cd53ee7abfe92216eeb5b1a529100cc833ed24b88ab129774382a823eda8152508152508160200181905250604051806040016040528060405180604001604052807f08edb935498ef33347a7c7070f7896aced6d6785fbcabbf8c50fa914102aee0381526020017f2966ebf71006ae091b869d9f0b05909d8af630d9b6e997f1e3611b129dc043fd815250815260200160405180604001604052807f1aab075becc08f6cc33354bfde103837aa3cef40e7312261c0d272aaa53b490081526020017f2c867cfbc13f46f126def2d315e144e34d527aca99454ec89f6f3937edadec718152508152508160400181905250604051806040016040528060405180604001604052807f07fbe0402d7f66250dfa0f6f5cc8a6b738652a984ab66f38adf258d5f3a9443b81526020017f0deb1b9bcb657a3bb3953d827f7a4a84416cd5a7679e248ac95010ab8fb8b17a815250815260200160405180604001604052807f0a67746b444be21daf0b30431baa74feea84368f0e88ecf99dcdd74f1a2388f881526020017f047b507b9544bdc0ac0b13bcae74485231d4fc80ba84358adca53ed4c5d24a138152508152508160600181905250604a6040519080825280602002602001820160405280156108c957816020015b6108b6613112565b8152602001906001900390816108ae5790505b50816080018190525060405180604001604052807f0ec0ba8251e076b8f94a885e4fe7d15cc35b7699f0c14a6ba917961f4b177f7f81526020017f24c34653bde7dea5720128ea2d04882cc7d2dcea13b36fca32da90896ce669f0815250816080015160008151811061093857fe5b602002602001018190525060405180604001604052807f03080add3c77e2f4e192637ff4cd5247aa20aab621202ff0659ca8121c8bbcd781526020017f08fa667dbb50d540412b57dc7c9f91306e52a875853fe07dc60e8bbb57024bf481525081608001516001815181106109a957fe5b602002602001018190525060405180604001604052807f1a2d9637c71b094f9b52a9df4007a13bdcc6ef8e1d1c601dd3c33dbc1812ca0781526020017f2c294b2db853da6721c90596b23fc8dc70d4aa9b68721b09d8270e800037444f8152508160800151600281518110610a1a57fe5b602002602001018190525060405180604001604052807f2d705bedcd08888db321d5ec2cf428d259b9f14ecbb13b41f6883052ddd6357281526020017f15ae16b0ab6da1cb7e363c750b0c339763bae6e8c6521bff06d687e3d5fd628a8152508160800151600381518110610a8b57fe5b602002602001018190525060405180604001604052807f0ff002ed1335a4f785512a9d0f10b1362551169f8d1cd85cf93b6a5a1d47478181526020017f2063eb73be3c027041a1003b3cec762969ac4e4bfab0e49b7cef60100a6f02998152508160800151600481518110610afc57fe5b602002602001018190525060405180604001604052807f2613b93e4f250cb95bb24c3672a8dfce1c6a5cbb99c1e9728a6828bbf00113db81526020017f10f94096b78bf8e1917fa9f8caa3f1a3557f9bfd3dde9433fe61836e9c2d3b788152508160800151600581518110610b6d57fe5b602002602001018190525060405180604001604052807f243a80359ea95926abb72b040382597f4357f62f8167eee26d31273968bfdb3081526020017f19e234f51c0f9cc5c5882decb361868fad7cb1bc83b1303d5e50872e4eac876a8152508160800151600681518110610bde57fe5b602002602001018190525060405180604001604052807f288d94be6fa30191bf7087f7cedbb6eaa8f820d5897c5ee06d18e1e187ad2a9481526020017f2ae7c06fdd5da0bf14a0eb91f22a8aec2a45803c3fbbd27e5d72d50878eea7bb8152508160800151600781518110610c4f57fe5b602002602001018190525060405180604001604052807f1769cd69b6d361360cb49f2270909fa4fccd96f44f2a017002405c9631a44be481526020017f2be7fbd9c9b5156e5f72ae86a8bf1275cf5592cabff11e3cb3bed1f12135c55a8152508160800151600881518110610cc057fe5b602002602001018190525060405180604001604052807e03455ba355d6917199d70d40e7824219b514512ee5326a803ecffcc47c8c9b81526020017f0f743675ff32f0dc4ca3fc7ad26b7bc5342f3ddff9b0eecfcac5fa32ba384f128152508160800151600981518110610d3057fe5b602002602001018190525060405180604001604052807f0a40a16d57153ed69eb42c5e8a7948bc95618ebc05c3368f3e2c22e3c9e33f9a81526020017f0547b90645d34932d2beb49f4dd6bc20d10b7d04248abbab4683e5fd375b01318152508160800151600a81518110610da157fe5b602002602001018190525060405180604001604052807f0466fe59f2d79770c5d5939556a46e130ae6e0ecbcd99bca6b6ea45bc15e480f81526020017f0c4acae43b42381d31d4039d4636bb73aa0d8d2660431fbe4e0f72be70e00b9f8152508160800151600b81518110610e1257fe5b602002602001018190525060405180604001604052807f016d863c26f0bfd51d130e7f66e68ff8951fe693559752988d733a2dea62abcc81526020017f1b21303a1f9e77e830cfe9dcfe232612c5f59a26308151664b143465a2ff84f48152508160800151600c81518110610e8357fe5b602002602001018190525060405180604001604052807f0dc729805441e5606d254f348bed73b116987aa01fdcaf1c5088b32a030d36a381526020017f0e338f15e5f0962a3854dce56e289bba61816310a6aaa52ee2515939020160528152508160800151600d81518110610ef457fe5b602002602001018190525060405180604001604052807f0e751cefbce3dfb99a10bc7ee7c2bc74fc2804c6c8fca72a8113a1d30b9a90ec81526020017f131969669835d41b618d947aaad4fb065f44ab4ba2fae375fb5c3595362deda28152508160800151600e81518110610f6557fe5b602002602001018190525060405180604001604052807f2a4dbbb17e169006c44747f0a53cf332ec4519fcb1c1c353d5567d929d7d169281526020017f1e17f9f22dc32812c967d0234be29aad668ee623e63049504db67f1c6edd5ba38152508160800151600f81518110610fd657fe5b602002602001018190525060405180604001604052807f228ad53e129c63b59135d77523baeb31b2bb459c18a8361510fb321d526b6a3e81526020017f014d92cfd298aba3fcf4fc011be9e46ed248b9ac26f0468fe02ba7278ccd30b8815250816080015160108151811061104757fe5b602002602001018190525060405180604001604052807f18a3cb56b5fc71328a410a96f778430727b5809a66bad30a332cb5e99d37ef5981526020017f15c12e93a0c805f5511867ee203b0357de1490b88edf2631dcbd0e3b2f28d74f81525081608001516011815181106110b857fe5b602002602001018190525060405180604001604052807f2fb373faeaee2058a7ca3f9f283c89c2244e8ccda1210d0d70a74a0ed1f4a68d81526020017f2b7d4a584e221ebbecbe00333c5a34f87481018f66cbc244244d85ee78e7a676815250816080015160128151811061112957fe5b602002602001018190525060405180604001604052807f1b4e77ecd44bc80eaeaa91ca2a9195f3d39c11a5d47079f6513cfa6e60d703f181526020017f2bcd563a4dfc2eedc9202b5d7ea511c135cfa3554e18c1eebc2d637721eb7679815250816080015160138151811061119a57fe5b602002602001018190525060405180604001604052807f0e854abdb8a09b6d52c0e27094acdcbe44e498363b5c4ffa55e479af8698f04581526020017f05ef54319daf8e38f21ecebb452710ed54486059cbb9092cfee872ae7d084c07815250816080015160148151811061120b57fe5b602002602001018190525060405180604001604052807f05f11e5d0312a73b414d7d860ebbca23d92e9f9564d086da3041970098b2d61481526020017f17866ae9e96443457310ff1e2d7fcbcf843385e2819add4677dcf8969f210846815250816080015160158151811061127c57fe5b602002602001018190525060405180604001604052807f28087742566fc65d016fe63a12465fbb0abd6891e8ffa292194187d6d1f2a30781526020017f0a188bc3b81306bbbbe21f7d76b8d397e62acf54519e74eaf7177917dee0da3a81525081608001516016815181106112ed57fe5b602002602001018190525060405180604001604052807f1402c99b6a37abfd088d05b82b7e3c4dc9dde736a0482aad3424b5d94e06c69581526020017f12d47cdf3bb6c2c473a1954ce3d812bcca2ee427ba7f985e4ddb621a324ff9cc815250816080015160178151811061135e57fe5b602002602001018190525060405180604001604052807f259d02c5915218efbe4fbc056b3eab2e08e61b2d7e58f66c32be531c924e7d4e81526020017f01594d31477f99f1334ac6b95c14d40a837fcf550155293026280e872af1283481525081608001516018815181106113cf57fe5b602002602001018190525060405180604001604052807f0e2f12a5b3858ce92f1182d203b4ad1441a40729fdf4eb5941bc1bdc29fdd72381526020017f0d67570100a1482df1e298576ca4897e0f5cb37b5812a56cbf3a6b356de35c5b815250816080015160198151811061144057fe5b602002602001018190525060405180604001604052807f25173cc579b5ab45f82bed3f7f32549660f406c6d23e9e793074f12b5a9fc34181526020017f0495c51a064f8ad623a82224aeed160e50de8de3623b788717c12ee58af74a0f8152508160800151601a815181106114b157fe5b602002602001018190525060405180604001604052807f1cb672a8d97a6d1036be1fe311499bd45615f1188b5b581c66722697bc05498081526020017f0bb6bfc4f7ed14c09802f4870a36f04601227deb621cbad4af70547d67e49e428152508160800151601b8151811061152257fe5b602002602001018190525060405180604001604052807f23a3bc6e4c8be2852fbefcc1e759c5485b95568680a7bee52f8204e153f4967781526020017f1f56f7e779e85c0276526e886cfdf2a26460ca59ae86835b464f13c9c130bb588152508160800151601c8151811061159357fe5b602002602001018190525060405180604001604052807f194eb6ff68b4e1437a6ab27c5d7f03e7b225e6bbb57bec225cf715e927954bdb81526020017f0b88bc3e68ac0fcbbedfd3c7396d308a961f95defd03210858bd9869698c03a58152508160800151601d8151811061160457fe5b602002602001018190525060405180604001604052807f1fcbfea451bdaba1bae1f50e2daf36dbc17bbc097fb6f92ca674507bad9b670e81526020017f23409f917fc9e1bb5696cd28618cff2f784681f6bd966adb348bbaa96b0b9c138152508160800151601e8151811061167557fe5b602002602001018190525060405180604001604052807f19b295c93617ac36bc5eccd37e708cdc55655997e24e99b2d17acada5fe9e9a781526020017f2ed43878d006f4cb08b15a2044ce25d3110d81e4648684cbaa3deb660a17f3c18152508160800151601f815181106116e657fe5b602002602001018190525060405180604001604052807f2a19cb00f062d9a58236b04841f33945d35ef307f48f2a03cfddc2a8321ae32581526020017f054dd309be659b11f667312bea9540044e65c4dd2bc50039d48d79fbeb7c4b1a815250816080015160208151811061175757fe5b602002602001018190525060405180604001604052807f2d9b862060742c74580802a7c6562a3199daa2fa6d3f99ac6b777bf20e8140e681526020017f204ac69d4cf2466e75d271ed04e45d1fd78918681fa6d6f79c93726199857a6081525081608001516021815181106117c857fe5b602002602001018190525060405180604001604052807f0dcd8a0b2035e844cfbf05341e48cd3d6c02ac56ea4ec6b6f9b55e13608d95ce81526020017f0882eca3fcd24fcb56d0b605ca0c76dceadf7a5b480fc130f142fac69545ec3c815250816080015160228151811061183957fe5b602002602001018190525060405180604001604052807f16546865bdd362f8c7d8bcfca2ba32d8bd31390e57ab0561c0c068ccbc4ca4c481526020017f292daeaca16b9e8e85daa43d171ddd059b8d3214b216c97acaff0f5eabaaa4ed81525081608001516023815181106118aa57fe5b602002602001018190525060405180604001604052807ec052ab9670cb46829e40f303d33685c664b33a171d8317f8043bc81572c64181526020017f1bc812ce3232ca01e123127d2afed642c74d10a059dcf3607835a0e1dd6db484815250816080015160248151811061191a57fe5b602002602001018190525060405180604001604052807f08f93b3b1548b83ac64398a359fbab274fad055c9119424c9886022ce7d1650481526020017f0ef25b42b28e81506d4ca2cdcfc5480f4810a4e49444dbe009ca6abbc9cf180f815250816080015160258151811061198b57fe5b602002602001018190525060405180604001604052807eb395f6b8adfb9367a55dec09f6595fa1d766b5e8151e10622773db033ff5a181526020017f2e4b08c4327757b9aefd5480aacf97c2677ab564191276bf550ea2eda426eac981525081608001516026815181106119fb57fe5b602002602001018190525060405180604001604052807f24fab52c41929af38e1d442071b2bfccfe6afe3f50c2cbd813b107385dc07f6481526020017f2315a02aa6814c362e0b2fe0a27531bcdb7a980dc90e3dde8ef98557062451c88152508160800151602781518110611a6c57fe5b602002602001018190525060405180604001604052807f1f27d6c626a9098f844d8c05f2af8ef46dbd3cec002b10d6d0b05bcf64165f1981526020017f304c727d90476e82e656d93b05b33821ae67c0bea63713bf1d53ece3ded0048b8152508160800151602881518110611add57fe5b602002602001018190525060405180604001604052807f0c2d7afcaf3fc4eeb75c71ea026c09033c80cf3ccbb1a2090107862fea1cb9df81526020017f28a17cdf39471112f9eab40e4d51cdf86034ae19eeeb692619825361cd9236df8152508160800151602981518110611b4e57fe5b602002602001018190525060405180604001604052807f23261b5cc61c2d19d93c9110272d2455d5bfa2011ae924b65833de6dd4ad600381526020017f0a0272318856a47b05a0b00f14109d5c6c0b4178db8f34354ce9de3c281b520f8152508160800151602a81518110611bbf57fe5b602002602001018190525060405180604001604052807f2df991e493fd55faed6328fa893726c4a0d067398d7b4120e4d8cf95603ad42981526020017f2c7f5da1831ec28fe2a4ec431ef5e61a6d9b9c3b462e994cf6e3605f3151e9488152508160800151602b81518110611c3057fe5b602002602001018190525060405180604001604052807f29e87657cce2e20f68d357fb4fa735ece21f6dd906b4f0c1d3964badb3cec23281526020017f17fcb0c4e4999b4b6c36d086caddda57aa7fdfde388d7ca055bf488b811952648152508160800151602c81518110611ca157fe5b602002602001018190525060405180604001604052807f01ad7aebc3aad7652451cfdbbb6b28acf787043c019eca9956eaa6268319d72181526020017f2449cb8fcd737ff10c9759e2711bb8488365ecc09208a2b281d97e39e61d77c08152508160800151602d81518110611d1257fe5b602002602001018190525060405180604001604052807f2afe5d74197fda5d83e26b091ec3ce162ee2a8922a0882428589fa41eb30a63b81526020017f27a39cf644c10eb39905302a4905e62b7d99bc8c09223b6e75a3fbedda150fff8152508160800151602e81518110611d8357fe5b602002602001018190525060405180604001604052807f1625d86ce13603275a316503ca5f87b54067279d2943db6e52cfdb49d76b8cd281526020017f2d0fec86f13bb777b120ed5df62ef31dc120b09af8daf5783498d58f3f229da38152508160800151602f81518110611df457fe5b602002602001018190525060405180604001604052807f0dfee19e9d2262beafcb0e0a06d37c4b14476f835fd05574325f821b77b5d21b81526020017f0da1fb3a9b2c4a6f3f8de1c6e685e27f5ed29b2ed346ae1d0a5b0a8fdfd421d48152508160800151603081518110611e6557fe5b602002602001018190525060405180604001604052807f29ceedd69b2ad8cf0a0e576752c630d7c82259ca9c2c32a915d6c82bd8ccef7281526020017f2f5006f410d383104646b818c8e9b73ff1123321472efc37324dc3a68be79ce98152508160800151603181518110611ed657fe5b602002602001018190525060405180604001604052807f2a38620a027cf97f7a431389d9345f564ec79965e65a18d28f53aec539cba1e081526020017f05c5cd490a2195971a10c811455893518d96dfba9d36174d79d9c0c55fb41db48152508160800151603281518110611f4757fe5b602002602001018190525060405180604001604052807f186175504cd93a1766dd74006cbe390c9c5986fc0e724924bfb14a880240b1ce81526020017f1c008fcd17405c338852734ed52bc128e2c61834102eca42342fd869a4dd89158152508160800151603381518110611fb857fe5b602002602001018190525060405180604001604052807f27df9f0d5419f59ea992a49a2d94a7524bcfe5ec8b59dbc52b2ec95ea7e6087181526020017f1e90d5cee6046ec10dc14b15b21360db51f6fc2307de1023b0d343261e54faa4815250816080015160348151811061202957fe5b602002602001018190525060405180604001604052807f0b346a78dca7d8bd1add7a53d548fb383a7b52b4b5c9f7a6a96a0e6fbdc83fb781526020017f1be4e9972c9dde5337aa9e2b84d131f139574ea366a9897013b7b50324c57561815250816080015160358151811061209a57fe5b602002602001018190525060405180604001604052807f2b760c33a64b8cfc96bc467b8868f428473303a013c6d8e8a320e8eea140f89081526020017f18e1982a845372a8ccfbfb9bafbc6fdcdc4981b474c586c67063bf25001f2787815250816080015160368151811061210b57fe5b602002602001018190525060405180604001604052807f0441cd2d7094f7318620338e25e1a984963c9cd6f23366946cf977cae8aa62f681526020017f0e3d20301f0a52a3b09307779c50152b459f07bfe360f411e9f0929ca97ea2df815250816080015160378151811061217c57fe5b602002602001018190525060405180604001604052807f0b8fa3cc9103946b0e15c322090063cdb72f70dc8d084132348811bfa5feba5e81526020017f2804017bfd0f1fa643649d6ae27dc98910a82987b368bfabb609c769c6ff630d81525081608001516038815181106121ed57fe5b602002602001018190525060405180604001604052807f1117f05e40703c0dffd45b0ee5e49051804faa60631972f028c5369ebc657fdb81526020017f11dde3e354d4803b66587a73cfc0f3cb4df60faf652af1a64326b01cccd47e38815250816080015160398151811061225e57fe5b602002602001018190525060405180604001604052807f0775acc1fb6d9eb0b778e387edce2d8c68a67ad9c9e31ac5fa771000fd2dd8ab81526020017f205667208733f4d240ff8a5f102d2d1fd02540f83a5c214759f81a86e398a3ff8152508160800151603a815181106122cf57fe5b602002602001018190525060405180604001604052807f11c2ff3924db31381ccf3c79ab8429684097874d8f20f57d2188a5e2c2c913d881526020017f2acbc9b9215f237a0a6e979575fc1a5893dc12fed3e4b7a7090d8268359cbbe18152508160800151603b8151811061234057fe5b602002602001018190525060405180604001604052807f0fc54ec654fb99bac90f54aaf1b4033e34bf1dc72be64d792493dfbe83be73fc81526020017f2fcb6862f4febfee56f74e197699c43e50616eab8bf2d0fa24ec7967ebc52d088152508160800151603c815181106123b157fe5b602002602001018190525060405180604001604052807f0f8ee3cf7c1e99cb03598f9048208eaebd4cd9f1ea5df30e3310707d8e10825b81526020017f2c9572f39f4e6650b771df4c60981af763336f702db7fb280177bfa504acffd78152508160800151603d8151811061242257fe5b602002602001018190525060405180604001604052807f0c984701b3fdab2c2b00014fd4016c7e1d8ad70d8d03e948b7e59d36d108588181526020017f0f3b08445558097b4321c430e13ea8cf811fdfc752773a56babd531070dd854c8152508160800151603e8151811061249357fe5b602002602001018190525060405180604001604052807f0fe93ecf6b1175bf19f348af8204790366691257cacc8f8629a0ac2d67fc055e81526020017f107240e6e46b88c0e3a291417d7d5ca3436435d09624d218e74511d14447c8468152508160800151603f8151811061250457fe5b602002602001018190525060405180604001604052807f096992bf886480b15fcba30e8ed8c96f5788e9a587bb716ed872b3260d83a6bf81526020017f29a6cf2285687130eccc88a3d6315ec3a583ae4e96844981d4334b3eef1bc862815250816080015160408151811061257557fe5b602002602001018190525060405180604001604052807f2f930635747e897f1d8b011580f4cef84dc604a7d9c5e9be0886241b0fb6768e81526020017f203470f31dc1bb374e42546e5c5a119a3d30c300b1ac24d45b49fb82ccb84c1581525081608001516041815181106125e657fe5b602002602001018190525060405180604001604052807f1583d3a93a4942e39abb9444982a01ff3c5893d93edec446cc102361be08d96481526020017f0820c52e39c1d0490bf4f13afd3ba7e0366c89cfd1559915d2a3fd117bdd2257815250816080015160428151811061265757fe5b602002602001018190525060405180604001604052807f182ebdccdb673405cb068a1b3bd97f1e90a86ed46cbe8e9086d0e015b663d8d581526020017f020f10cba402297e37cab033cb963ddfe812ad52330d7d304d5a5456b0f50b9881525081608001516043815181106126c857fe5b602002602001018190525060405180604001604052807f0aa04bbf164bcf1775dd7066449d6e0276360eaecec4fc86d7c358e18738a11f81526020017f02912ea9b364bc4ba404b736966453742092d7ebbfdfd87f338da96c5e823247815250816080015160448151811061273957fe5b602002602001018190525060405180604001604052807f2e71553f94e2bd501abc96245af84d53a5fb6f94db97d41e10eaad9e20b0d38f81526020017f01e6e0d32b6a0b8dd6039c9f71791605078ab1479537363b6fb3d3e867dfcbdb81525081608001516045815181106127aa57fe5b602002602001018190525060405180604001604052807f1e7f4fd95c894e1a6d60e8f4d6a119c49a363c4dd418158b412db838ff200b2681526020017f066a58d3ae9f945e15f34cc25df325bd5f48579030914171fddfeb8c428a57e4815250816080015160468151811061281b57fe5b602002602001018190525060405180604001604052807f29d45226ed0a2116e3fced8fb228e3cb5d898f2f93b88307457196a3a9071ad381526020017f07c97e84996adc24abf24a0dea6668650fcc869d696058fc61b2b7f533d4cd3a815250816080015160478151811061288c57fe5b602002602001018190525060405180604001604052807f2dd6d3c772314e6a53d4eb7013f009a356d66315df35af44710396861d627f7881526020017f1a6868a655d1b6bb4cd79be4f9d625aacfe36c2ba56b86de1025b5f1601807bd81525081608001516048815181106128fd57fe5b602002602001018190525060405180604001604052807ee110d1e87550add1dfdc754cd10f8365be35f3fe76bbdfd2eaf11f09ffe68a81526020017f10ebda35a05e7b15bbd87e4bdd4875406514a6d02d0f1a0add6e8297c604d792815250816080015160498151811061296d57fe5b602002602001018190525090565b6129836130f8565b61298b61312c565b83600001518160006003811061299d57fe5b6020020181815250508360200151816001600381106129b857fe5b60200201818152505082816002600381106129cf57fe5b602002018181525050600080600081146129e8576129ea565bfe5b5080612a5e576040517f08c379a00000000000000000000000000000000000000000000000000000000081526004018080602001828103825260128152602001807f70616972696e672d6d756c2d6661696c6564000000000000000000000000000081525060200191505060405180910390fd5b505092915050565b612a6e6130f8565b612a7661314e565b836000015181600060048110612a8857fe5b602002018181525050836020015181600160048110612aa357fe5b602002018181525050826000015181600260048110612abe57fe5b602002018181525050826020015181600360048110612ad957fe5b60200201818152505060008060008114612af257612af4565bfe5b5080612b68576040517f08c379a00000000000000000000000000000000000000000000000000000000081526004018080602001828103825260128152602001807f70616972696e672d6164642d6661696c6564000000000000000000000000000081525060200191505060405180910390fd5b505092915050565b612b786130f8565b60007f30644e72e131a029b85045b68181585d97816a916871ca8d3c208c16d87cfd47905060008360000151148015612bb5575060008360200151145b15612bd9576040518060400160405280600081526020016000815250915050612c05565b60405180604001604052808460000151815260200182856020015181612bfb57fe5b0683038152509150505b919050565b600060606004604051908082528060200260200182016040528015612c4957816020015b612c36613112565b815260200190600190039081612c2e5790505b50905060606004604051908082528060200260200182016040528015612c8957816020015b612c76613170565b815260200190600190039081612c6e5790505b5090508a82600081518110612c9a57fe5b60200260200101819052508882600181518110612cb357fe5b60200260200101819052508682600281518110612ccc57fe5b60200260200101819052508482600381518110612ce557fe5b60200260200101819052508981600081518110612cfe57fe5b60200260200101819052508781600181518110612d1757fe5b60200260200101819052508581600281518110612d3057fe5b60200260200101819052508381600381518110612d4957fe5b6020026020010181905250612d5e8282612d6e565b9250505098975050505050505050565b60008151835114612de7576040517f08c379a00000000000000000000000000000000000000000000000000000000081526004018080602001828103825260168152602001807f70616972696e672d6c656e677468732d6661696c65640000000000000000000081525060200191505060405180910390fd5b6000835190506000600682029050606081604051908082528060200260200182016040528015612e265781602001602082028038833980820191505090505b50905060008090505b83811015612fcc57868181518110612e4357fe5b602002602001015160000151826000600684020181518110612e6157fe5b602002602001018181525050868181518110612e7957fe5b602002602001015160200151826001600684020181518110612e9757fe5b602002602001018181525050858181518110612eaf57fe5b602002602001015160000151600060028110612ec757fe5b6020020151826002600684020181518110612ede57fe5b602002602001018181525050858181518110612ef657fe5b602002602001015160000151600160028110612f0e57fe5b6020020151826003600684020181518110612f2557fe5b602002602001018181525050858181518110612f3d57fe5b602002602001015160200151600060028110612f5557fe5b6020020151826004600684020181518110612f6c57fe5b602002602001018181525050858181518110612f8457fe5b602002602001015160200151600160028110612f9c57fe5b6020020151826005600684020181518110612fb357fe5b6020026020010181815250508080600101915050612e2f565b50612fd5613196565b60008060008114612fe557612fe7565bfe5b508061305b576040517f08c379a00000000000000000000000000000000000000000000000000000000081526004018080602001828103825260158152602001807f70616972696e672d6f70636f64652d6661696c6564000000000000000000000081525060200191505060405180910390fd5b60008260006001811061306a57fe5b602002015114159550505050505092915050565b6040518060600160405280613091613112565b815260200161309e613170565b81526020016130ab613112565b81525090565b6040518060a001604052806130c4613112565b81526020016130d1613170565b81526020016130de613170565b81526020016130eb613170565b8152602001606081525090565b604051806040016040528060008152602001600081525090565b604051806040016040528060008152602001600081525090565b6040518060600160405280600390602082028038833980820191505090505090565b6040518060800160405280600490602082028038833980820191505090505090565b60405180604001604052806131836131b8565b81526020016131906131b8565b81525090565b6040518060200160405280600190602082028038833980820191505090505090565b604051806040016040528060029060208202803883398082019150509050509056fea265627a7a723158205bda4b083fe8c5e2b066637664fe4ac48d83048d138d33f539bfd5cad18d35cf64736f6c634300050b0032",
  "source": "pragma solidity ^0.5.11;\nlibrary Pairing {\n    struct G1Point {\n        uint X;\n        uint Y;\n    }\n    // Encoding of field elements is: X[0] * z + X[1]\n    struct G2Point {\n        uint[2] X;\n        uint[2] Y;\n    }\n    /// @return the generator of G1\n    function P1() internal pure returns (G1Point memory) {\n        return G1Point(1, 2);\n    }\n    /// @return the generator of G2\n    function P2() internal pure returns (G2Point memory) {\n        // Original code point\n        return G2Point(\n            [11559732032986387107991004021392285783925812861821192530917403151452391805634,\n             10857046999023057135944570762232829481370756359578518086990519993285655852781],\n            [4082367875863433681332203403145435568316851327593401208105741076214120093531,\n             8495653923123431417604973247489272438418190587263600148770280649306958101930]\n        );\n\n/*\n        // Changed by Jordi point\n        return G2Point(\n            [10857046999023057135944570762232829481370756359578518086990519993285655852781,\n             11559732032986387107991004021392285783925812861821192530917403151452391805634],\n            [8495653923123431417604973247489272438418190587263600148770280649306958101930,\n             4082367875863433681332203403145435568316851327593401208105741076214120093531]\n        );\n*/\n    }\n    /// @return the negation of p, i.e. p.addition(p.negate()) should be zero.\n    function negate(G1Point memory p) internal pure returns (G1Point memory) {\n        // The prime q in the base field F_q for G1\n        uint q = 21888242871839275222246405745257275088696311157297823662689037894645226208583;\n        if (p.X == 0 && p.Y == 0)\n            return G1Point(0, 0);\n        return G1Point(p.X, q - (p.Y % q));\n    }\n    /// @return the sum of two points of G1\n    function addition(G1Point memory p1, G1Point memory p2) internal view returns (G1Point memory r) {\n        uint[4] memory input;\n        input[0] = p1.X;\n        input[1] = p1.Y;\n        input[2] = p2.X;\n        input[3] = p2.Y;\n        bool success;\n        // solium-disable-next-line security/no-inline-assembly\n        assembly {\n           // success := staticcall(sub(gas, 2000), 6, input, 0xc0, r, 0x60)\n            // Use \"invalid\" to make gas estimation work\n            switch success case 0 { invalid() }\n        }\n        require(success,\"pairing-add-failed\");\n    }\n    /// @return the product of a point on G1 and a scalar, i.e.\n    /// p == p.scalar_mul(1) and p.addition(p) == p.scalar_mul(2) for all points p.\n    function scalar_mul(G1Point memory p, uint s) internal view returns (G1Point memory r) {\n        uint[3] memory input;\n        input[0] = p.X;\n        input[1] = p.Y;\n        input[2] = s;\n        bool success;\n        // solium-disable-next-line security/no-inline-assembly\n        assembly {\n            //success := staticcall(sub(gas, 2000), 7, input, 0x80, r, 0x60)\n            // Use \"invalid\" to make gas estimation work\n            switch success case 0 { invalid() }\n        }\n        require (success,\"pairing-mul-failed\");\n    }\n    /// @return the result of computing the pairing check\n    /// e(p1[0], p2[0]) *  .... * e(p1[n], p2[n]) == 1\n    /// For example pairing([P1(), P1().negate()], [P2(), P2()]) should\n    /// return true.\n    function pairing(G1Point[] memory p1, G2Point[] memory p2) internal view returns (bool) {\n        require(p1.length == p2.length,\"pairing-lengths-failed\");\n        uint elements = p1.length;\n        uint inputSize = elements * 6;\n        uint[] memory input = new uint[](inputSize);\n        for (uint i = 0; i < elements; i++)\n        {\n            input[i * 6 + 0] = p1[i].X;\n            input[i * 6 + 1] = p1[i].Y;\n            input[i * 6 + 2] = p2[i].X[0];\n            input[i * 6 + 3] = p2[i].X[1];\n            input[i * 6 + 4] = p2[i].Y[0];\n            input[i * 6 + 5] = p2[i].Y[1];\n        }\n        uint[1] memory out;\n        bool success;\n        // solium-disable-next-line security/no-inline-assembly\n        assembly {\n         //   success := staticcall(sub(gas, 2000), 8, add(input, 0x20), mul(inputSize, 0x20), out, 0x20)\n            // Use \"invalid\" to make gas estimation work\n            switch success case 0 { invalid() }\n        }\n        require(success,\"pairing-opcode-failed\");\n        return out[0] != 0;\n    }\n    /// Convenience method for a pairing check for two pairs.\n    function pairingProd2(G1Point memory a1, G2Point memory a2, G1Point memory b1, G2Point memory b2) internal view returns (bool) {\n        G1Point[] memory p1 = new G1Point[](2);\n        G2Point[] memory p2 = new G2Point[](2);\n        p1[0] = a1;\n        p1[1] = b1;\n        p2[0] = a2;\n        p2[1] = b2;\n        return pairing(p1, p2);\n    }\n    /// Convenience method for a pairing check for three pairs.\n    function pairingProd3(\n            G1Point memory a1, G2Point memory a2,\n            G1Point memory b1, G2Point memory b2,\n            G1Point memory c1, G2Point memory c2\n    ) internal view returns (bool) {\n        G1Point[] memory p1 = new G1Point[](3);\n        G2Point[] memory p2 = new G2Point[](3);\n        p1[0] = a1;\n        p1[1] = b1;\n        p1[2] = c1;\n        p2[0] = a2;\n        p2[1] = b2;\n        p2[2] = c2;\n        return pairing(p1, p2);\n    }\n    /// Convenience method for a pairing check for four pairs.\n    function pairingProd4(\n            G1Point memory a1, G2Point memory a2,\n            G1Point memory b1, G2Point memory b2,\n            G1Point memory c1, G2Point memory c2,\n            G1Point memory d1, G2Point memory d2\n    ) internal view returns (bool) {\n        G1Point[] memory p1 = new G1Point[](4);\n        G2Point[] memory p2 = new G2Point[](4);\n        p1[0] = a1;\n        p1[1] = b1;\n        p1[2] = c1;\n        p1[3] = d1;\n        p2[0] = a2;\n        p2[1] = b2;\n        p2[2] = c2;\n        p2[3] = d2;\n        return pairing(p1, p2);\n    }\n}\ncontract TxVerifier {\n    using Pairing for *;\n    struct VerifyingKey {\n        Pairing.G1Point alfa1;\n        Pairing.G2Point beta2;\n        Pairing.G2Point gamma2;\n        Pairing.G2Point delta2;\n        Pairing.G1Point[] IC;\n    }\n    struct Proof {\n        Pairing.G1Point A;\n        Pairing.G2Point B;\n        Pairing.G1Point C;\n    }\n    function verifyingKey() internal pure returns (VerifyingKey memory vk) {\n        vk.alfa1 = Pairing.G1Point(18935046240810266579293064504871605100057505623655482470551427083683708186012,5254177314664714383465146882183187842256122066042014595274569267198974184010);\n        vk.beta2 = Pairing.G2Point([15188753725641645801882210059059127483093021753719321207926012779131041394385,20252290172195212693041926786939786575726664119821857885964720582321364923121], [17715810429903594386251562204265593412966438528743457976128482718947929378976,8797220105581043522855329892477800478233770680662356153423358154138944945882]);\n        vk.gamma2 = Pairing.G2Point([4038523802716541317805925040875767931279372953624428881925865932194340072963,18726673763707384281543308539196110843454993788256003713270442176397073990653], [12062315701754519590104438429248194427500995125000243876828628992069402839296,20139385448188943061517729185914135075379441898112351653768057161363873459313]);\n        vk.delta2 = Pairing.G2Point([3611216274751969004324019447828728523451668962625868847341908520305961813051,6295466639168620739859950851108962119806170858640171661595522171921759777146], [4705917227987810958435795034413384037598514562725504649340193865395847006456,2027129054801800087465599925624670904516476096670685419472500104951634217491]);\n        vk.IC = new Pairing.G1Point[](74);\n        vk.IC[0] = Pairing.G1Point(6672901754839383663105830115165963319523181603703040356582892581469912792959,16628283106548632430982238894784511267612848349085416836948021796162916215280);\n        vk.IC[1] = Pairing.G1Point(1371148304247763551521476073560410773232973603976147594575976320145451367639,4060921922708084535021213415284996424833587474747169226356867483781784816628);\n        vk.IC[2] = Pairing.G1Point(11840678946797306830337720730355552304276662238333317418526282945191300221447,19974724930905201006444502906878144272188827832660063734134266303104933119055);\n        vk.IC[3] = Pairing.G1Point(20552599527519614811925742063889886937773129767020398542955821847910135772530,9806157810943777708984994128630052416947020293976896260778378076933475623562);\n        vk.IC[4] = Pairing.G1Point(7208756219318863329168464364105354945698194023154430593947885351937497319297,14650554044896968885295125762976350691444113089486607793308761937165209764505);\n        vk.IC[5] = Pairing.G1Point(17222736843320674083828725533319791370288957699234367415534741567697208808411,7677396271550005175981153864611421141967773087157622241621993639540461222776);\n        vk.IC[6] = Pairing.G1Point(16386624547873306735109315048006275143127568258292184560772515615586083920688,11707494150173707861619596903848968183455518707744371102338997957054220240746);\n        vk.IC[7] = Pairing.G1Point(18342665972070320695198880158899083057694481922412678556885117531599959566996,19406609463626191683009741995568312728610039251121332276601752993560146126779);\n        vk.IC[8] = Pairing.G1Point(10590132167266143064927732175600231750317667584230265869818204713571097791460,19859332370927996828505439159111417631944938464552838145696187752080142091610);\n        vk.IC[9] = Pairing.G1Point(5779232248625724122911207414442457616807972122005142184594785759674535067,6990022863755365385321725331941850441791410516537069024558022299345416113938);\n        vk.IC[10] = Pairing.G1Point(4637320826945409732456420163604688871746044513740201709825244043235041689498,2388287376702899602500457278520224551284456989540568545227027113617422745905);\n        vk.IC[11] = Pairing.G1Point(1991225263522062743997557124876790980079136263342744479224027203069334669327,5559901171663355110528875108887928923340030704353973207185277605411450522527);\n        vk.IC[12] = Pairing.G1Point(645825634352285864630279280270015595524334786568590149915025124475256613836,12271085715717302965606106692556986586425519543914016111669060464461735757044);\n        vk.IC[13] = Pairing.G1Point(6231956028820093882142889767607549244358558111889383875405034898357297690275,6423476620571384470085349377720947452265417532824820071073213742054300016722);\n        vk.IC[14] = Pairing.G1Point(6539300698962216718118835525156105285078969093421233895409551971617487884524,8638842749012106157640003055084348814402682145015768048747192152143218732450);\n        vk.IC[15] = Pairing.G1Point(19134482276241164293006211836117782893373019083416661882477048375282878977682,13611748003954674659320574977476693167480313987978032073277581745050888264611);\n        vk.IC[16] = Pairing.G1Point(15623933492218990149953806173693324896267220759820609966491118455568814795326,589373330425179743597494093490120682095647545583543935742228988806409564344);\n        vk.IC[17] = Pairing.G1Point(11144907829786455306449883621651917390194841181127239143858837439292890410841,9839892764127186237931464084091050847386478965536894921335275395330104416079);\n        vk.IC[18] = Pairing.G1Point(21575769973566434501156711538891439075058757314896085959617434271618480514701,19670821482111116878876367900954053878783008895693628981928303210590036797046);\n        vk.IC[19] = Pairing.G1Point(12351088675520968512383922991573305953403688646969645988186240562498069005297,19812251259435542828185215787471963702070046069087505000809803601121932703353);\n        vk.IC[20] = Pairing.G1Point(6567886383884368757189736886287251431198468469654833395740441050330535882821,2684421775735132053379559906813112972489515168666906187675012523004311129095);\n        vk.IC[21] = Pairing.G1Point(2687583945516976703336547533080551697598234111969900286615578011960620537364,10640690915454773352108417278373770641816626999564643793260570360746566813766);\n        vk.IC[22] = Pairing.G1Point(18107471816123469311102607920867098340156600486848951652701121763814782706439,4566497434704437724099427225048560555937339623826260220094391007059172710970);\n        vk.IC[23] = Pairing.G1Point(9051182106788327827048294757418590717052502145803303641817958746334377199253,8517064687135529918024593735516790377754769240088264196674955444102068435404);\n        vk.IC[24] = Pairing.G1Point(17012989516657304926133863309848762206583369497389186242266215566472035335502,610095000384297011221696958455821341210873302763691209276987823551895644212);\n        vk.IC[25] = Pairing.G1Point(6415550390941595480968374163379029828898487374101906630526115691049594509091,6062652758213101627372389929189390208094906275706606353196116598189937876059);\n        vk.IC[26] = Pairing.G1Point(16776632308778581670621637250131435750017748899338490809805859047104340542273,2073871952638571472226584810133432772537458264449615783449464829408422873615);\n        vk.IC[27] = Pairing.G1Point(12987117277378829467114434452740620462333963453587334251730658993023647828352,5298331044017045514146162852691334231351790868569223937957792536489235881538);\n        vk.IC[28] = Pairing.G1Point(16120246273941809705551359283052035797361428665638027550091791796557441177207,14175358125585910882946073318584240799711226142995406665946442836689011391320);\n        vk.IC[29] = Pairing.G1Point(11446898289282777716299889065863497530278052819442908636805496276205455100891,5217031746078940942758899506868841510759517186743672389327851712367970485157);\n        vk.IC[30] = Pairing.G1Point(14382125733842929791473249038806849740685325175029233473139223839152233211662,15945129212879257009557942872528552682786875849669483913484718935076818885651);\n        vk.IC[31] = Pairing.G1Point(11623353776963766149514475373005925817342769488101747949185501167999089502631,21181352367460109963936916645940062421775295887878821879406052275182527574977);\n        vk.IC[32] = Pairing.G1Point(19042711896940661010946360168645586248589241221433406349033272612269284057893,2399067998074093943807043450386140900772891208381502793605021625717482081050);\n        vk.IC[33] = Pairing.G1Point(20628865188174171400173062569254836710520204601665337654709070442913444479206,14606128624049816514177453443167371798901345545435832777177974277616058071648);\n        vk.IC[34] = Pairing.G1Point(6243223420809471783218937197961023834322924383035773931913906061602741654990,3849826140321685102662170607549483253134477795243559847047798762717955091516);\n        vk.IC[35] = Pairing.G1Point(10100018346838906961052435852095639802785242770404607835257637267478418334916,18625540467803668522534178162617610789697709589707241111447024071888643728621);\n        vk.IC[36] = Pairing.G1Point(339805205632011229181393903021219285873536703238412258269750763316797687361,12565946115173633018853143012784998311750049406019024079885201534059008603268);\n        vk.IC[37] = Pairing.G1Point(4058856503708736062808988138440203452790638280820919629493233706013123765508,6760586726920347546876522025333908342559279743093558991943571403215393986575);\n        vk.IC[38] = Pairing.G1Point(317300636396916713900247793497932912689659998257710317204121819806775113121,20938965068123663089099926495115260877548430199119857824114031577514214091465);\n        vk.IC[39] = Pairing.G1Point(16726224724424217382586782543814166048798237639563275906275563184045246414692,15869158918042946580858403293833518608138479926788640463935421035003615924680);\n        vk.IC[40] = Pairing.G1Point(14092087657466673319167986597268906618444386842530890331845027526773900205849,21846087293191166660090314605196606029176530555903307209530197896207629550731);\n        vk.IC[41] = Pairing.G1Point(5508111126330976723132639470882176895776614832703728643112986868077012236767,18377838155407119984560930463515651042158087312538985616465831589072591795935);\n        vk.IC[42] = Pairing.G1Point(15898278737205783677413364857883797499438750264264061740092915159509041504259,4527450314441255792012471415678278992198715995879666183015248811960926163471);\n        vk.IC[43] = Pairing.G1Point(20795030021050053120319268836584837411103877002499147401184976604168619480105,20126801131660804973892915463044647460052606425005708221973648162691879135560);\n        vk.IC[44] = Pairing.G1Point(18955552084103830189001353098353733211217390515954201563577873321753979044402,10849660993320254282974902408164987615530776653446614643577453627846432477796);\n        vk.IC[45] = Pairing.G1Point(758825760037879052185800493880036104511757789538134838244128559680389240609,16413647316143717566788673144275960327798234139062417518684637896299482281920);\n        vk.IC[46] = Pairing.G1Point(19446563787400365804207004916924887743376160040188098306045540232520111531579,17929280478123900292128462206739030948708231002599083258716555500086862614527);\n        vk.IC[47] = Pairing.G1Point(10017749722831292583236725649234479038935179817035044579608516104049910320338,20382213342394187518306060620754929840652008233419884912119340962538980548003);\n        vk.IC[48] = Pairing.G1Point(6330403355183949212809443996841405593887833208235592080593591383203304034843,6166263327363359422652689287677687798629515577346589194650040481823031828948);\n        vk.IC[49] = Pairing.G1Point(18910438786912076633757416639102151073439568581119074912445163724106682396530,21400099639072866171187936688645693351382412808399181860952155964718329601257);\n        vk.IC[50] = Pairing.G1Point(19096759717128266133270714515221122587497584245051935839295816929074431631840,2611049941821811133901213488674299147488365760482048707688188142462677818804);\n        vk.IC[51] = Pairing.G1Point(11027702200493300607290845412816740014683081726682363777633652235097446855118,12665752239296775634024659963097734697490604129678875313448285301077614364949);\n        vk.IC[52] = Pairing.G1Point(18035305727198326824060129460365897048092707941859741478265884219915079387249,13825287084770609381106491407840769085816925599573659824117076170177957395108);\n        vk.IC[53] = Pairing.G1Point(5068052225328518383082401539877855037317395218022637444857977551702976905143,12616900225067097204235406552443007780501768673629533616412863354369575581025);\n        vk.IC[54] = Pairing.G1Point(19658024656150665746673968410916867905440772150067182416031673670056712140944,11254099167271552951468884587459855818417390213529282672230838012038063531911);\n        vk.IC[55] = Pairing.G1Point(1925512536598610182334387121361525299330635591858382218571620947153461601014,6440379704346675802138405394066726041549193763808549342323526958796549038815);\n        vk.IC[56] = Pairing.G1Point(5229230964434641111049429684095803399703540358485436499571647099019034802782,18099591576059787215309436850352728878362873480257674676391140194108231869197);\n        vk.IC[57] = Pairing.G1Point(7731614868549805187946604864712030310305282345412492920479004151641775898587,8081364452493816742984402954365072628156857637949368281894845497014769450552);\n        vk.IC[58] = Pairing.G1Point(3374103376781770635693914941661267904657557069923770944472318031347997071531,14626671759066011228210096478828849814867633928935592943500335505782280332287);\n        vk.IC[59] = Pairing.G1Point(8033848242399339750407602511106608957478604775270858962265139971755229123544,19357201836767482023967179013958559541887637015374547381810982510630719503329);\n        vk.IC[60] = Pairing.G1Point(7133305283744562243452249086691154563242229738473958386890194762169334002684,21618094287059368999615155625331158390584641436687420409962441226725458521352);\n        vk.IC[61] = Pairing.G1Point(7037157302148520545498437944405089854446887057913467914696697955925024080475,20165818917443180723926475232209188913011063424095517011876200356596933263319);\n        vk.IC[62] = Pairing.G1Point(5696805006751333311330803573102223926925447785821095093384135004371995351169,6888993761805829320059491052130641265649514870424466639371980408290591737164);\n        vk.IC[63] = Pairing.G1Point(7196801595100418303748173221812633778407852215549678130835361956263020463454,7438874079326365569973758990020457913866228827720954031274567280340974946374);\n        vk.IC[64] = Pairing.G1Point(4257347397731388780373707557321699029741342602125557790922259368973724526271,18839552996848605853357505321988174931557057353724811040628586202442938173538);\n        vk.IC[65] = Pairing.G1Point(21518473253559477027898241402042765485477871063869921532579656146694983546510,14566666752024633971687053444618755949152187993807688002728545483673321360405);\n        vk.IC[66] = Pairing.G1Point(9731487616582972921986972761639305536013113740739917590970228281995650718052,3676402785009434757162134416861564428766084016232495284034412850371457000023);\n        vk.IC[67] = Pairing.G1Point(10938093283972709730313981771677284588359945332156214713407676260633524033749,931244321221035884955557312474129399229790345212882885466751246560809782168);\n        vk.IC[68] = Pairing.G1Point(4806346798871084505119401136434576561003925789040108811981309157429887934751,1161140577014678020690011140963061166420336958494664895491751442771769176647);\n        vk.IC[69] = Pairing.G1Point(21006633115745822911377259699774627557810276974778096862102086182370844660623,860239357784775618405277846351673202886772084229972479488343252231247612891);\n        vk.IC[70] = Pairing.G1Point(13794326132739884558934410537055083053004040551968961968995211770256882141990,2901775940983357381472869308799476201341322393678203709589660427660187817956);\n        vk.IC[71] = Pairing.G1Point(18919965362288529638616135964413213756079239594244403304799694056835651148499,3522199395012715896400957072834361620358526156172135963506748991311357201722);\n        vk.IC[72] = Pairing.G1Point(20733645103644005984905368687675937884597450768442925909415752863404123127672,11944608423910907076996829586478354567851708857291000593081419958452284295101);\n        vk.IC[73] = Pairing.G1Point(397656676626250879195718239397739275538834180136339225580951783163939513994,7653720664024790047185572483574238339978703489074367550636954208247715518354);\n\n    }\n    function verify(uint[] memory input, Proof memory proof) internal view returns (uint) {\n        uint256 snark_scalar_field = 21888242871839275222246405745257275088548364400416034343698204186575808495617;\n        VerifyingKey memory vk = verifyingKey();\n        require(input.length + 1 == vk.IC.length,\"verifier-bad-input\");\n        // Compute the linear combination vk_x\n        Pairing.G1Point memory vk_x = Pairing.G1Point(0, 0);\n        for (uint i = 0; i < input.length; i++) {\n            require(input[i] < snark_scalar_field,\"verifier-gte-snark-scalar-field\");\n            vk_x = Pairing.addition(vk_x, Pairing.scalar_mul(vk.IC[i + 1], input[i]));\n        }\n        vk_x = Pairing.addition(vk_x, vk.IC[0]);\n        if (!Pairing.pairingProd4(\n            Pairing.negate(proof.A), proof.B,\n            vk.alfa1, vk.beta2,\n            vk_x, vk.gamma2,\n            proof.C, vk.delta2\n        )) return 1;\n        return 0;\n    }\n    function verifyProof(\n            uint[2] memory a,\n            uint[2][2] memory b,\n            uint[2] memory c,\n            uint[73] memory input\n        ) public view returns (bool r) {\n        Proof memory proof;\n        proof.A = Pairing.G1Point(a[0], a[1]);\n        proof.B = Pairing.G2Point([b[0][0], b[0][1]], [b[1][0], b[1][1]]);\n        proof.C = Pairing.G1Point(c[0], c[1]);\n        uint[] memory inputValues = new uint[](input.length);\n        for(uint i = 0; i < input.length; i++){\n            inputValues[i] = input[i];\n        }\n        if (verify(inputValues, proof) == 0) {\n            return true;\n        } else {\n            return false;\n        }\n    }\n}\n",
  "sourcePath": "/Users/gokulalex/Apps/eth_apps/VerityNet/aave-circom-zkrollups/iden3-zkrollups/contracts/TxVerifier.sol",
  "compiler": {
    "name": "solc",
    "version": "0.5.11+commit.c082d0b4.Emscripten.clang"
  },
  "schemaVersion": "3.3.1",
  "updatedAt": "2020-10-20T12:59:39.906Z",
  "devdoc": {
    "methods": {}
  },
  "userdoc": {
    "methods": {}
  }
}