{
  "contractName": "EscapeVerifier",
  "abi": [
    {
      "inputs": [
        {
          "internalType": "address[63]",
          "name": "tables",
          "type": "address[63]"
        }
      ],
      "payable": false,
      "stateMutability": "nonpayable",
      "type": "constructor"
    },
    {
      "constant": false,
      "inputs": [
        {
          "internalType": "uint256[]",
          "name": "escapeProof",
          "type": "uint256[]"
        }
      ],
      "name": "verifyEscape",
      "outputs": [],
      "payable": false,
      "stateMutability": "nonpayable",
      "type": "function"
    },
    {
      "constant": true,
      "inputs": [
        {
          "internalType": "bytes32",
          "name": "hash",
          "type": "bytes32"
        }
      ],
      "name": "isValid",
      "outputs": [
        {
          "internalType": "bool",
          "name": "val",
          "type": "bool"
        }
      ],
      "payable": false,
      "stateMutability": "view",
      "type": "function"
    }
  ],
  "bytecode": "0x608060405234801561001057600080fd5b506040516107e83803806107e883398181016040526107e081101561003457600080fd5b810190809190505080600090603f61004d929190610062565b50600080111561005c57600080fd5b50610122565b82603f81019282156100ce579160200282015b828111156100cd5782518260006101000a81548173ffffffffffffffffffffffffffffffffffffffff021916908373ffffffffffffffffffffffffffffffffffffffff16021790555091602001919060010190610075565b5b5090506100db91906100df565b5090565b61011f91905b8082111561011b57600081816101000a81549073ffffffffffffffffffffffffffffffffffffffff0219169055506001016100e5565b5090565b90565b6106b7806101316000396000f3fe608060405234801561001057600080fd5b50600436106100365760003560e01c80632dd530061461003b5780636a938567146100b4575b600080fd5b6100b26004803603602081101561005157600080fd5b810190808035906020019064010000000081111561006e57600080fd5b82018360208201111561008057600080fd5b803590602001918460208302840111640100000000831117156100a257600080fd5b90919293919293905050506100fa565b005b6100e0600480360360208110156100ca57600080fd5b8101908080359060200190929190505050610677565b604051808215151515815260200191505060405180910390f35b60008282905090506044811015610179576040517f08c379a00000000000000000000000000000000000000000000000000000000081526004018080602001828103825260108152602001807f50726f6f6620746f6f2073686f72742e0000000000000000000000000000000081525060200191505060405180910390fd5b60c881106101ef576040517f08c379a000000000000000000000000000000000000000000000000000000000815260040180806020018281038252600f8152602001807f50726f6f6620746f6f206c6f6e672e000000000000000000000000000000000081525060200191505060405180910390fd5b60006001821614610268576040517f08c379a000000000000000000000000000000000000000000000000000000000815260040180806020018281038252601a8152602001807f50726f6f66206c656e677468206d757374206265206576656e2e00000000000081525060200191505060405180910390fd5b600060028083038161027657fe5b04905060006002820390506000600886866001870381811061029457fe5b90506020020135901c90508160020a8110610317576040517f08c379a00000000000000000000000000000000000000000000000000000000081526004018080602001828103825260148152602001807f7661756c744964206e6f7420696e20747265652e00000000000000000000000081525060200191505060405180910390fd5b60006020846002020290506060878780806020026020016040519081016040528093929190818152602001838360200280828437600081840152601f19601f8201169050808301925050505050505090506020810190506103ac565b7f08c379a00000000000000000000000000000000000000000000000000000000060005260206004528160245280604452816044016000fd5b805160041c7f0fffffffffffffffffffffffffffffffffffffffffffffffffffffffffffffff601f830151167f080000000000001100000000000000000000000000000000000000000000000080821181841117156104315761043060187f42616420737461726b4b6579206f7220746f6b656e49642e0000000000000000610373565b5b8560011b604051603f8702810160005b603f811015610471578889820284018a838b0184545afa610466573d6000803e3d6000fd5b600181019050610441565b5060008060007f08000000000000110000000000000000000000000000000000000000000000015b8b84101561061757838601925060019150825160208401518d850194505b86851015610525578451602086015185850385868383098508868483098781880888818209898a8a8c03850183098b8d8d88890909088a8c83098b8185099c508b8c8d8b8409848f030188098d8f8b098e030899508b8483099a505050505050505050508d850194506104b7565b604086019550858d015160041c7f0fffffffffffffffffffffffffffffffffffffffffffffffffffffffffffffff601f88018f0151168b81118c831117156105935761059260137f56616c7565206f7574206f662072616e67652e00000000000000000000000000610373565b5b60018b16156105a0578091505b856105d1576105d0600b7f615a206973207a65726f2e000000000000000000000000000000000000000000610373565b5b848683098403156106085761060760107f426164204d65726b6c6520706174682e00000000000000000000000000000000610373565b5b8a60011c9a5050505050610499565b89600052886020527f0fffffffffffffffffffffffffffffffffffffffffffffffffffffffffffffff605f8c0151166040528b8b015160041c6060528d6080528c60a052600160c060002055505050505050505050505050505050505050565b60008154905091905056fea265627a7a723158206c822f05f8f5bcf0e41e3cb398f4743402788df776cf94644f00dca6c3c50d9864736f6c63430005100032",
  "source": "pragma solidity ^0.5.2;\n\nimport \"../interfaces/IFactRegistry.sol\";\n\n/*\n  An escapeVerifier is a fact registry contract for claims of the form:\n  (starkKey, tokenId, quantizedAmount) is the leaf in index vaultId of a Merkle tree with\n  specific height and root.\n*/\ncontract EscapeVerifier is IFactRegistry {\n\n    // Note that those values are hardcoded in the assembly.\n    uint256 constant internal N_TABLES = 63;\n\n    address[N_TABLES] lookupTables;\n    constructor(address[N_TABLES] memory tables)\n        public {\n        lookupTables = tables;\n\n        // solium-disable-next-line security/no-inline-assembly\n        assembly {\n            if gt(lookupTables_slot, 0) {\n                // The address of the lookupTables must be 0.\n                // This is guaranteed by the ABI, as long as it is the first storage variable.\n                // This is an assumption in the implementation, and can be removed if\n                // the lookup table address is taken into account.\n                revert(0, 0)\n            }\n\n        }\n    }\n\n    /**\n      Verifies that the contents of a vault belong to a certain Merkle commitment (root).\n\n      The Merkle commitment uses the Pedersen hash variation described next:\n\n      - **Hash constants:** A sequence :math:`p_i` of 504 points on an elliptic curve and an additional :math:`ec_{shift}` point\n      - **Input:** A vector of 504 bits :math:`b_i`\n      - **Output:** The 252 bits x coordinate of :math:`(ec_{shift} + \\sum_i b_i*p_i)`\n\n      The following table describes the expected `escapeProof` format. Note that unlike a standard\n      Merkle proof, the `escapeProof` contains both the nodes along the Merkle path and their\n      siblings. The proof ends with the expected root and the ID of the vault for which the proof is\n      submitted (which implies the location of the nodes within the Merkle tree).\n\n          +-------------------------------+---------------------------+-----------+\n          | starkKey (252)                | tokenId (252)             | zeros (8) |\n          +-------------------------------+---------------------------+-----------+\n          | hash(starkKey, tokenId) (252) | quantizedAmount (252)     | zeros (8) |\n          +-------------------------------+---------------------------+-----------+\n          | left_node_0 (252)             | right_node_0 (252)        | zeros (8) |\n          +-------------------------------+---------------------------+-----------+\n          | ...                                                                   |\n          +-------------------------------+---------------------------+-----------+\n          | left_node_n (252)             | right_node_n (252)        | zeros (8) |\n          +-------------------------------+-----------+---------------+-----------+\n          | root (252)                    | zeros (4) | vaultId (248) | zeros (8) |\n          +-------------------------------+-----------+---------------+-----------+\n\n      If the proof is accepted, this is registered under the following claim hash that may later\n      be queried for validity:\n\n        `claimHash = keccak256(starkKey, tokenId, quantizedAmount, vaultRoot, treeHeight, vaultId)`\n\n      For information about when this module is to be used, see :sol:mod:`Escapes`.\n\n    */\n    /*\n      Implementation details:\n      The EC sum required for the hash computation is computed using lookup tables and EC additions.\n      There are 63 lookup tables and each table contains all the possible subset sums of the\n      corresponding 8 EC points in the hash definition.\n\n      Both the full subset sum and the tables are shifted to avoid a special case for the 0 point.\n      lookupTables[0] uses the offset 2^62*ec_shift and lookupTables[k] for k > 0 uses\n      the offset 2^(62-k)*(-ec_shift).\n      Note that the sum of the shifts of all the tables is exactly the shift required for the\n      hash. Moreover, the partial sums of those shifts are never 0.\n\n      The calls to the lookup table contracts are batched to save on gas cost.\n      We allocate a table of N_HASHES by N_TABLES EC elements.\n      Fill the i'th row by calling the i'th lookup contract to lookup the i'th byte in each hash and\n      then compute the j'th hash by summing the j'th column.\n\n                  N_HASHES\n              --------------\n              |            |\n              |            |\n              |            |\n              |            | N_TABLES\n              |            |\n              |            |\n              |            |\n              |            |\n              --------------\n\n      The batched lookup is facilitated by the fact that the escapeProof includes nodes along the\n      Merkle path.\n      However having this redundant information requires us to do consistency checks\n      to ensure we indeed verify a coherent authentication path:\n\n          hash((left_node_{i-1}, right_node_{i-1})) ==\n            (vaultId & (1<<i)) == 0 ? left_node_i : right_node_i.\n    */\n    function verifyEscape(uint256[] calldata escapeProof) external {\n        uint256 proofLength = escapeProof.length;\n\n        // The minimal supported proof length is for a tree height of 31 in a 68 word representation as follows:\n        // 1. 2 word pairs representing the vault contents + one hash of the 1st pair.\n        // 2. 31  word pairs representing the authentication path.\n        // 3. 1 word pair representing the root and the leaf index.\n        require(proofLength >= 68, \"Proof too short.\");\n\n        // The contract supports verification paths of lengths up to 97 in a 200 word representation as described above.\n        // This limitation is imposed in order to avoid potential attacks.\n        require(proofLength < 200, \"Proof too long.\");\n\n        // Ensure proofs are always a series of word pairs.\n        require((proofLength & 1) == 0, \"Proof length must be even.\");\n\n        // Each hash takes 2 256bit words and the last two words are the root and vaultId.\n        uint256 nHashes = (proofLength - 2) / 2;\n\n        // We use 2 hashes to compute the leaf.\n        uint256 height = nHashes - 2;\n\n        // Note that it is important to limit the range of vault id, to make sure\n        // we use the node = Merkle_root in the last iteration of the loop below.\n        uint256 vaultId = escapeProof[proofLength - 1] >> 8;\n        require(vaultId < 2**height, \"vaultId not in tree.\");\n\n        uint256 rowSize = (2 * nHashes) * 0x20;\n        uint256[] memory proof = escapeProof;\n        // solium-disable-next-line security/no-inline-assembly\n        assembly {\n            // Skip the length of the proof array.\n            proof := add(proof, 0x20)\n\n            function raise_error(message, msg_len) {\n                // Solidity generates reverts with reason that look as follows:\n                // 1. 4 bytes with the constant 0x08c379a0 (== Keccak256(b'Error(string)')[:4]).\n                // 2. 32 bytes offset bytes (typically 0x20).\n                // 3. 32 bytes with the length of the revert reason.\n                // 4. Revert reason string.\n\n                mstore(0, 0x08c379a000000000000000000000000000000000000000000000000000000000)\n                mstore(0x4, 0x20)\n                mstore(0x24, msg_len)\n                mstore(0x44, message)\n                revert(0, add(0x44, msg_len))\n            }\n\n            let starkKey := shr(4, mload(proof))\n            let tokenId := and(mload(add(proof, 0x1f)),\n                               0x0fffffffffffffffffffffffffffffffffffffffffffffffffffffffffffffff)\n\n            let primeMinusOne := 0x800000000000011000000000000000000000000000000000000000000000000\n            if or(gt(starkKey, primeMinusOne), gt(tokenId, primeMinusOne)) {\n                raise_error(\"Bad starkKey or tokenId.\", 24)\n            }\n\n            // hash(starkKey, tokenId) is on the left of the second hash.\n            let nodeSelectors := shl(1, vaultId)\n\n            // Allocate EC points table with dimensions N_TABLES by N_HASHES.\n            let table := mload(0x40)\n            let tableEnd := add(table, mul(rowSize, /*N_TABLES*/63))\n\n            // for i = 0..N_TABLES-1, fill the i'th row in the table.\n            for { let i := 0 } lt(i, 63) { i := add(i, 1)} {\n                if iszero(staticcall(gas, sload(i), add(proof, i), rowSize,\n                                     add(table, mul(i, rowSize)), rowSize)) {\n                   returndatacopy(0, 0, returndatasize)\n                   revert(0, returndatasize)\n                }\n            }\n\n            // The following variables are allocated above PRIME to avoid the stack too deep error.\n            // Byte offset used to access the table and proof.\n            let offset := 0\n            let ptr\n            let aZ\n\n            let PRIME := 0x800000000000011000000000000000000000000000000000000000000000001\n\n            // For k = 0..HASHES-1, Compute the k'th hash by summing the k'th column in table.\n            // Instead of k we use offset := k * sizeof(EC point).\n            // Additonally we use ptr := offset + j * rowSize to ge over the EC points we want\n            // to sum.\n            for { } lt(offset, rowSize) { } {\n                // Init (aX, aY, aZ) to the first value in the current column and sum over the\n                // column.\n                ptr := add(table, offset)\n                aZ := 1\n                let aX := mload(ptr)\n                let aY := mload(add(ptr, 0x20))\n\n                for { ptr := add(ptr, rowSize) } lt(ptr, tableEnd)\n                    { ptr:= add(ptr, rowSize) } {\n\n                    let bX := mload(ptr)\n                    let bY := mload(add(ptr, 0x20))\n\n                    // Set (aX, aY, aZ) to be the sum of the EC points (aX, aY, aZ) and (bX, bY, 1).\n                    let minusAZ := sub(PRIME, aZ)\n                    // Slope = sN/sD =  {(aY/aZ) - (bY/1)} / {(aX/aZ) - (bX/1)}.\n                    // sN = aY - bY * aZ.\n                    let sN := addmod(aY, mulmod(minusAZ, bY, PRIME), PRIME)\n\n                    let minusAZBX := mulmod(minusAZ, bX, PRIME)\n                    // sD = aX - bX * aZ.\n                    let sD := addmod(aX, minusAZBX, PRIME)\n\n                    let sSqrD := mulmod(sD, sD, PRIME)\n\n                    // Compute the (affine) x coordinate of the result as xN/xD.\n\n                    // (xN/xD) = ((sN)^2/(sD)^2) - (aX/aZ) - (bX/1).\n                    // xN = (sN)^2 * aZ - aX * (sD)^2 - bX * (sD)^2 * aZ.\n                    // = (sN)^2 * aZ + (sD^2) (bX * (-aZ) - aX).\n                    let xN := addmod(mulmod(mulmod(sN, sN, PRIME), aZ, PRIME),\n                                    mulmod(sSqrD,\n                                            add(minusAZBX, sub(PRIME, aX)),\n                                            PRIME),\n                                    PRIME)\n\n                    // xD = (sD)^2 * aZ.\n                    let xD := mulmod(sSqrD, aZ, PRIME)\n\n                    // Compute (aX', aY', aZ') for the next iteration and assigning them to (aX, aY, aZ).\n                    // (y/z) = (sN/sD) * {(bX/1) - (xN/xD)} - (bY/1).\n                    // aZ' = sD*xD.\n                    aZ := mulmod(sD, xD, PRIME)\n                    // aY' = sN*(bX * xD - xN) - bY*z = -bY * z + sN * (-xN + xD*bX).\n                    aY := addmod(sub(PRIME, mulmod(bY, aZ, PRIME)),\n                                    mulmod(sN,\n                                    add(sub(PRIME, xN),\n                                        mulmod(xD, bX, PRIME)),\n                                    PRIME),\n                                PRIME)\n\n                    // As the value of the affine x coordinate is xN/xD and z=sD*xD,\n                    // the projective x coordinate is xN*sD.\n                    aX := mulmod(xN, sD, PRIME)\n                }\n\n                // At this point proof[offset + 0x40] holds the next input to be hashed.\n                // This input is typically in the form left_node||right_node||0 and\n                // we need to extract the relevent node for the consistent check below.\n                // Note that the same logic is reused for the leaf computation and\n                // for the consistent check with the final root.\n                offset := add(offset, 0x40)\n\n                // Init expected_hash to left_node.\n                // It will be replaced by right_node if necessary.\n                let expected_hash := shr(4, mload(add(proof, offset)))\n\n                let other_node := and(  // right_node\n                    mload(add(proof, add(offset, 0x1f))),\n                    0x0fffffffffffffffffffffffffffffffffffffffffffffffffffffffffffffff)\n\n                // Make sure both nodes are in the range [0, PRIME - 1].\n                if or(gt(expected_hash, primeMinusOne), gt(other_node, primeMinusOne)) {\n                    raise_error(\"Value out of range.\", 19)\n                }\n\n                if and(nodeSelectors, 1) {\n                    expected_hash := other_node\n                }\n\n                // Make sure the result is consistent with the Merkle path.\n                // I.e (aX/aZ) == expected_hash,\n                // where expected_hash = (nodeSelectors & 1) == 0 ? left_node : right_node.\n                // We also make sure aZ is not 0. I.e. during the summation we never tried\n                // to add two points with the same x coordinate.\n                // This is not strictly necessary because knowing how to trigger this condition\n                // implies knowing a non-trivial linear equation on the random points defining the\n                // hash function.\n                if iszero(aZ) {\n                   raise_error(\"aZ is zero.\", 11)\n                }\n\n                if sub(aX, mulmod(expected_hash, aZ, PRIME))/*!=0*/ {\n                   raise_error(\"Bad Merkle path.\", 16)\n                }\n                nodeSelectors := shr(1, nodeSelectors)\n            }\n\n            mstore(0, starkKey)\n            mstore(0x20,  tokenId)\n            mstore(0x40,  // quantizedAmount\n                   and(mload(add(proof, 0x5f)),\n                       0x0fffffffffffffffffffffffffffffffffffffffffffffffffffffffffffffff))\n            mstore(0x60, shr(4, mload(add(proof, rowSize)))) // vaultRoot\n            mstore(0x80, height)\n            mstore(0xa0, vaultId)\n\n            // claimHash := keccak256(\n            //      starkKey, tokenId, quantizedAmount, vaultRoot, height, vaultId).\n            // storage[claimHash] := 1.\n            sstore(keccak256(0, 0xc0), 1)\n        }\n    }\n\n\n    /*\n      Checks the validity status of the claim corresponding to:\n      keccak256(abi.encode(starkKey, tokenId, quantizedAmount, root, height, vaultId)).\n    */\n    function isValid(bytes32 hash)\n    external view returns(bool val)\n    {\n        // solium-disable-next-line security/no-inline-assembly\n        assembly {\n            val := sload(hash)\n        }\n    }\n}\n",
  "sourcePath": "/Users/gokulalex/Apps/eth_apps/VerityNet/starkex-deployment/scalable-dex/contracts/components/EscapeVerifier.sol",
  "compiler": {
    "name": "solc",
    "version": "0.5.16+commit.9c3226ce.Emscripten.clang"
  },
  "schemaVersion": "3.3.1",
  "updatedAt": "2020-10-21T18:42:18.026Z",
  "devdoc": {
    "methods": {}
  },
  "userdoc": {
    "methods": {
      "verifyEscape(uint256[])": {
        "notice": "Verifies that the contents of a vault belong to a certain Merkle commitment (root). The Merkle commitment uses the Pedersen hash variation described next: - **Hash constants:** A sequence :math:`p_i` of 504 points on an elliptic curve and an additional :math:`ec_{shift}` point - **Input:** A vector of 504 bits :math:`b_i` - **Output:** The 252 bits x coordinate of :math:`(ec_{shift} + \\sum_i b_i*p_i)` The following table describes the expected `escapeProof` format. Note that unlike a standard Merkle proof, the `escapeProof` contains both the nodes along the Merkle path and their siblings. The proof ends with the expected root and the ID of the vault for which the proof is submitted (which implies the location of the nodes within the Merkle tree). +-------------------------------+---------------------------+-----------+ | starkKey (252)                | tokenId (252)             | zeros (8) | +-------------------------------+---------------------------+-----------+ | hash(starkKey, tokenId) (252) | quantizedAmount (252)     | zeros (8) | +-------------------------------+---------------------------+-----------+ | left_node_0 (252)             | right_node_0 (252)        | zeros (8) | +-------------------------------+---------------------------+-----------+ | ...                                                                   | +-------------------------------+---------------------------+-----------+ | left_node_n (252)             | right_node_n (252)        | zeros (8) | +-------------------------------+-----------+---------------+-----------+ | root (252)                    | zeros (4) | vaultId (248) | zeros (8) | +-------------------------------+-----------+---------------+-----------+ If the proof is accepted, this is registered under the following claim hash that may later be queried for validity: `claimHash = keccak256(starkKey, tokenId, quantizedAmount, vaultRoot, treeHeight, vaultId)` For information about when this module is to be used, see :sol:mod:`Escapes`."
      }
    }
  }
}